:020000022000DC
:1070000000000420CDF904000DFA04000FFA04007A
:1070100011FA040013FA040015FA0400000000003D
:1070200000000000000000000000000049F904001A
:1070300019FA04000000000069F904001DFA0400B8
:1070400021FC04001FFA04001FFA040049EA0300AF
:10705000FDEA03001FFA0400DDD304001FFA040058
:107060001FFA04001FFA04001FFA04001FFA0400AC
:107070001FFA04001FFA04001FFA04001FFA04009C
:107080001FFA040099F604001FFA04001FFA040016
:107090001FFA04001FFA0400D51B04001FFA0400A5
:1070A0001FFA04001FFA04001FFA04001FFA04006C
:1070B0001FFA04001FFA0400000000000000000096
:1070C0001FFA04001FFA04001FFA04000DFD04005B
:1070D0001FFA04001FFA04001FFA0400952F040091
:1070E0001FFA04001FFA04001FFA04000000000049
:1070F000000000001FFA04000000000085FD0400ED
:10710000000000000000000000000000000000007F
:10711000000000000000000000000000000000006F
:10712000000000000000000000000000000000005F
:10713000000000000000000000000000000000004F
:10714000000000000000000000000000000000003F
:10715000000000000000000000000000000000002F
:10716000000000000000000000000000000000001F
:10717000000000000000000000000000000000000F
:1071800000000000000000000000000000000000FF
:1071900000000000000000000000000000000000EF
:1071A00000000000000000000000000000000000DF
:1071B00000000000000000000000000000000000CF
:1071C00000000000000000000000000000000000BF
:1071D00000000000000000000000000000000000AF
:1071E000000000000000000000000000000000009F
:1071F000000000000000000000000000000000008F
:10720000F1EE103A43F08073E1EE103A704700BFA0
:1072100010B5054C237833B9044B13B10448AFF3D0
:1072200000800123237010BDD06300200000000007
:107230006CDC050008B5034B1BB103490348AFF3F1
:10724000008008BD00000000D46300206CDC050055
:10725000154B002B08BF134B9D46A3F5803A002128
:107260008B460F461348144A121A2FF061FA0F4B3F
:10727000002B00D098470E4B002B00D098470020E1
:10728000002104000D000D48002802D00C48AFF387
:1072900000802FF0E3F92000290028F0EFFB2FF009
:1072A000B7F900BF00000800000004200000000043
:1072B00000000000D063002064AF00200000000048
:1072C00000000000406870470020704790F82530AB
:1072D00090F824209A4205D900EBC3004068036867
:1072E0005B681847704700BF704700BF013902292B
:1072F00008D8416840F2DB53521A9A4284BF0123F6
:107300000372704742607047037A0BB10022027229
:107310001846704700230372436070478FDF704741
:1073200000797047704700BF704700BF704700BFCB
:10733000704700BF704700BF704700BF08B501200D
:1073400029F090F9B0FA80F0400908BD26F088B81D
:1073500010B5044628F0D4FB204610BD10B50446F5
:1073600028F0CEFB204610BD10B5044628F0C8FB1F
:10737000204610BD10B5044628F0C2FB204610BDC3
:1073800010B5044628F0BCFB204610BD10B586B0F1
:107390000024084601A9CDE90144CDE90444039243
:1073A0008DF8063015F0ECFEB0FA80F0400906B01A
:1073B00010BD00BF08B5044815F0C8FABDE8084084
:1073C000322026F059B800BF606C0020014815F04B
:1073D000C5BA00BF606C002090F824303BB190F833
:1073E000253000EBC30040680368DB681847184687
:1073F000704700BF90F8243003B32DE9F0410446F4
:1074000090F8250004EBC0060D46B3686BB10B681D
:10741000214F9B69BB4238D126F022F8A26AB3689B
:10742000801A98420CD294F8250004EBC00029463B
:1074300040680368BDE8F0419B681847002070472A
:107440007068036829465B68984794F8253094F87B
:1074500024200133DBB2934284F8253002D3013A71
:1074600084F825202B689B69BB4211D125F0F8FFD9
:1074700094F82530A06204EBC304294660680368D1
:107480001B6898470020BDE8F08108469847C5E78B
:1074900028469847ECE700BF4D730200002370B503
:1074A00080F825300B680B4A9B69934204460D46D1
:1074B0000DD125F0D5FF94F82430A06233B1606877
:1074C000036829461B68BDE87040184770BD084630
:1074D0009847F0E74D73020030B50A68154BD56840
:1074E0009D4287B00C4617D100230122124D019313
:1074F00001A91220CDE9043302938DF806200395EB
:1075000015F03EFE23680D4A1B6893420ED10C48CD
:1075100015F024FA07B030BD074A01231221204696
:10752000A8472368054A1B689342F0D02046984735
:1075300007B030BD8D73020080841E00CD73020041
:10754000606C002030B50A68154BD5689D4287B045
:107550000C4616D10023012201A919200193CDE97F
:107560000233CDE904338DF8062015F009FE2368B7
:107570000C4A1B6893420ED10B4815F0EFF907B087
:1075800030BD0123002219212046A8472368054A5F
:107590001B689342F0D02046984707B030BD00BF2B
:1075A0008D730200CD730200606C00202DE9F0475E
:1075B0009748984D984F90B015F0BAF924220021C1
:1075C000804607A82FF0B4F8944B069325F048FFA7
:1075D000934A944BDFF86CE2DFF86CC29249A2FB4D
:1075E000002003EB9010A5FB003A4FEA5A1AA5FBC6
:1075F0000A356D09A7FB05473F0952462B46CAEBE2
:107600000A1AC5EB05153C4607EB4707A0EB8A0AAB
:10761000A2EB8505A3EBC70740F2B27640F26D10EE
:107620000DE0BCEBB20FC0F08680B1EB321F2CBF77
:107630004FF4B772024694420AD3A41A013616F0E8
:1076400003030EFB06F2ECD040F26D129442F4D22A
:10765000764AA2FB06124FEA52196420D2094FF46F
:10766000C87100FB196901FB1262002B66D01E2C49
:1076700040F2AF80A4F11F031B2B40F2A280A4F1C3
:107680003B031E2B40F2A180A4F15A031D2B40F2B4
:10769000A380A4F178031E2B40F2A280A4F19703EB
:1076A0001D2B40F28A80A4F1B5031E2B40F29C8072
:1076B000A4F1D4031E2B40F29F80A4F1F3031D2BF1
:1076C00040F29E806FF4887163181E2B40F2908008
:1076D000A4F598731D2B40F29780A4F5A7744FF082
:1076E0000B0925F0BDFE4E4A5149CDF80CA0A2FB76
:1076F000003292094FF47A7303FB1200013409F14E
:10770000010332460490CDE901750094494825F003
:1077100041FC434606AA4849464825F03BFC06A9D9
:107720002822464818F0F6F825F09AFE444B1860D7
:1077300010B0BDE8F0874FF4B7727CE79AB3B9F1A7
:10774000000F36D01E2C44D9A4F11F031C2B38D9AE
:10775000A4F13C031E2B38D9A4F15B031D2B3BD9AC
:10776000A4F179031E2B3BD9A4F198031D2B24D936
:10777000A4F1B6031E2B37D9A4F1D5031E2B3BD998
:10778000A4F1F4031D2B3BD9A4F589731E2B2FD92B
:107790006FF49872A3181D2B36D96FF4A7731C448D
:1077A0004FF00B099DE7B9F1000FCBD11E2CCBD8C0
:1077B00097E71E2C3FF65EAF93E71C464FF0050996
:1077C0008FE71C464FF001098BE71C464FF002097A
:1077D00087E74FF0000984E71C464FF0030980E774
:1077E0001C464FF004097CE71C464FF0060978E779
:1077F0001C464FF0090974E71C464FF0070970E773
:107800001C464FF008096CE71C464FF00A0968E770
:10781000606C002089888888ABAAAAAA746170006D
:10782000D34D62108736006A0AD7A3001F85EB513B
:107830004C9705003C830020749705006068002089
:10784000906D0020295C8FC2285C8F022DE9F04FDB
:1078500089B08A46804625F003FEDF49DF4BE04DC4
:10786000E04FDFF8B8E3DFF8B8C3DF4AA1FB001050
:1078700003EB9010A5FB00135B091E46A5FB063524
:107880006D09A7FB05373F092946C6EB0613C5EB73
:1078900005153C4607EB4707A6EB8505A0EB8303E0
:1078A000A1EBC70740F2B27640F26D190DE0BCEBD8
:1078B000B00FC0F04781B2EB301F2CBF4FF4B77050
:1078C000484684420AD3241A013616F003010EFBFF
:1078D00006F0ECD040F26D108442F4D2C34AA2FB11
:1078E00006024FEA521B4FF0640CD2094FF4C870E5
:1078F0000CFB1B6B00FB1262002900F026811E2C82
:1079000040F2E482A4F11F021B2A40F2D782A4F1C4
:107910003B021E2A40F2D682A4F15A021D2A40F2EE
:10792000D882A4F178021E2A40F2D782A4F19702ED
:107930001D2A40F27F81A4F1B5021E2A40F2D182B5
:10794000A4F1D4021E2A40F2DC82A4F1F3021D2A23
:1079500040F2E3826FF48872A2181E2A40F2C582B8
:10796000A4F598721D2A40F2F282A4F5A7744FF094
:107970000B0B079325F074FDDFF85C92079B0393D4
:10798000A9FB00239B094FF47A7202FB1300013418
:10799000CDE901753246964900940BF1010304903C
:1079A0009448954F954E964D964C25F0F3FA96498E
:1079B00090485346424625F0EDFA944BDFF864E2D6
:1079C000DFF864C219789248924A0023CEF800305A
:1079D0008CF800303B7033702B70237080F82C31A2
:1079E00082F82C31002900F02C8125F039FD7B4BE9
:1079F0007B4E7C4FDFF824E2DFF824C27A4AA9FBF1
:107A0000001903EB9919A6FB093A4FEA5A1AA6FB8B
:107A10000A367609A7FB06073F0951463346CAEBEB
:107A20000A1AC6EB06163C4607EB4707A9EB8A0A7B
:107A3000A1EB8606A3EBC70740F2B27540F26D10CA
:107A40000DE0BCEBB30FC0F0F980B2EB331F2CBFDD
:107A50004FF4B77303469C420AD3E41A013515F07C
:107A600003010EFB05F3ECD040F26D139C42F4D2FF
:107A70005E4AA2FB05324FEA52186420D2094FF445
:107A8000C87300FB185803FB1252002900F08981CB
:107A90001E2C40F24682A4F11F031B2B40F22D82C4
:107AA000A4F13B031E2B40F23082A4F15A031D2B9C
:107AB00040F23D82A4F178031E2B40F24482A4F1EF
:107AC00097031D2B40F24782A4F1B5031E2B40F211
:107AD0004A82A4F1D4031E2B40F24D82A4F1F30399
:107AE0001D2B40F254826FF4887E04EB0E031E2B94
:107AF00040F25182A4F598731D2B40F26D82A4F5DB
:107B0000A7744FF00B0825F0ABFC334A3849CDF889
:107B10000CA0A2FB003292094FF47A7303FB12000F
:107B200001340490CDE90176009408F101032A465E
:107B3000304825F02FFA38492E4809B0BDE8F04FFB
:107B400025F028BA4FF4B770BBE6F2B3BBF1000FD3
:107B50006CD01E2C40F2BA81A4F11F021C2A40F204
:107B6000AD81A4F13C021E2A40F2AC81A4F15B027B
:107B70001D2A40F2AE81A4F179021E2A40F2AD81A5
:107B8000A4F198021D2A55D9A4F1B6021E2A40F28A
:107B9000A881A4F1D5021E2A40F2B381A4F1F40217
:107BA0001D2A40F2BA81A4F589721E2A40F29D81F5
:107BB0006FF4987B04EB0B021D2A40F2C8816FF42E
:107BC000A7794C444FF00B0BD3E6BBF1000FC0D1AB
:107BD0001E2CC1D8CDE600BFD34D62108736006A97
:107BE00089888888ABAAAAAA0AD7A3001F85EB5167
:107BF0004C9705003C830020FD6300208C6400202E
:107C000048670020806D002084970500E86E002002
:107C100014660020EC6E0020B4970500295C8FC22A
:107C2000285C8F02F4630020506700201E2C3FF672
:107C300069AE9EE614464FF0050B9AE64FF4B77313
:107C400009E7D748D74ED84F17F04EF925F008FC72
:107C5000D64BDFF874E3DFF874C3D54AA9FB0019EB
:107C600003EB9919A6FB093A4FEA5A1AA6FB0A3602
:107C70007609A7FB06073F0951463346CAEB0A1AA5
:107C8000C6EB06163C4607EB4707A9EB8A0AA1EBB1
:107C90008606A3EBC70740F2B27540F26D100CE008
:107CA000BCEBB30F7AD3B2EB331F2CBF4FF4B773D7
:107CB00003469C420AD3E41A013515F003010EFB7A
:107CC00005F3EDD040F26D139C42F4D2B94AA2FB09
:107CD00005324FEA52186420D2094FF4C87300FBF2
:107CE000185803FB1252002964D01E2C40F21C814C
:107CF000A4F11F031B2B40F2FC80A4F13B031E2BBD
:107D000040F20781A4F15A031D2B40F21481A4F123
:107D100078031E2B40F21381A4F197031D2B40F230
:107D20001E81A4F1B5031E2B40F22181A4F1D403DE
:107D30001E2B40F22481A4F1F3031D2B40F223817A
:107D40006FF4887163181E2B40F24281A4F598737A
:107D50001D2B40F24581A4F5A7744FF00B0825F0C8
:107D60007FFB954A9549CDF80CA0A2FB0032920901
:107D70004FF47A7303FB120001340490CDE90176CD
:107D8000009408F101032A468D4825F003F98D4936
:107D90008B4809B0BDE8F04F25F0FCB84FF4B7733D
:107DA00087E7002A4BD0B8F1000F0BD11E2C3FF60D
:107DB00072AEA8E6002A7BD0B8F1000F45D11E2C88
:107DC00096D8CCE71E2C40F2AC80A4F11F031C2BEC
:107DD00040F29380A4F13C031E2B40F29680A4F164
:107DE0005B031D2B40F2A380A4F179031E2B40F20C
:107DF000AA80A4F198031D2B40F2AD80A4F1B60334
:107E00001E2B40F2B080A4F1D5031E2B40F2B380AC
:107E1000A4F1F4031D2B40F2BA80A4F589731E2B44
:107E200040F2B9806FF4987C04EB0C031D2B40F2F8
:107E3000D3806FF4A77004444FF00B0863E6B8F1E9
:107E4000000FBFD11E2CC0D85DE61E2C6CD9A4F14A
:107E50001F031C2B4DD9A4F13C031E2B59D9A4F1AF
:107E60005B031D2B67D9A4F179031E2B67D9A4F1FD
:107E700098031D2B73D9A4F1B6031E2B77D9A4F157
:107E8000D5031E2B7BD9A4F1F4031D2B7BD9A4F5BC
:107E900089731E2B40F29C806FF49872A3181D2BDF
:107EA00040F29E806FF4A7731C444FF00B0856E716
:107EB000B8F1000FC9D11E2CC9D850E714464FF0B5
:107EC000010B56E514464FF0020B52E54FF0000B44
:107ED0004FE514464FF0030B4BE514464FF0040BEF
:107EE00047E514464FF0060B43E514464FF0090BE7
:107EF0003FE51C464FF0010831E71C464FF00108F2
:107F000001E614464FF0070B33E51C464FF002081C
:107F1000F9E51C464FF0020821E714464FF0080B24
:107F200027E54FF00008EEE54FF0000817E71C4684
:107F30004FF00308E7E51C464FF003080FE71C4627
:107F40004FF004080BE71C464FF00408DBE514462D
:107F50004FF00A0B0DE51C464FF00508D3E51C4613
:107F60004FF00508FBE61C464FF00608CBE51C4623
:107F70004FF00608F3E61C464FF00708C3E51C4621
:107F80004FF00708EBE61C464FF00808E7E61C46F2
:107F90004FF00808B7E51C464FF00908B3E500BFED
:107FA0000481002089888888ABAAAAAA8736006A3B
:107FB0000AD7A3001F85EB51D34D62104C970500E3
:107FC0003C830020F0970500295C8FC2285C8F025B
:107FD0001C464FF00908C2E61C464FF00A0892E51D
:107FE0001C464FF00A08BAE62DE9F0479A4B9B4E23
:107FF0009B4F01228CB01A7025F032FA994B186011
:1080000025F02EFA984A994B9949DFF88CC2DFF88F
:108010008CE2A2FB002003EB9010A6FB00384FEA95
:108020005818A6FB08367609A7FB06473F094246C3
:108030003346C8EB0818C6EB06163D4607EB470764
:10804000A0EB8808A2EB8606A3EBC70740F2B27448
:1080500040F26D100DE0BCEBB30FC0F0C581BEEB7C
:10806000331F2CBF4FF4B77303469D420AD3ED1A5A
:10807000013414F0030201FB04F3ECD040F26D1361
:108080009D42F4D27B49A1FB04314FEA511964208F
:10809000C9094FF4C87300FB194903FB1141002AB9
:1080A00000F0A5811E2D40F21982A5F11F031B2BA4
:1080B00040F21082A5F13B031E2B40F25C82A5F139
:1080C0005A031D2B40F26282A5F178031E2B40F269
:1080D0006982A5F197031D2B40F20382A5F1B50338
:1080E0001E2B40F26782A5F1D4031E2B40F26E8254
:1080F000A5F1F3031D2B40F275826FF4887E05EB2A
:108100000E031E2B40F25E82A5F598731D2B40F2E4
:108110007182A5F5A7754FF00B0925F0A1F9524B17
:10812000CDF80C80A3FB00239B094FF47A7202FB6D
:108130001300DFF86C8150490490013509F1010307
:108140002246CDE901764D48009524F023FF98F8AA
:108150000020079225F084F90346494849490468FC
:10816000079A46481B1B24F015FF474818F096F85D
:10817000002840F08981454816F01CFF98F800302F
:10818000002B40F09B8100234148424F1A460521B5
:10819000804614F041FC00231A460621404614F0A4
:1081A0003BFC00231A460421404614F035FC002312
:1081B0001A461321404614F02FFC00231A460221D0
:1081C000404614F029FC25F04BF947F0010705461D
:1081D00000260CE025F044F9431BB3F5967F40469A
:1081E0000BD214F0FDFB4FF4FA302646B8470120BD
:1081F00028F038FA741C0028ECD025F031F91A4A1E
:108200001A4B164F164C1A49DFF88CC0DFF88CE079
:10821000A2FB002003EB9010A7FB00394FEA59198D
:10822000A7FB09377F09A4FB07484FEA18184A46FD
:108230003B46C9EB0919C7EB0717454608EB480849
:10824000A0EB8909A2EB8707A3EBC80840F2B27440
:1082500040F26D1034E000BFE86E00208988888805
:10826000ABAAAAAAE46E0020D34D62108736006A3A
:10827000295C8FC21F85EB514C9705003C83002081
:10828000906D00200C980500C47A00200481002025
:10829000606C002000AF0500285C8F020AD7A300A5
:1082A00084640020BCEBB30FC0F01F81BEEB331F12
:1082B0002CBF4FF4B77303469D420AD3ED1A013425
:1082C00014F0030201FB04F3ECD040F26D139D4265
:1082D000F4D2CC49A1FB04314FEA511A6420C909F8
:1082E0004FF4C87300FB1A4A03FB1141002A00F047
:1082F000FF801E2D40F24781A5F11F031B2B40F28A
:108300003681A5F13B031E2B40F23981A5F15A03BA
:108310001D2B40F23F81A5F178031E2B40F23E81D8
:10832000A5F197031D2B40F24181A5F1B5031E2B4A
:1083300040F24481A5F1D4031E2B40F24B81A5F1FC
:10834000F3031D2B40F24A816FF488716B181E2BCA
:1083500040F24C81A5F598731D2B40F24F81A5F595
:10836000A7754FF00B0A25F07BF8A74BA749CDF86E
:108370000C90A3FB00239B094FF47A7202FB1300BD
:1083800001350AF1010322460490CDE90187A04896
:10839000009524F0FFFD012028F064F9F2B20346B5
:1083A0009C499B4824F0F6FD01210C2028F0B8F8E8
:1083B00001210C2028F038F9502025F05DF800212B
:1083C0000C2028F031F9002025F056F8924B1A794C
:1083D0003AB9186828B102689049126801241C71E2
:1083E00090470CB0BDE8F0874FF4B7733DE6E1B3BA
:1083F000B9F1000F3FD01E2D70D9A5F11F031C2B22
:1084000068D9A5F13C031E2B40F2B580A5F15B03B2
:108410001D2B40F2BB80A5F179031E2B40F2C280D8
:10842000A5F198031D2B5CD9A5F1B6031E2B40F2D4
:10843000C180A5F1D5031E2B40F2C880A5F1F4033D
:108440001D2B40F2CF80A5F589731E2B40F2BA8018
:108450006FF4987C05EB0C031D2B40F2CB806FF47E
:10846000A77005444FF00B0957E6B9F1000FC2D1D0
:108470001E2DC2D851E61E2D7FF64FAEA5F11F036B
:108480001B2B3FF617AE25E00423012209A96448FF
:108490008DF8243017F03EFA502024F0EDFF002133
:1084A000604819F06DFB322024F0E6FF5E4816F0BC
:1084B00081FD98F80030002B3FF465AE002309A938
:1084C0000C225A480A9388F8003009930B9317F04E
:1084D000E5F958E61D464FF001091EE64FF0000988
:1084E0001BE61D464FF0050917E64FF4B773E3E6A8
:1084F000B9B3BAF1000F03D11E2D3FF6FDAE32E73E
:108500001E2D40D9A5F11F031C2B30D9A5F13C032A
:108510001E2B34D9A5F15B031D2B3BD9A5F17903A3
:108520001E2B3BD9A5F198031D2B3FD9A5F1B6030E
:108530001E2B43D9A5F1D5031E2B4BD9A5F1F4036E
:108540001D2B4BD9A5F589731E2B4FD96FF498724B
:10855000AB181D2B52D96FF4A7731D444FF00B0AB3
:1085600001E7BAF1000FCBD11E2DCBD8FBE61D469B
:108570004FF0010AF7E61D464FF00209CDE51D4612
:108580004FF0020AEFE64FF0000AECE61D464FF00E
:108590000309C2E51D464FF0030AE4E61D464FF00D
:1085A000040AE0E61D464FF00409B6E51D464FF00B
:1085B000050AD8E61D464FF00609AEE51D464FF008
:1085C000060AD0E61D464FF00909A6E51D464FF004
:1085D0000709A2E51D464FF0070AC4E61D464FF005
:1085E000080AC0E61D464FF0080996E51D464FF003
:1085F000090AB8E61D464FF00A098EE51D464FF000
:108600000A0AB0E61F85EB51D34D62104C97050066
:108610003C83002060980500586E002024600020F4
:1086200020700020C47A002004810020AC67002064
:10863000012B00D070472DE9F047DFF88C821378CA
:1086400098F800101A1E18BF0122914286B008D077
:1086500088F80020002B00F0E8809148142114F0E5
:1086600085F924F0FDFE8F498F4B904E904FDFF837
:108670005CC2904ADFF858E2A1FB001003EB9010B7
:10868000A6FB00394FEA5919A6FB09367609A7FB64
:1086900006473F0949463346C9EB0919C6EB06169A
:1086A0003C4607EB4707A0EB8909A1EB8606A3EB45
:1086B000C70740F2B27540F26D100CE0B2EBB30F99
:1086C0007BD3BEEB331F2CBF4FF4B77303469C42E2
:1086D0000AD3E41A013515F003010CFB05F3EDD0C4
:1086E00040F26D139C42F4D2734AA2FB05324FEA6A
:1086F000521A6420D2094FF4C87300FB1A5A03FBC4
:10870000125200295CD01E2C40F2AB80A4F11F0352
:108710001B2B40F29E80A4F13B031E2B40F29D8058
:10872000A4F15A031D2B40F29F80A4F178031E2B65
:1087300040F29E80A4F197031D2B40F29D80A4F18E
:10874000B5031E2B40F29C80A4F1D4031E2B40F2F3
:108750009B80A4F1F3031D2B77D96FF48871631804
:108760001E2B40F29580A4F598731D2B40F2948047
:10877000A4F5A7744FF00B0A24F072FE494B4F4941
:10878000CDF80C90A3FB00239B094FF47A7202FBF7
:10879000130001342A460490CDE9017600940AF1D1
:1087A0000103474824F0F6FB98F800204549444867
:1087B00006B0BDE8F04724F0EDBB4FF4B77386E791
:1087C000CAB3BAF1000F3CD01E2C4AD9A4F11F0342
:1087D0001C2B3ED9A4F13C031E2B3ED9A4F15B0314
:1087E0001D2B41D9A4F179031E2B41D9A4F1980383
:1087F0001D2B41D9A4F1B6031E2B41D9A4F1D503F9
:108800001E2B41D9A4F1F4031D2B1ED9A4F58973A5
:108810001E2B3DD96FF49872A3181D2B3CD96FF411
:10882000A7731C444FF00B0AA6E71A4605211C4803
:1088300014F0F2F815E7BAF1000FC5D11E2CC5D817
:108840009AE71E2C3FF662AF96E71C464FF0080AE7
:1088500092E71C464FF0010A8EE71C464FF0020AD1
:108860008AE74FF0000A87E71C464FF0030A83E7C8
:108870001C464FF0040A7FE71C464FF0050A7BE7D1
:108880001C464FF0060A77E71C464FF0070A73E7CD
:108890001C464FF0090A6FE71C464FF00A0A6BE7C7
:1088A000606C0020D34D62108736006A8988888802
:1088B000ABAAAAAA285C8F021F85EB514C97050032
:1088C0003C8300208C980500606E0020295C8FC2DC
:1088D0000AD7A300012B00D070472DE9F047934F32
:1088E00013783A78003B18BF01239A4286B002D130
:1088F00006B0BDE8F0873B7024F0B2FD8C498D4B8B
:108900008D4E8E4CDFF84CC28D4ADFF84CE2A1FB55
:10891000001003EB9010A6FB00394FEA5919A6FB93
:1089200009367609A4FB06484FEA1818494633462B
:10893000C9EB0919C6EB0616444608EB4808A0EB3C
:108940008909A1EB8606A3EBC80840F2B27540F294
:108950006D100CE0B2EBB30F7AD3BEEB331F2CBF1C
:108960004FF4B77303469C420AD3E41A013515F05D
:1089700003010CFB05F3EDD040F26D139C42F4D2E1
:10898000704AA2FB05324FEA521A6420D2094FF412
:10899000C87300FB1A5A03FB125200295BD01E2C2D
:1089A00040F2A880A4F11F031B2B40F29B80A4F18E
:1089B0003B031E2B40F29A80A4F15A031D2B40F278
:1089C0009C80A4F178031E2B40F29B80A4F19703B6
:1089D0001D2B40F28380A4F1B5031E2B40F295803D
:1089E000A4F1D4031E2B40F29480A4F1F3031D2BB9
:1089F00040F293806FF4887163181E2B6AD9A4F536
:108A000098731D2B40F28D80A4F5A7744FF00B0ACC
:108A100024F026FD464B4C49CDF80C90A3FB0023D7
:108A20009B094FF47A7202FB130001342A4604902A
:108A3000CDE9018600940AF10103444824F0AAFA22
:108A40003A784349414806B0BDE8F04724F0A2BA5D
:108A50004FF4B77387E79AB3BAF1000F36D01E2CE4
:108A600048D9A4F11F031C2B3CD9A4F13C031E2BB5
:108A70003CD9A4F15B031D2B3FD9A4F179031E2B34
:108A80003FD9A4F198031D2B28D9A4F1B6031E2BBE
:108A90003BD9A4F1D5031E2B3BD9A4F1F4031D2B24
:108AA0003BD9A4F589731E2B14D96FF49872A318BF
:108AB0001D2B36D96FF4A7731C444FF00B0AA7E7A0
:108AC000BAF1000FCBD11E2CCBD8A1E71E2C3FF65C
:108AD00069AF9DE71C464FF0090A99E71C464FF025
:108AE000050A95E71C464FF0010A91E71C464FF036
:108AF000020A8DE74FF0000A8AE71C464FF0030A8E
:108B000086E71C464FF0040A82E71C464FF0060A2F
:108B10007EE71C464FF0070A7AE71C464FF0080A2A
:108B200076E71C464FF00A0A72E700BF046800208F
:108B3000D34D62108736006A89888888ABAAAAAAB2
:108B4000285C8F021F85EB514C9705003C83002069
:108B5000A4980500295C8FC20AD7A3002DE9F04F25
:108B60000B68C64A5B6893428FB00C4640F0F180B8
:108B7000C34813F0EBFE322024F07EFC2368C14A88
:108B80009B68934240F0E0800025257124F068FC4A
:108B9000BD4EBB4F8046A94646F0010602E04FF4A9
:108BA000FA30B04724F05CFCA0EB0803B3F5967FE5
:108BB00038461ED213F014FF0346384673B113F043
:108BC0007BFF09F1010348B1002D08BF05461928B4
:108BD0005FFA83F920710CD012280AD0012027F007
:108BE00041FD0128DBD124F03BFCA0EB0800142858
:108BF000D5D9B9F1000F15D12268A44BD5689D4293
:108C00004FF0000340F0A88009A912200993CDE994
:108C10000C330B938DF826300A9314F0B1FA0FB091
:108C2000BDE8F08F24F01CFC99499A4A9A4B9B4E60
:108C3000DFF880E2DFF880C2A1FB001002EB9010A9
:108C4000A3FB00125209A3FB023A4FEA5A1A11463B
:108C5000A6FB0A2B4FEA1B1BC1EB01125346A0EBEC
:108C60008202CAEB0A1A5E460BEB4B0BA1EB8A0A97
:108C7000A3EBCB0B40F2B27740F26D1006920DE001
:108C8000BCEBB30F5DD3864AB2EB331F2CBF4FF45E
:108C9000B77303469E420AD3F61A013717F0030151
:108CA0000EFB07F3ECD040F26D139E42F4D27D48E8
:108CB000069AA0FB073043094FF0640EC0094FF439
:108CC000C87C0EFB13730CFB107000294BD01E2EBA
:108CD00040F2BF80A6F11F031B2B40F2B480A6F127
:108CE0003B031E2B40F2B280A6F15A031D2B40F22B
:108CF000B280A6F178031E2B40F2B080A6F1970354
:108D00001D2B40F29A80A6F1B5031E2B40F2A980DC
:108D1000A6F1D4031E2B40F2A780A6F1F3031D2B6E
:108D200040F2A5806FF4887033181E2B40F2A280A9
:108D3000A6F598731D2B40F28380A6F5A7760B232A
:108D400044E04FF4B773A5E74FF496712046984777
:108D500052E70846984711E720461A461221A847CD
:108D60000FB0BDE8F08F00285ED0002B61D01E2E22
:108D70006FD9A6F11F031C2B65D9A6F13C031E2B4E
:108D800064D9A6F15B031D2B65D9A6F179031E2BCF
:108D900064D9A6F198031D2B4FD9A6F1B6031E2B5B
:108DA0005FD9A6F1D5031E2B5ED9A6F1F4031D2BC6
:108DB0005DD9A6F589731E2B5CD96FF49871731871
:108DC0001D2B3DD96FF4A7731E440B23CDE9062359
:108DD00024F046FB2E49069A0392A1FB0031890933
:108DE000079B4FF47A7202FB110001363A462E4976
:108DF000009601330490CDE901BA2C4824F0CAF85A
:108E000024F02EFB0346A3EB0803012026790693EA
:108E100027F028FC069B26490095CDE901604A46CB
:108E2000224824F0B7F8E7E6002BA0D11E2EA0D8E8
:108E3000CCE71E2E3FF64EAFC8E71E460523C5E71A
:108E40001E460A23C2E71E460123BFE71E46022331
:108E5000BCE70023BAE71E460323B7E71E460423F8
:108E6000B4E71E460623B1E71E460723AEE71E46BB
:108E70000823ABE71E460923A8E700BFB57302002D
:108E8000606C00201992020000AF05008D73020093
:108E9000D34D62108736006A89888888ABAAAAAA4F
:108EA0000AD7A3001F85EB514C9705003C83002097
:108EB000BC980500295C8FC2285C8F022DE9F04F19
:108EC0000B68C54A5B6893428FB00C4640F0EF8058
:108ED000C24813F03BFD322024F0CEFA2368C04A8A
:108EE0009B68934240F0DF800025257124F0B8FA9A
:108EF000BC4EBA4F8046A94646F0010602E04FF448
:108F0000FA30B04724F0ACFAA0EB0803C72B384680
:108F10001ED813F065FD0346384673B113F0CCFD3F
:108F200009F1010348B1002D08BF054619285FFA71
:108F300083F920710CD012280AD0012027F092FB6F
:108F40000128DCD124F08CFAA0EB08001428D6D933
:108F5000B9F1000F15D12268A34BD5689D424FF09F
:108F6000000340F0A78009A919200993CDE90C332B
:108F70000B938DF826300A9314F002F90FB0BDE878
:108F8000F08F24F06DFA9949994A9A4B9A4EDFF87E
:108F900080E2DFF880C2A1FB001002EB9010A3FB7F
:108FA00000125209A3FB023A4FEA5A1A1146A6FBD5
:108FB0000A2B4FEA1B1BC1EB01125346A0EB8202A6
:108FC000CAEB0A1A5E460BEB4B0BA1EB8A0AA3EB2A
:108FD000CB0B40F2B27740F26D1006920DE0BCEB85
:108FE000B30F5DD3854AB2EB331F2CBF4FF4B77379
:108FF00003469E420AD3F61A013717F003010EFB0F
:1090000007F3ECD040F26D139E42F4D27C48069AEE
:10901000A0FB073043094FF0640EC0094FF4C87C31
:109020000EFB13730CFB107000294AD01E2E40F269
:10903000BE80A6F11F031B2B40F2B380A6F13B03B9
:109040001E2B40F2B180A6F15A031D2B40F2B180D5
:10905000A6F178031E2B40F2AF80A6F197031D2BDB
:1090600040F29980A6F1B5031E2B40F2A880A6F12C
:10907000D4031E2B40F2A680A6F1F3031D2B40F271
:10908000A4806FF4887033181E2B40F2A180A6F5DF
:1090900098731D2B40F28280A6F5A7760B2343E040
:1090A0004FF4B773A5E7C8212046984753E7084611
:1090B000984713E720461A461921A8470FB0BDE884
:1090C000F08F00285ED0002B61D01E2E6FD9A6F144
:1090D0001F031C2B65D9A6F13C031E2B64D9A6F1F6
:1090E0005B031D2B65D9A6F179031E2B64D9A6F16C
:1090F00098031D2B4FD9A6F1B6031E2B5FD9A6F1FD
:10910000D5031E2B5ED9A6F1F4031D2B5DD9A6F560
:1091100089731E2B5CD96FF4987173181D2B3DD980
:109120006FF4A7731E440B23CDE9062324F098F9AE
:109130002E49069A0392A1FB00318909079B4FF43F
:109140007A7202FB110001363A462E49009601332D
:109150000490CDE901BA2C4823F01CFF24F080F9DB
:109160000346A3EB080301202679069327F07AFA39
:10917000069B26490095CDE901604A46224823F026
:1091800009FFE8E6002BA0D11E2EA0D8CCE71E2EAA
:109190003FF64FAFC8E71E460523C5E71E460A2324
:1091A000C2E71E460123BFE71E460223BCE7002399
:1091B000BAE71E460323B7E71E460423B4E71E465C
:1091C0000623B1E71E460723AEE71E460823ABE79A
:1091D0001E460923A8E700BFB5730200606C00209B
:1091E0001992020000AF05008D730200D34D62108A
:1091F0008736006A89888888ABAAAAAA0AD7A300FA
:109200001F85EB514C9705003C830020BC9805005E
:10921000295C8FC2285C8F022DE9F04F002589B0B0
:1092200005718146884624F01BF9AB4BAB4F0446D1
:109230002E4643F0010A02E04FF4FA30D04724F002
:109240000FF9031B434538461CD213F0C9FB0346F4
:1092500038466BB113F030FC731C48B1002D08BFC9
:1092600005461928DEB289F804000BD0122809D06F
:10927000012027F0F7F90128DED124F0F1F8001BD6
:109280001428D9D916B909B0BDE8F08F24F0E8F850
:10929000934A944FDFF868A2DFF86882924B9349B3
:1092A000DFF864E2A2FB000207EB921CAAFB0C02AF
:1092B00052091746AAFB072A4FEA5A1AA8FB0A289E
:1092C0004FEA181BC7EB07125046ACEB8202CAEB01
:1092D0000A1AD8460BEB4B0B0692A7EB8A0AA0EBB7
:1092E000CB0B40F2B27740F26D120EE0B1EBB00F53
:1092F000C0F09080BEEB301F2CBF4FF4B77010460B
:1093000080450BD3A8EB0008013717F0030C03FBD3
:1093100007F0EBD040F26D108045F3D27449A1FB09
:1093200007314B094FF0640EC9094FF4C8700EFBAA
:10933000137300FB1171BCF1000F6ED0B8F11E0F5A
:1093400040F2B080A8F11F031B2B40F2A880A8F1C7
:109350003B031E2B40F2A880A8F15A031D2B40F2BC
:10936000A680A8F178031E2B40F2A480A8F19703F1
:109370001D2B40F2A280A8F1B5031E2B40F2A08065
:10938000A8F1D4031E2B40F28780A8F1F3031D2B14
:1093900040F299806FF4887108EB01031E2B40F2B4
:1093A0009580A8F598731D2B40F29380A8F5A778B7
:1093B0000B23079324F054F84949069B0393A1FB20
:1093C000003C4FEA9C1C079B4FF47A7101FB1C0187
:1093D00008F10102009201333A460491CDE901BA45
:1093E0004449454823F0D6FD24F03AF803461B1BB8
:1093F000012099F80440069327F034F9069B029067
:109400003E490194009532463B4823F0C3FD09B024
:10941000BDE8F08F4FF4B77072E791B3BBB3B8F10A
:109420001E0F3FD9A8F11F031C2B38D9A8F13C030C
:109430001E2B39D9A8F15B031D2B38D9A8F179036C
:109440001E2B37D9A8F198031D2B36D9A8F1B603E6
:109450001E2B35D9A8F1D5031E2B1DD9A8F1F40375
:109460001D2B30D9A8F589731E2B2FD96FF4987254
:1094700008EB02031D2B2CD96FF4A77398440B2320
:1094800097E7002BCBD1B8F11E0FCBD891E7B8F1FD
:109490001E0F3FF657AF8CE79846072389E798469B
:1094A000012386E7002384E79846022381E7984654
:1094B00003237EE7984604237BE79846052378E755
:1094C0009846062375E79846082372E798460923CD
:1094D0006FE798460A236CE700AF0500606C002038
:1094E000D34D62108736006A295C8FC2285C8F02D8
:1094F0001F85EB514C9705003C830020BC9805006C
:1095000089888888ABAAAAAA0AD7A300042B00D00E
:1095100070472DE9F047D2F8008040F29E73A8F121
:1095200032029A4286B000F2B380D54FD54EC7F8CA
:10953000008023F095FFD449D44BD54CD54ADFF8B1
:1095400070C3DFF870E3A1FB001003EB9010A6FBE3
:1095500000394FEA5919A6FB09367609A4FB0648DB
:109560004FEA181849463346C9EB0919C6EB0616E7
:10957000454608EB4808A0EB8909A1EB8606A3EB5A
:10958000C80840F2B27440F26D100DE0BCEBB30FAE
:10959000C0F03181BEEB331F2CBF4FF4B7730346CD
:1095A0009D420AD3ED1A013414F0030102FB04F3C7
:1095B000ECD040F26D139D42F4D2B74AA2FB0432C4
:1095C0004FEA521A6420D2094FF4C87300FB1A4ABA
:1095D00003FB1242002900F06F811E2D40F2BB8177
:1095E000A5F11F031B2B40F2BF81A5F13B031E2BEE
:1095F00040F2C281A5F15A031D2B40F2C581A5F1AD
:1096000078031E2B40F2CC81A5F197031D2B40F26D
:10961000CF81A5F1B5031E2B40F29381A5F1D403B0
:109620001E2B40F2C981A5F1F3031D2B40F2CC8122
:109630006FF4887E05EB0E031E2B40F2CD81A5F55D
:1096400098731D2B40F2D081A5F5A7754FF00B0A3A
:1096500023F006FF8C4B9149CDF80C90A3FB00231F
:109660009B094FF47A7202FB1300013522460490E5
:10967000CDE9018600950AF10103894823F08AFCAF
:109680003A688849864806B0BDE8F04723F082BCB6
:1096900023F0E6FE7C497D4B7A4E7D4F7D4ADFF814
:1096A00010C2DFF810E2A1FB001003EB9010A6FB44
:1096B00000394FEA5919A6FB09367609A7FB064778
:1096C0003F0949463346C9EB0919C6EB06163D4624
:1096D00007EB4707A0EB8909A1EB8606A3EBC707B9
:1096E00040F2B27440F26D100CE0BCEBB30F7FD3CC
:1096F000BEEB331F2CBF4FF4B77303469D420AD312
:10970000ED1A013414F0030102FB04F3EDD040F232
:109710006D139D42F4D2604AA2FB04324FEA521A02
:109720006420D2094FF4C87300FB1A4A03FB1242AB
:10973000002963D01E2D40F21481A5F11F031B2BBD
:1097400040F21681A5F13B031E2B40F21981A5F1D1
:109750005A031D2B40F21C81A5F178031E2B40F209
:109760001B81A5F197031D2B40F21E81A5F1B503C6
:109770001E2B40F2EA80A5F1D4031E2B40F220817B
:10978000A5F1F3031D2B40F223816FF488716B1850
:109790001E2B40F22581A5F598731D2B40F22881E0
:1097A000A5F5A7754FF00B0A23F05AFE364B3B493F
:1097B000CDF80C90A3FB00239B094FF47A7202FBB7
:1097C0001300013522460AF101030490CDE9017628
:1097D0000095334823F0DEFB3349314823F02CFB5E
:1097E00032492F48424606B0BDE8F04723F0D2BBCD
:1097F0004FF4B77382E74FF4B773D1E6002A40F015
:109800009980BAF1000F40F0A9801E2DCCD9A5F1A6
:109810001F031C2B40F2AC80A5F13C031E2B40F231
:10982000AF80A5F15B031D2B40F2B280A5F1790357
:109830001E2B40F2B180A5F198031D2B40F2B4809D
:10984000A5F1B6031E2B40F28080A5F1D5031E2B97
:1098500040F2B680A5F1F4031D2B40F2B980A5F5C6
:1098600089731E2B40F2BC806FF49872AB181D2BCD
:1098700040F2BE806FF4A7731D444FF00B0A93E7CC
:109880002060002089888888D34D62108736006A5E
:10989000ABAAAAAA295C8FC21F85EB514C97050081
:1098A0003C830020FC9805002499050028990500B8
:1098B000285C8F020AD7A300AABBBAF1000F48D1D7
:1098C0001E2D7FF6C5AEA5F11F031C2B4CD9A5F1AB
:1098D0003C031E2B50D9A5F15B031D2B54D9A5F1D8
:1098E00079031E2B5CD9A5F198031D2B60D9A5F136
:1098F000B6031E2B25D9A5F1D5031E2B5CD9A5F1E6
:10990000F4031D2B60D9A5F589731E2B64D96FF460
:10991000987C05EB0C031D2B66D96FF4A7700544EA
:109920004FF00B0A94E6BAF1000F12D11E2D3FF64C
:1099300057AE8DE6BAF1000F10D11E2D3FF6FDAEE9
:1099400032E71D464FF0060A82E61D464FF0060A32
:109950002AE71E2DB7D84FF0000A79E61E2D3FF6F4
:1099600056AF4FF0000A1FE71D464FF0010A6FE6A1
:109970001D464FF0010A17E71D464FF0020A67E641
:109980001D464FF0020A0FE71D464FF0030A5FE63F
:109990001D464FF0030A07E71D464FF0040A03E790
:1099A0001D464FF0040A53E61D464FF0050AFBE63C
:1099B0001D464FF0050A4BE61D464FF0070A47E6E5
:1099C0001D464FF0070AEFE61D464FF0080A3FE636
:1099D0001D464FF0080AE7E61D464FF0090A37E634
:1099E0001D464FF0090ADFE61D464FF00A0A2FE632
:1099F0001D464FF00A0AD7E6DC4B1B7803B97047C7
:109A00002DE9F04786B023F02BFDD94B1E6842F2BA
:109A10000F73861B9E4240F2F68023F021FDD5494C
:109A2000D54BD64FD64CDFF874C3D64ADFF874E373
:109A3000A1FB001003EB9010A7FB00394FEA591966
:109A4000A7FB09377F09A4FB07484FEA18184946C6
:109A50003B46C9EB0919C7EB0717444608EB480812
:109A6000A0EB8909A1EB8707A3EBC80840F2B27508
:109A700040F26D100CE0B2EBB30F7ED3BEEB331FA0
:109A80002CBF4FF4B77303469C420AD3E41A013546
:109A900015F003010CFB05F3EDD040F26D139C4271
:109AA000F4D2B94AA2FB05324FEA521A6420D20915
:109AB0004FF4C87300FB1A5A03FB125200295FD0FF
:109AC0001E2C40F2CF81A4F11F031B2B40F2C28158
:109AD000A4F13B031E2B40F2C181A4F15A031D2BBC
:109AE00040F2C381A4F178031E2B40F2C281A4F19D
:109AF00097031D2B40F2C181A4F1B5031E2B40F248
:109B0000C081A4F1D4031E2B40F29781A4F1F3038A
:109B10001D2B40F2C2816FF4887163181E2B40F236
:109B2000C481A4F598731D2B40F2C781A4F5A774D6
:109B30004FF00B0A23F094FC8E4B9449CDF80C9017
:109B4000A3FB00239B094FF47A7202FB130001343C
:109B50000AF101032A460490CDE9018700948C485C
:109B600023F018FA32468B49894823F013FA8A4BBE
:109B700001221A7006B0BDE8F0874FF4B77383E78F
:109B8000002A00F04781BAF1000F00F052811E2C2C
:109B900040F26881A4F11F031C2B40F25B81A4F109
:109BA0003C031E2B40F25A81A4F15B031D2B40F2B3
:109BB0005C81A4F179031E2B40F25B81A4F1980330
:109BC0001D2B40F25A81A4F1B6031E2B40F259819D
:109BD000A4F1D5031E2B40F23081A4F1F4031D2B18
:109BE00040F25B81A4F589731E2B40F25E816FF415
:109BF0009872A3181D2B40F260816FF4A7731C4468
:109C00004FF00B0A96E723F02BFC5A495A4B5B4F57
:109C10005B4C624ADFF86CC1DFF888E1A1FB001001
:109C200003EB9010A7FB00394FEA5919A7FB09373E
:109C30007F09A4FB07484FEA181849463B46C9EB81
:109C40000919C7EB0717454608EB4808A0EB890937
:109C5000A1EB8707A3EBC80840F2B27440F26D1085
:109C60000CE0BCEBB30F7ED3BEEB331F2CBF4FF425
:109C7000B77303469D420AD3ED1A013414F0030171
:109C800002FB04F3EDD040F26D139D42F4D23E4A44
:109C9000A2FB04324FEA521A6420D2094FF4C8736F
:109CA00000FB1A4A03FB124200297DD01E2D40F210
:109CB000CE80A5F11F031B2B40F2E780A5F13B03EB
:109CC0001E2B40F2E680A5F15A031D2B40F2E980DD
:109CD000A5F178031E2B40F2EC80A5F197031D2B14
:109CE00040F2EF80A5F1B5031E2B40F2AA80A5F14A
:109CF000D4031E2B40F2E980A5F1F3031D2B40F2A3
:109D0000E8806FF4887E05EB0E031E2B40F2E580A1
:109D1000A5F598731D2B40F2E480A5F5A7754FF0CB
:109D20000B0A23F09DFB134B1849CDF80C90A3FBB5
:109D300000239B094FF47A7202FB130001350AF1EC
:109D4000010322460490CDE901870095104823F0D5
:109D500021F913490E48324642F2107306B0BDE8AD
:109D6000F04723F017B94FF4B77383E7E86E00208C
:109D7000E46E0020D34D62108736006A8988888897
:109D8000ABAAAAAA285C8F021F85EB514C9705004D
:109D90003C830020A4990500FC630020295C8FC24D
:109DA000649905000AD7A300E2BBBAF1000F4CD1B9
:109DB0001E2DB6D9A5F11F031C2B66D9A5F13C03B6
:109DC0001E2B66D9A5F15B031D2B6AD9A5F179037A
:109DD0001E2B6ED9A5F198031D2B72D9A5F1B603E0
:109DE0001E2B2ED9A5F1D5031E2B6ED9A5F1F40398
:109DF0001D2B6ED9A5F589731E2B6ED96FF4987C37
:109E000005EB0C031D2B6CD96FF4A77005444FF0C4
:109E10000B0A86E7BAF1000F7FF4B9AE1E2C3FF6AD
:109E2000B9AE87E6BAF1000F0FD11E2D3FF641AF54
:109E300077E71E2C3FF647AE7CE61C464FF0070A3C
:109E400078E61D464FF0060A6BE71E2DB2D84FF09C
:109E5000000A66E71C464FF0010A6BE61C464FF00D
:109E6000020A67E64FF0000A64E61C464FF0030A58
:109E700060E61C464FF0040A5CE61C464FF0050AFB
:109E800058E61C464FF0060A54E61D464FF0010AFC
:109E900047E71D464FF0020A43E71C464FF0080A09
:109EA00048E61D464FF0030A3BE71C464FF0090AFF
:109EB00040E61D464FF0040A33E71C464FF00A0AFD
:109EC00038E61D464FF0050A2BE71D464FF0070AFE
:109ED00027E71D464FF0080A23E71D464FF0090A01
:109EE0001FE71D464FF00A0A1BE700BF2DE9F04FA0
:109EF0000B68C84A5B69934289B00C4640F02981DF
:109F0000012026F0AFFBB0FA80F04009002855D0C0
:109F10002368C14A5B68934240F01E81BF4812F03B
:109F200015FD322023F0A8FA2368BD4A9B689342AE
:109F300040F01A810026267123F092FAB94DB74FEE
:109F40008046B14645F0010502E04FF4FA30A847DB
:109F500023F086FAA0EB0803B3F5967F38461ED2AD
:109F600012F03EFD0346384673B112F0A5FD09F12B
:109F7000010348B1002E08BF064619285FFA83F98D
:109F800020710CD012280AD0012026F06BFB01288A
:109F9000DBD123F065FAA0EB08001428D5D9B9F17C
:109FA000000F0ED12368A04A1B69934240F0CB807A
:109FB0002079A0F11200B0FA80F0400909B0BDE8A4
:109FC000F08F23F04DFA994D994ADFF884A2994F0A
:109FD000994B9A49DFF87CE2A5FB005002EB901CFC
:109FE000AAFB0C0252091546AAFB052A4FEA5A1A87
:109FF000A7FB0A2B4FEA1B1BC5EB05125046ACEB27
:10A000008202CAEB0A1A5F460BEB4B0B0692A5EBDA
:10A010008A0AA0EBCB0B40F2B27540F26D120DE054
:10A02000B1EBB00FC0F09280BEEB301F2CBF4FF4ED
:10A03000B770104687420AD33F1A013515F0030C5A
:10A0400003FB05F0ECD040F26D108742F4D27C495E
:10A05000A1FB05314B094FF0640EC9094FF4C870DC
:10A060000EFB135300FB1151BCF1000F00F0818077
:10A070001E2F40F2BA80A7F11F031B2B40F2B780BE
:10A08000A7F13B031E2B40F2B580A7F15A031D2B0D
:10A0900040F2B380A7F178031E2B40F2B180A7F104
:10A0A00097031D2B40F2AF80A7F1B5031E2B40F2A2
:10A0B0009780A7F1D4031E2B40F2A880A7F1F303E9
:10A0C0001D2B40F2C9806FF488717B181E2B40F263
:10A0D000C680A7F598731D2B40F2C480A7F5A7771B
:10A0E0000B23079323F0BCF95049069B0393A1FB74
:10A0F00000318909079B4FF47A7202FB1100013786
:10A100002A46504904900133CDE901BA4E480097E0
:10A1100022F040FF23F0A4F90346A3EB080301203B
:10A120002579069326F09EFA069B48490096CDE9CC
:10A1300001504A46444822F02DFF23683A4A1B69E1
:10A1400093423FF435AF2046984732E74FF4B7705B
:10A1500070E708469847D9E6204698472368304A72
:10A160009B6893423FF4E6AE4FF4967120469847C1
:10A1700018E781BBBBBB1E2FB3D9A7F11F031C2B54
:10A1800035D9A7F13C031E2B34D9A7F15B031D2B56
:10A1900033D9A7F179031E2B32D9A7F198031D2BD0
:10A1A00031D9A7F1B6031E2B1AD9A7F1D5031E2B5F
:10A1B0002CD9A7F1F4031D2B4ED9A7F589731E2BBB
:10A1C0004DD96FF49872BB181D2B4BD96FF4A77340
:10A1D0001F440B2385E733B91E2F3FF64CAF80E7B2
:10A1E0001F4606237DE71E2FC7D8002379E71F46A9
:10A1F000012376E71F46022373E71F46032370E718
:10A200001F4604236DE71F4605236AE71F46072301
:10A2100067E700BF3D730200B5730200606C002069
:10A220001992020000AF050021730200D34D6210A5
:10A230008736006AABAAAAAA295C8FC2285C8F0263
:10A240001F85EB514C9705003C830020BC9805000E
:10A25000898888880AD7A3001F46082341E71F463C
:10A2600009233EE71F460A233BE700BF2DE9F04FD5
:10A270000B68C64A5B69934289B00C4640F027815F
:10A28000012026F0EFF9B0FA80F04009002854D000
:10A290002368BF4A5B68934240F01C81BD4812F0BE
:10A2A00055FB322023F0E8F82368BB4A9B689342B1
:10A2B00040F018810026267123F0D2F8B74DB54F33
:10A2C0008046B14645F0010502E04FF4FA30A84758
:10A2D00023F0C6F8A0EB0803C72B38461ED812F0AF
:10A2E0007FFB0346384673B112F0E6FB09F1010328
:10A2F00048B1002E08BF064619285FFA83F920717D
:10A300000CD012280AD0012026F0ACF90128DCD1AB
:10A3100023F0A6F8A0EB08001428D6D9B9F1000F55
:10A320000ED123689E4A1B69934240F0CA8020796F
:10A33000A0F11900B0FA80F0400909B0BDE8F08F33
:10A3400023F08EF8974D984ADFF87CA2974F984BF0
:10A350009849DFF878E2A5FB005002EB901CAAFBBD
:10A360000C0252091546AAFB052A4FEA5A1AA7FB06
:10A370000A2B4FEA1B1BC5EB05125046ACEB8202C1
:10A38000CAEB0A1A5F460BEB4B0B0692A5EB8A0A47
:10A39000A0EBCB0B40F2B27540F26D120DE0B1EBC9
:10A3A000B00FC0F09180BEEB301F2CBF4FF4B770E0
:10A3B000104687420AD33F1A013515F0030C03FB00
:10A3C00005F0ECD040F26D108742F4D27A49A1FB3F
:10A3D00005314B094FF0640EC9094FF4C8700EFBEC
:10A3E000135300FB1151BCF1000F7FD01E2F40F220
:10A3F000B980A7F11F031B2B40F2B680A7F13B03E6
:10A400001E2B40F2B480A7F15A031D2B40F2B280FC
:10A41000A7F178031E2B40F2B080A7F197031D2B04
:10A4200040F2AE80A7F1B5031E2B40F29680A7F153
:10A43000D4031E2B40F2A780A7F1F3031D2B40F29B
:10A44000C7806FF488717B181E2B40F2C480A7F57B
:10A4500098731D2B40F2C280A7F5A7770B230793B3
:10A4600022F0FEFF4F49069B0393A1FB00318909AF
:10A47000079B4FF47A7202FB110001372A464F49BD
:10A4800004900133CDE901BA4D48009722F082FDD6
:10A4900022F0E6FF0346A3EB08030120257906938B
:10A4A00026F0E0F8069B47490096CDE901504A4660
:10A4B000434822F06FFD2368394A1B6993423FF4F9
:10A4C00036AF2046984733E74FF4B77071E7084638
:10A4D0009847DBE62046984723682F4A9B689342BB
:10A4E0003FF4E8AEC821204698471AE781BBBBBBC2
:10A4F0001E2FB4D9A7F11F031C2B35D9A7F13C039C
:10A500001E2B34D9A7F15B031D2B33D9A7F1790397
:10A510001E2B32D9A7F198031D2B31D9A7F1B60311
:10A520001E2B1AD9A7F1D5031E2B2CD9A7F1F403A2
:10A530001D2B4DD9A7F589731E2B4CD96FF498723A
:10A54000BB181D2B4AD96FF4A7731F440B2386E752
:10A5500033B91E2F3FF64DAF81E71F4606237EE736
:10A560001E2FC7D800237AE71F46012377E71F462F
:10A57000022374E71F46032371E71F4604236EE797
:10A580001F4605236BE71F46072368E73D7302005C
:10A59000B5730200606C00201992020000AF050044
:10A5A00021730200D34D62108736006AABAAAAAAB3
:10A5B000295C8FC2285C8F021F85EB514C970500E8
:10A5C0003C830020BC980500898888880AD7A300AE
:10A5D0001F46082343E71F46092340E71F460A2377
:10A5E0003DE700BF2DE9F04F2DED028B022B89B026
:10A5F00040F09B81B2F800804FEA1829A9F10A03C4
:10A600005A2B5FFA88F800F2D780A8F10A035A2B78
:10A6100000F2D28007EE108A07EE909AF8EEC78A11
:10A62000B8EEE78ADFEDD97AD94BDA4EDA4F28EE69
:10A63000278A68EEA78A83EDDE8AC3EDDF8A22F0DF
:10A640000FFFD649D64BD74ADFF878C3DFF868E367
:10A65000A1FB001003EB9010A6FB00384FEA58183E
:10A66000A6FB08367609A7FB06473F094146334655
:10A67000C8EB0818C6EB06163D4607EB4707A0EBEC
:10A680008808A1EB8606A3EBC70740F2B27440F23C
:10A690006D100DE0BCEBB30FC0F0AE82BEEB331F0C
:10A6A0002CBF4FF4B77303469D420AD3ED1A013411
:10A6B00014F0030102FB04F3ECD040F26D139D4251
:10A6C000F4D2B94AA2FB04324FEA52196420D209EB
:10A6D0004FF4C87300FB194903FB1242002900F034
:10A6E00094821E2D40F2FA82A5F11F031B2B40F22B
:10A6F0002F83A5F13B031E2B40F22E83A5F15A03B5
:10A700001D2B40F23183A5F178031E2B40F24083CC
:10A71000A5F197031D2B40F24383A5F1B5031E2B32
:10A7200040F2CE82A5F1D4031E2B40F23D83A5F169
:10A73000F3031D2B40F23C836FF488716B181E2BC2
:10A7400040F23A83A5F598731D2B40F23983A5F5A5
:10A75000A7754FF00B0922F083FE904A9349CDF87C
:10A760000C80A2FB003292094FF47A7303FB1200B3
:10A77000013509F1010322460490CDE901760095E7
:10A780008B4822F007FC18EE100A2BF015FA02464F
:10A790000B4618EE900ACDE906232BF00DFADDE901
:10A7A0000623CDE900018349814822F0F3FB09B07B
:10A7B000BDEC028BBDE8F08F22F052FE7749784B5A
:10A7C000744E754FDFF8DCE1DFF8F8C17A4AA1FB7F
:10A7D000001003EB9010A6FB003A4FEA5A1AA6FBB2
:10A7E0000A367609A7FB06473F0951463346CAEBAE
:10A7F0000A1AC6EB06163C4607EB4707A0EB8A0A87
:10A80000A1EB8606A3EBC70740F2B27540F26D10CC
:10A810000DE0BCEBB30FC0F08580B2EB331F2CBF53
:10A820004FF4B77303469C420AD3E41A013515F07E
:10A8300003010EFB05F3ECD040F26D139C42F4D201
:10A84000594AA2FB05324FEA521B6420D2094FF449
:10A85000C87300FB1B5B03FB1252002900F03E8112
:10A860001E2C40F2CF81A4F11F031B2B40F22C823F
:10A87000A4F13B031E2B40F22B82A4F15A031D2BA3
:10A8800040F21682A4F178031E2B40F22A82A4F132
:10A8900097031D2B40F22D82A4F1B5031E2B40F22D
:10A8A0003382A4F1D4031E2B40F23682A4F1F303C9
:10A8B0001D2B40F239826FF4887E04EB0E031E2BB1
:10A8C00040F23A82A4F598731D2B40F23D82A4F524
:10A8D000A7744FF00B0B22F0C3FD304B3349CDF87A
:10A8E0000CA0A3FB00239B094FF47A7202FB130018
:10A8F00001340BF101032A460490CDE9017600945E
:10A900002B4822F047FB2D49294822F095FA2C4983
:10A91000274843464A4609B0BDEC028BBDE8F04FDC
:10A9200022F038BB4FF4B7737DE71E4622F098FD46
:10A930001A4A1B4B174F1849DFF868E0DFF884C04C
:10A94000DFF874A0A2FB002003EB9010A7FB0039F6
:10A950004FEA5919A7FB09377F09A1FB07184FEAEE
:10A9600018184A463B46C9EB0919C7EB0717444676
:10A9700008EB4808A0EB8909A2EB8707A3EBC808FE
:10A9800040F2B27540F26D102CE000BF0AD7233CB4
:10A99000B868002089888888ABAAAAAAD34D62101B
:10A9A0008736006A295C8FC21F85EB514C970500E2
:10A9B0003C830020649A05000AD7A300249905006F
:10A9C000109A0500285C8F02BCEBB30FC0F08380A7
:10A9D000BAEB331F2CBF4FF4B772024694420AD32E
:10A9E000A41A013515F003010EFB05F3ECD040F27B
:10A9F0006D129442F4D2E04AA2FB05324FEA521A99
:10AA00006420D2094FF4C87300FB1A5A03FB125298
:10AA1000002900F0A7801E2C40F27381A4F11F03CF
:10AA20001B2B40F26281A4F13B031E2B40F2658197
:10AA3000A4F15A031D2B40F26B81A4F178031E2B65
:10AA400040F26E81A4F197031D2B40F27181A4F1B5
:10AA5000B5031E2B40F27481A4F1D4031E2B40F2E7
:10AA60002B81A4F1F3031D2B40F27A816FF48873DC
:10AA7000E3181E2B40F27C81A4F598731D2B40F245
:10AA80008B81A4F5A7744FF00B0A22F0E9FCBB4BB5
:10AA9000BB49CDF80C90A3FB00239B094FF47A72BD
:10AAA00002FB130001342A460AF101030490CDE9A8
:10AAB00001870094B34822F06DFAB349B14822F0FF
:10AAC000BBF9B249AF48324609B0BDEC028BBDE8D4
:10AAD000F04F22F05FBA4FF4B7727FE7002A40F0E0
:10AAE0008480BBF1000F40F08A801E2C7FF6F3AE0D
:10AAF000A4F11F031C2B40F2E780A4F13C031E2BA2
:10AB000040F2E680A4F15B031D2B40F2D180A4F15A
:10AB100079031E2B40F2E580A4F198031D2B40F22F
:10AB2000E880A4F1B6031E2B40F2EE80A4F1D50319
:10AB30001E2B40F2F180A4F1F4031D2B40F2F480AF
:10AB4000A4F589731E2B40F2F7806FF4987C04EB18
:10AB50000C031D2B40F2F8806FF4A77004444FF0F3
:10AB60000B0BB8E6002A00F09080BAF1000F00F05D
:10AB70009B801E2C40F2C580A4F11F031C2B40F2C9
:10AB8000B480A4F13C031E2B40F2B780A4F15B0318
:10AB90001D2B40F2BD80A4F179031E2B40F2C08032
:10ABA000A4F198031D2B40F2C380A4F1B6031E2B21
:10ABB00040F2C680A4F1D5031E2B7DD9A4F1F40385
:10ABC0001D2B40F2CD80A4F589731E2B40F2D0805E
:10ABD0006FF4987B04EB0B031D2B40F2DD806FF4C8
:10ABE000A77A54444FF00B0A4FE7BBF1000F06D190
:10ABF0001E2C3FF638AE6EE64FF4B77354E51E2CAC
:10AC00003FF676AF4FF0000B65E6002A45D1B9F16B
:10AC1000000F61D11E2D7FF69EADA5F11F031C2BE9
:10AC200040F29680A5F13C031E2B40F29580A5F1E1
:10AC30005B031D2B40F29880A5F179031E2B40F297
:10AC4000A780A5F198031D2B40F2AA80A5F1B603B9
:10AC50001E2B35D9A5F1D5031E2B40F2A580A5F1F9
:10AC6000F4031D2B40F2A480A5F589731E2B40F23E
:10AC7000A3806FF49872AB181D2B40F2A1806FF483
:10AC8000A7731D444FF00B0965E5BAF1000F7FF47F
:10AC900070AF1E2C3FF670AFF7E6B9F1000F1BD175
:10ACA0001E2D3FF621AD56E51E2C3FF6B7AEECE665
:10ACB0001C464FF0030B0EE61C464FF0070AE4E675
:10ACC0001D464FF0060946E51C464FF0010B02E613
:10ACD0001C464FF0020BFEE51E2D9ED84FF00009DA
:10ACE00039E51C464FF0040BF5E51C464FF0010A10
:10ACF000CBE61C464FF0050BEDE51C464FF0020A73
:10AD0000C3E64FF0000AC0E61C464FF0060BE2E532
:10AD10001C464FF0030AB8E61C464FF0070BDAE575
:10AD20001C464FF0040AB0E61C464FF0080BD2E573
:10AD30001C464FF0050AA8E61C464FF0090BCAE571
:10AD40001C464FF0060AA0E61C464FF00A0BC2E56F
:10AD50001D464FF00109FEE41D464FF00209FAE4DA
:10AD60001C464FF0080A90E61D464FF00309F2E436
:10AD70001C464FF0090A88E61F85EB51D34D62103F
:10AD80004C9705003C83002024990500E0990500BC
:10AD90001D464FF00409DEE41C464FF00A0A74E633
:10ADA0001D464FF00509D6E41D464FF00709D2E4D1
:10ADB0001D464FF00809CEE41D464FF00909CAE4CC
:10ADC0001D464FF00A09C6E4012B00D070471378E6
:10ADD000022BFBD82DE9F047DFF85C828D4E88F816
:10ADE000003086B022F03CFB8B4A8C4B8C4F8D4957
:10ADF000DFF848C2DFF848E2A2FB002003EB901026
:10AE0000A6FB00394FEA5919A6FB09367609A7FBBC
:10AE100006473F094A463346C9EB0919C6EB0616F1
:10AE20003D4607EB4707A0EB8909A2EB8606A3EB9B
:10AE3000C70740F2B27440F26D100CE0BCEBB30FE8
:10AE40007CD3BEEB331F2CBF4FF4B77303469D4238
:10AE50000AD3ED1A013414F0030201FB04F3EDD020
:10AE600040F26D139D42F4D26F49A1FB04314FEAC9
:10AE7000511A6420C9094FF4C87300FB1A4A03FB36
:10AE80001141002A5DD01E2D40F29980A5F11F03CB
:10AE90001B2B40F29B80A5F13B031E2B40F29280BE
:10AEA000A5F15A031D2B40F29580A5F178031E2BC6
:10AEB00040F29480A5F197031D2B40F29380A5F1F9
:10AEC000B5031E2B40F29280A5F1D4031E2B40F255
:10AED0009180A5F1F3031D2B40F290806FF48871EF
:10AEE0006B181E2B40F28E80A5F598731D2B40F237
:10AEF0008D80A5F5A7754FF00B0A22F0B1FA464BED
:10AF00004A49CDF80C90A3FB00239B094FF47A72B9
:10AF100002FB1300013522460490CDE9017600952D
:10AF20000AF10103424822F035F898F8002041491F
:10AF30003F4806B0BDE8F04722F02CB84FF4B77395
:10AF400085E799BBBAF1000F37D11E2DD5D9A5F1F0
:10AF50001F031C2B3AD9A5F13C031E2B32D9A5F1B6
:10AF60005B031D2B36D9A5F179031E2B36D9A5F12C
:10AF700098031D2B36D9A5F1B6031E2B36D9A5F1A2
:10AF8000D5031E2B36D9A5F1F4031D2B36D9A5F513
:10AF900089731E2B36D96FF49872AB181D2B35D9D7
:10AFA0006FF4A7731D444FF00B0AA6E7BAF1000F28
:10AFB00003D11E2D3FF66AAF9FE71E2DC7D84FF075
:10AFC000000A9AE71D464FF0020A96E71D464FF029
:10AFD000010A92E71D464FF0030A8EE71D464FF027
:10AFE000040A8AE71D464FF0050A86E71D464FF022
:10AFF000060A82E71D464FF0070A7EE71D464FF01E
:10B00000080A7AE71D464FF0090A76E71D464FF019
:10B010000A0A72E789888888D34D62108736006AE9
:10B02000ABAAAAAA295C8FC21F85EB514C970500D9
:10B030003C830020A49A050051670020285C8F0201
:10B040000AD7A300042B00D070472DE9F0472DED5F
:10B05000028B1368AB4A08EE103AD2ED007A88B042
:10B06000B4EEE78AF1EE10FA079307DDDFEDA67A7A
:10B07000B4EEE78AF1EE10FA40F2FC8022F0F0F92B
:10B08000A249A34BA34EA44FDFF8ACC2A34ADFF8FA
:10B09000ACE2A1FB001003EB9010A6FB00384FEAD6
:10B0A0005818A6FB08367609A7FB06473F09414614
:10B0B0003346C8EB0818C6EB06163C4607EB4707B5
:10B0C000A0EB8808A1EB8606A3EBC70740F2B27598
:10B0D00040F26D100CE0B2EBB30F5BD3BEEB331F4D
:10B0E0002CBF4FF4B77303469C420AD3E41A0135D0
:10B0F00015F003010CFB05F3EDD040F26D139C42FB
:10B10000F4D2874AA2FB05324FEA52196420D209D1
:10B110004FF4C87300FB195903FB1252E9B31E2CFC
:10B1200040F29E81A4F11F031B2B40F29181A4F1F8
:10B130003B031E2B40F29081A4F15A031D2B40F2D9
:10B140009281A4F178031E2B40F2C981A4F19703E8
:10B150001D2B40F27581A4F1B5031E2B40F2C38173
:10B16000A4F1D4031E2B40F2C281A4F1F3031D2BE2
:10B1700040F2C1816FF4887163181E2B40F2BF81C9
:10B18000A4F598731D2B40F25F81A4F5A7744FF0CE
:10B190000B0944E04FF4B773A6E7002A00F03F81A3
:10B1A000B9F1000F00F048811E2C40F25981A4F142
:10B1B0001F031C2B40F24C81A4F13C031E2B40F2D8
:10B1C0004B81A4F15B031D2B40F24D81A4F1790367
:10B1D0001E2B40F28481A4F198031D2B40F2308194
:10B1E000A4F1B6031E2B40F27E81A4F1D5031E2BE1
:10B1F00040F27D81A4F1F4031D2B40F27C81A4F583
:10B2000089731E2B40F27B816FF49872A3181D2B5B
:10B2100040F21A816FF4A7731C444FF00B0922F01F
:10B220001FF93A4A3F49CDF80C80A2FB003292093F
:10B230004FF47A7303FB1200013409F101032A462B
:10B240000490CDE901763848009421F0A3FE3749F7
:10B25000354821F0F1FD18EE100A2AF0ADFC0B463E
:10B2600033490246304808B0BDEC028BBDE8F047D8
:10B2700021F090BE2F4F274E3B6022F0F1F8234A79
:10B28000234B254C2C49DFF894C0DFF8B0E0A2FB3B
:10B29000002003EB9010A6FB00394FEA5919A6FBDA
:10B2A00009367609A4FB06484FEA18184A46334681
:10B2B000C9EB0919C6EB0616454608EB4808A0EB92
:10B2C0008909A2EB8606A3EBC80840F2B27440F2EB
:10B2D0006D100CE0BCEBB30F11D3BEEB331F2CBFD2
:10B2E0004FF4B77303469D422AD3ED1A013414F08C
:10B2F000030201FB04F3EDD040F26D13F3E74FF4CA
:10B30000B773F0E71C60002033338B40D34D6210DD
:10B310008736006A89888888ABAAAAAA285C8F0227
:10B320001F85EB514C9705003C83002024990500B4
:10B33000FC9A050018600020295C8FC20AD7A30080
:10B340008549A1FB04314FEA511A6420C9094FF421
:10B35000C87300FB1A4A03FB1141002A67D1002978
:10B3600000F0B780BAF1000F40F081801E2D37D970
:10B37000A5F11F031B2B40F2C680A5F13B031E2B3A
:10B3800040F2C580A5F15A031D2B40F2C480A5F1FF
:10B3900078031E2B40F2C380A5F197031D2B40F2CA
:10B3A000C280A5F1B5031E2B40F2C180A5F1D403E4
:10B3B0001E2B40F2C080A5F1F3031D2B40F2BF808D
:10B3C0006FF4887E05EB0E031E2B40F2BC80A5F5C2
:10B3D00098731D2B40F2BB80A5F5A7754FF00B0AA3
:10B3E00022F03EF85D4B5E49CDF80C90A3FB0023A4
:10B3F0009B094FF47A7202FB130001350AF1010335
:10B4000022460490CDE901865648009521F0C2FD00
:10B4100038682AF0D1FB0B460246534922E7B9F1BE
:10B42000000F7FF4C1AE1E2C3FF6C1AEF7E61E2D15
:10B430009ED84FF0000AD3E71E2C3FF673AEEEE61F
:10B440001C464FF00509EAE61C464FF00A09E6E6FD
:10B450001C464FF00109E2E61C464FF00209DEE609
:10B460004FF00009DBE61C464FF00309D7E61E2D1E
:10B47000DFD9A5F11F031C2B45D9A5F13C031E2BD9
:10B4800045D9A5F15B031D2B45D9A5F179031E2BE9
:10B4900045D9A5F198031D2B45D9A5F1B6031E2B5F
:10B4A00045D9A5F1D5031E2B45D9A5F1F4031D2BD4
:10B4B00045D9A5F589731E2B45D96FF4987C05EB0A
:10B4C0000C031D2B43D96FF4A77005444FF00B0AF2
:10B4D00086E7BAF1000FCAD11E2DCAD880E71C46F4
:10B4E0004FF004099BE61C464FF0060997E61C4600
:10B4F0004FF0070993E61C464FF008098FE61C46FB
:10B500004FF009098BE61D464FF0010A68E71D461A
:10B510004FF0020A64E71D464FF0030A60E71D463C
:10B520004FF0040A5CE71D464FF0050A58E71D4638
:10B530004FF0060A54E71D464FF0070A50E71D4634
:10B540004FF0080A4CE71D464FF0090A48E71D4630
:10B550004FF00A0A44E700BF1F85EB51D34D62103C
:10B560004C9705003C830020D89A0500042B00D09E
:10B5700070472DE9F0472DED028B136808EE103A65
:10B58000F0EE047A88B0B4EEE78AF1EE10FA079391
:10B5900008DBDF4BD3ED007AB4EEE78AF1EE10FA68
:10B5A00000F1FC8021F05CFFDA49DB4BDB4EDC4F25
:10B5B000DFF88CC3DB4ADFF890E3A1FB001003EB5C
:10B5C0009010A6FB00384FEA5818A6FB08367609FB
:10B5D000A7FB06473F0941463346C8EB0818C6EBB0
:10B5E00006163C4607EB4707A0EB8808A1EB86064A
:10B5F000A3EBC70740F2B27540F26D100CE0B2EB5E
:10B60000B30F5BD3BEEB331F2CBF4FF4B7730346AE
:10B610009C420AD3E41A013515F003010CFB05F333
:10B62000EDD040F26D139C42F4D2BF4AA2FB05322A
:10B630004FEA52196420D2094FF4C87300FB19591C
:10B6400003FB1252E9B31E2C40F2A281A4F11F03A6
:10B650001B2B40F29581A4F13B031E2B40F29481F9
:10B66000A4F15A031D2B40F29681A4F178031E2BFE
:10B6700040F2CD81A4F197031D2B40F27981A4F112
:10B68000B5031E2B40F2C781A4F1D4031E2B40F258
:10B69000C681A4F1F3031D2B40F2C5816FF48871BC
:10B6A00063181E2B40F2C381A4F598731D2B40F242
:10B6B0006381A4F5A7744FF00B0944E04FF4B7730E
:10B6C000A6E7002A00F04281B9F1000F00F04C819A
:10B6D0001E2C40F25D81A4F11F031C2B40F250810F
:10B6E000A4F13C031E2B40F24F81A4F15B031D2B00
:10B6F00040F25181A4F179031E2B40F28881A4F11C
:10B7000098031D2B40F23481A4F1B6031E2B40F2A6
:10B710008281A4F1D5031E2B40F28181A4F1F403B0
:10B720001D2B40F28081A4F589731E2B40F27F818E
:10B730006FF49872A3181D2B40F21E816FF4A7734B
:10B740001C444FF00B0921F08BFE724A7749CDF86B
:10B750000C80A2FB003292094FF47A7303FB1200B3
:10B76000013409F101032A460490CDE901767048BD
:10B77000009421F00FFC6F496D4821F05DFB18EE3D
:10B78000100A2AF019FA0B466B490246684808B0BD
:10B79000BDEC028BBDE8F04721F0FCBB674F5F4E6C
:10B7A00087ED008A21F05CFE5A4A5B4B5C4C644991
:10B7B000DFF870C1DFF890E1A2FB002003EB9010EE
:10B7C000A6FB00394FEA5919A6FB09367609A4FBF6
:10B7D00006484FEA18184A463346C9EB0919C6EB22
:10B7E0000616454608EB4808A0EB8909A2EB860639
:10B7F000A3EBC80840F2B27440F26D100CE0BCEB51
:10B80000B30F11D3BEEB331F2CBF4FF4B7730346F6
:10B810009D420CD3ED1A013414F0030201FB04F332
:10B82000EDD040F26D13F3E74FF4B773F0E73E4904
:10B83000A1FB04314FEA511A6420C9094FF4C873BF
:10B8400000FB1A4A03FB1141002A40F087800029BF
:10B8500000F0D780BAF1000F40F0A1801E2D37D93B
:10B86000A5F11F031B2B40F2E680A5F13B031E2B25
:10B8700040F2E580A5F15A031D2B40F2E480A5F1CA
:10B8800078031E2B40F2E380A5F197031D2B40F2B5
:10B89000E280A5F1B5031E2B40F2E180A5F1D403AF
:10B8A0001E2B40F2E080A5F1F3031D2B40F2DF8058
:10B8B0006FF4887E05EB0E031E2B40F2DC80A5F5AD
:10B8C00098731D2B40F2DB80A5F5A7754FF00B0A8E
:10B8D00021F0C6FD0F4B1549CDF80C90A3FB0023BA
:10B8E0009B094FF47A7202FB130001350AF1010340
:10B8F00022460490CDE901860D48009521F04AFBCF
:10B9000038682AF059F90B4602460E493EE700BF57
:10B9100018600020D34D62108736006A89888888B5
:10B92000ABAAAAAA285C8F021F85EB514C97050091
:10B930003C83002024990500649B05001C600020C6
:10B94000295C8FC2409B05000AD7A300B9F1000F04
:10B950007FF4BEAE1E2C3FF6BEAEF4E61E2D3FF6C3
:10B960007FAF4FF0000AB3E71E2C3FF66FAEEAE65A
:10B970001C464FF00509E6E61C464FF00A09E2E6D0
:10B980001C464FF00109DEE61C464FF00209DAE6DC
:10B990004FF00009D7E61C464FF00309D3E61E2DF1
:10B9A000DFD9A5F11F031C2B45D9A5F13C031E2BA4
:10B9B00045D9A5F15B031D2B45D9A5F179031E2BB4
:10B9C00045D9A5F198031D2B45D9A5F1B6031E2B2A
:10B9D00045D9A5F1D5031E2B45D9A5F1F4031D2B9F
:10B9E00045D9A5F589731E2B45D96FF4987C05EBD5
:10B9F0000C031D2B43D96FF4A77005444FF00B0ABD
:10BA000066E7BAF1000FCAD11E2DCAD860E71C46FE
:10BA10004FF0040997E61C464FF0060993E61C46D2
:10BA20004FF007098FE61C464FF008098BE61C46CD
:10BA30004FF0090987E61D464FF0010A48E71D4609
:10BA40004FF0020A44E71D464FF0030A40E71D4647
:10BA50004FF0040A3CE71D464FF0050A38E71D4643
:10BA60004FF0060A34E71D464FF0070A30E71D463F
:10BA70004FF0080A2CE71D464FF0090A28E71D463B
:10BA80004FF00A0A24E700BF2DE9F0432DED068BA5
:10BA9000CC4895B010F004FFCA48B0EE409A10F0C0
:10BAA00007FFF0EE409A69EEA98AC64810F008FF39
:10BAB000E9EE098AC44B1B78E0EE008AB0EE408ABA
:10BAC000002B40F04581C14BC14C1A680132A4FBE8
:10BAD0000214240904EB8404B2EB84041A6062D0DB
:10BAE000DFEDBC7AF4EEE78AF1EE10FA35D4F0EE31
:10BAF000C97AB0EEE97AF4EEC77AF1EE10FAF0EE18
:10BB0000C86A2FDBF4EEE67AF1EE10FA80F24D818E
:10BB1000F4EE477AF1EE10FA24D0B5EEC08AF1EED9
:10BB200010FACCBF01244FF0FF3421F099FCAA4B4E
:10BB300093F90020A24229D06AB15A68821A323A97
:10BB4000B2F5AF7F00F23A815A780132D2B2022ABE
:10BB50005A7000F2618158601C7015B0BDEC068B04
:10BB6000BDE8F083B4EEE67AF1EE10FAD5DBF5EE3F
:10BB7000C09AF1EE10FACCBF01244FF0FF3421F04F
:10BB80006FFC954B93F90020A242D5D15A78002A38
:10BB9000E2D05A68801AB0F5C87FDDD900225A7009
:10BBA0005A601C70D9E78D4814F078FB002897D0B4
:10BBB00021F056FC8A4A8B4B8B4F8C4D8C49DFF819
:10BBC00050C2DFF850E2A2FB002003EB9010A7FB6D
:10BBD00000394FEA5919A7FB09377F09A5FB075818
:10BBE0004FEA18184A463B46C9EB0919C7EB071735
:10BBF000464608EB4808A0EB8909A2EB8707A3EBB0
:10BC0000C80840F2B27540F26D100DE0BCEBB30F06
:10BC1000C0F0CB81BEEB331F2CBF4FF4B77303468C
:10BC20009E420AD3F61A013515F0030201FB05F313
:10BC3000ECD040F26D139E42F4D26E4BA3FB051381
:10BC400059094FF0640CDB094FF4C8700CFB11511B
:10BC500000FB1353002A00F0E6811E2E36D9A6F110
:10BC60001F031B2B40F24982A6F13B031E2B40F21F
:10BC70001A82A6F15A031D2B40F24282A6F17803E4
:10BC80001E2B40F24082A6F197031D2B40F23E820C
:10BC9000A6F1B5031E2B40F23C82A6F1D4031E2B65
:10BCA00040F23A82A6F1F3031D2B40F238826FF482
:10BCB000887C06EB0C031E2B40F23482A6F59873A9
:10BCC0001D2B40F23282A6F5A7760B24B1EEE8AA2E
:10BCD00021F0C6FB424B4849CDF80C90A3FB002352
:10BCE0009B094FF47A7202FB13000136631C2A464B
:10BCF0000490CDE9018700964048414D21F04AF972
:10BD000019EE100A29F058FF002402460B461AEEDD
:10BD1000100ACDE90823CDE9064529F04DFF044678
:10BD20000D4618EE100ACDE9044529F045FF0446FA
:10BD30000D4619EE900ACDE9024529F03DFFDDE9F7
:10BD40000823CDE900012F492C4821F023F9C7E64B
:10BD5000224814F0A3FA00283FF4B5AE00212422B3
:10BD60000BA80A912AF0E4FC18EE100A29F024FF2F
:10BD700002460B4619EE900ACDE9042329F01CFF78
:10BD800002460B4619EE100ACDE9022329F014FFF2
:10BD90001D4ACDE900010AA828212BF04FFB0AA972
:10BDA00028221A4813F0B6FD8DE6B5EEC09AF1EEE2
:10BDB00010FACCBF01244FF0FF34B6E600225A70CF
:10BDC0005860C9E6606C00200468002028640020E8
:10BDD000CDCCCCCCFFFFC740D46E0020C47A00206D
:10BDE000D34D62108736006A89888888ABAAAAAAD0
:10BDF000295C8FC21F85EB514C9705003C830020C6
:10BE000000000440B89B0500A49B0500606800206A
:10BE1000285C8F020AD7A3000021242219800BA8D6
:10BE200059602AF085FCC24BC24EC34F93E8030011
:10BE3000ADF82C100A9021F013FBC049C04BDFF87D
:10BE400020C3C04ADFF81CE3A1FB001003EB9010F5
:10BE5000A6FB00384FEA5818A6FB08367609A7FB60
:10BE600006173F09454633463946C8EB0818C6EB66
:10BE7000061607EB4707A0EB8808A5EB8606A3EBA1
:10BE8000C7070C4640F2B27540F26D100DE0B2EB00
:10BE9000B30FC0F08780BEEB331F2CBF4FF4B773D6
:10BEA00003469C420AD3E41A013515F003010CFB4A
:10BEB00005F3ECD040F26D139C42F4D2A24AA2FBEF
:10BEC00005324FEA52196420D2094FF4C87300FBBF
:10BED000195903FB125200296AD01E2C40F2EE8041
:10BEE000A4F11F031B2B40F2E180A4F13B031E2BA6
:10BEF00040F2E080A4F15A031D2B40F2E280A4F14D
:10BF000078031E2B40F2E180A4F197031D2B40F231
:10BF1000E080A4F1B5031E2B40F2DF80A4F1D4032E
:10BF20001E2B40F2BC80A4F1F3031D2B40F2D980FC
:10BF30006FF4887163181E2B40F2D780A4F59873B4
:10BF40001D2B40F2D680A4F5A7744FF00B0921F009
:10BF500087FA7A4A7D49CDF80C80A2FB003292091B
:10BF60004FF47A7303FB1200013409F101032A46EE
:10BF70000490CDE901760094754821F00BF80AAAE7
:10BF80007449734821F006F80AA92822724813F070
:10BF9000C1FC21F065FA714B186015B0BDEC068B41
:10BFA000BDE8F0834FF4B7737BE74FF4B77337E620
:10BFB0009AB3B9F1000F67D01E2C7FD9A4F11F03EB
:10BFC0001C2B73D9A4F13C031E2B73D9A4F15B0382
:10BFD0001D2B76D9A4F179031E2B76D9A4F19803F1
:10BFE0001D2B76D9A4F1B6031E2B76D9A4F1D50367
:10BFF0001E2B54D9A4F1F4031D2B72D9A4F5897317
:10C000001E2B72D96FF49872A3181D2B71D96FF47F
:10C01000A7731C444FF00B0999E7B9F1000FCBD17E
:10C020001E2CCBD893E79BBB1E2E36D9A6F11F033F
:10C030001C2B62D9A6F13C031E2B34D9A6F15B035D
:10C040001D2B5DD9A6F179031E2B5CD9A6F19803AF
:10C050001D2B5BD9A6F1B6031E2B5AD9A6F1D50329
:10C060001E2B59D9A6F1F4031D2B58D9A6F58973B7
:10C070001E2B57D96FF4987433191D2B55D96FF4B3
:10C08000A77006440B2421E61E2C3FF629AF5EE77D
:10C090000029C9D11E2E3FF6E2AD144616E61C4615
:10C0A0004FF0070953E71E4602240FE61C464FF0E7
:10C0B00001094CE71C464FF0020948E74FF0000920
:10C0C00045E71C464FF0030941E71C464FF00409C1
:10C0D0003DE71C464FF0050939E71C464FF00609BD
:10C0E00035E71C464FF0080931E71C464FF00909B7
:10C0F0002DE71C464FF00A0929E71E460124E5E515
:10C100001E460324E2E51E460424DFE51E46052400
:10C11000DCE51E460624D9E51E460724D6E51E4664
:10C120000824D3E51E460924D0E51E460A24CDE5A1
:10C13000F49B050089888888ABAAAAAAD34D62100F
:10C140008736006A285C8F021F85EB514C970500EB
:10C150003C830020FC9B050060680020906D00205F
:10C16000295C8FC20AD7A3002DE9F04F2DED068B75
:10C17000AA48ABB010F0ACFBA848F0EE408A10F033
:10C18000AFFBA648B0EE408A10F0B2FBA44A92F989
:10C1900000300333F0EE407A062B00F25585DFE8DD
:10C1A00013F0190523052D05530537053F05070035
:10C1B00020EE007AB0EEC0AA8DED0A0A92F90130A5
:10C1C0000333062B00F23A85DFE813F0FA04F0049B
:10C1D000E6043805DE04D6040700A7EEA77AF0EEE1
:10C1E000E79ACDED0C7A92F902300333062B00F278
:10C1F0001F85DFE813F0A504AF0493041D05B904FF
:10C200009D040700A7EEA77A17EE907AB0EEE79AA2
:10C21000B5EEC07AF1EE10FAC8BFF1EEC77A814BE5
:10C22000814A1B78CABF9FED817ADFED8A7A67EE7B
:10C23000877AC2ED007A002B40F018867C4B1B7881
:10C2400021AE002B40F041867A4A7B4D13680133C2
:10C25000A5FB03152D09322101FB15351360002DB7
:10C2600000F05E86754C764BDB68DB0140F1FC84A8
:10C27000744B1A68D50740F1F7845B689B0994F802
:10C28000842382B9D4F88023DFED6F7A9A1A07EEFF
:10C29000102AB8EE477A67EE277AF5EEC07AF1EE0B
:10C2A00010FA00F25587DFED697A1420D4E94021B5
:10C2B0009DED0A7AC4F8803304EB8205531C03F029
:10C2C0001F032A4685ED007A1F294FF00005C4F8A8
:10C2D0000031C2ED207A84F8845340F35185202147
:10C2E0009FED5C7A5A1EF0EE476A0025531B03F05F
:10C2F0001F0304EB830CDCED005A9CED205AB0EEDA
:10C30000E56AB4EEC67AF1EE10FA05F10105B8BFA0
:10C31000B0EE467A8D42E5EE856AE7DBD4F820314F
:10C3200094F81C21C4ED436A034484ED447AC4F8B4
:10C330002031032A00F28483DFE812F09403DB0348
:10C34000740304009FED427AB4EEC7AAF1EE10FA2E
:10C3500040F1D8849DED0A7A94ED45AAD4F818816D
:10C3600084ED427A00220023C4F81421C4F8182175
:10C3700084F81C31C4F820310125D4F824C1BCF163
:10C38000140F03DC0CF1010CC4F824C1D4E98A3188
:10C390009DED0C7A5A1C04EB830E02F01F021F293C
:10C3A000C4F828228EED4A7ACEED6A7A40F32585CC
:10C3B00020219FED287A013AF0EE476A4FF0000EF7
:10C3C000A2EB0E0303F01F0304EB8309D9ED4A5AD5
:10C3D00099ED6A5AB0EEE56AB4EEC67AF1EE10FA5B
:10C3E0000EF1010EB8BFB0EE467A8E45E5EE856AD5
:10C3F000E6DBD4F8483294F84422C4ED8D6A034455
:10C4000084ED8E7AC4F84832032A00F2DB82DFE83A
:10C4100012F0EC024603CB02230000BF606C002048
:10C42000546E0020606E0020F8630020E12E65420B
:10C4300004680020186400201F85EB51B8680020B4
:10C44000F0ED00E0001000E0BD3786350AD7A33CD0
:10C450008FC2F53C000000001FED037AF4EEC79A8E
:10C46000F1EE10FA40F1BA849DED0C7A94ED8F8ACA
:10C47000D4ED909A84ED8C7A00220023C4F83C22FB
:10C48000C4F8402284F84432C4F848324FF001091D
:10C49000D4F84CE2BEF1140F03DC0EF1010EC4F827
:10C4A0004CE2D4E9D43104EB830A5A1C02F01F0297
:10C4B0001F29C4F85023CAF85072CAEDB47A40F369
:10C4C000308420211FED1D7A013AF0EE476A4FF0CB
:10C4D000000AA2EB0A0303F01F0304EB830BDBED5E
:10C4E000945A9BEDB45AB0EEE56AB4EEC67AF1EE1A
:10C4F00010FA0AF1010AB8BFB0EE467A8A45E5EEB5
:10C50000856AE6DBD4F8703394F86C23C4EDD76AFF
:10C51000184484EDD87AC4F87003032A00F2168216
:10C52000DFE812F02502D202060204005FED387A3D
:10C53000B4EEE79AF1EE10FA40F18C840022002369
:10C54000D4EDD98A94EDDA9AC4F85873C4F8642308
:10C55000C4F8682384F86C33C4F870334FF0010AD0
:10C56000D4F87433142B02DC0133C4F87433BCF1F7
:10C57000130F4FDDBEF1130F4CDD132B4ADD5FEDC2
:10C580004BAAD74800218B464FF480722AF0D0F88E
:10C5900059464FF48072C4E940BBD248C4F824B174
:10C5A00084F81CB1C4F820B1C4ED42AAC4ED43AA7A
:10C5B000C4ED44AAC4ED45AAC4ED46AA2AF0B8F8D1
:10C5C000C4E98ABBC848C4ED8CAA59464FF48072AE
:10C5D000C4ED8DAAC4ED8EAAC4F84CB284F844B25E
:10C5E000C4F848B2C4ED8FAAC4ED90AA2AF0A0F80E
:10C5F000C4E9D4BBC4EDD6AAC4EDD7AAC4EDD8AA69
:10C60000C4F874B384F86CB3C4F870B3C4EDD9AA99
:10C61000C4EDDAAA0023012202212193C6E90133E5
:10C62000C6E903338DF88C2017AA8DF89410209258
:10C630001AA91DAA8DF85C508DED18AACDF864805A
:10C640008DF868908DED1B8ACDED1C9A8DF874A045
:10C65000CDED1E8A8DED1F9A2291249235B1F0EE18
:10C66000CA7AF5EEC07AF1EE10FA03DCDFEDAF7AAC
:10C670004FF0FF339DF868209DF87410002A00F0F9
:10C68000FD82F0EEC86AF4EEE67AF1EE10FA40F1BF
:10C69000F58259B1B0EEE87AF4EEC76AF1EE10FA1D
:10C6A00000F10983B0EE667AF0EE476A002D00F0E3
:10C6B0009585B0EE667A0D460123012BF0EECA7A1D
:10C6C00000F0CA82002A00F0FF820223F0EEC86A5E
:10C6D000022B77EEA67A00F0F7821DB1F0EEE86A41
:10C6E00077EEA67A2AAA02EBC30394EDDE5A13F87A
:10C6F000242CD4EDDF6A9FED7D6A53F8283C012A93
:10C7000008BFF0EE456A37EE866AF4EEC76AF1EECE
:10C7100010FAC7EE065A93ED016A40F3E882012150
:10C72000022384F8952384EDE66AC4EDE77AC4ED2C
:10C73000E85A84F8941384F8A43320F091FE6C4AEC
:10C740006C4B6D4F6D4D6E49DFF8D0C1DFF8D0E115
:10C75000A2FB002003EB9010A7FB00394FEA591908
:10C76000A7FB09377F09A5FB07584FEA18184A4667
:10C770003B46C9EB0919C7EB0717464608EB4808C3
:10C78000A0EB8909A2EB8707A3EBC80840F2B275BA
:10C7900040F26D100DE0BCEBB30FC0F0E684BEEBD1
:10C7A000331F2CBF4FF4B77303469E420AD3F61AC9
:10C7B000013515F0030201FB05F3ECD040F26D13D7
:10C7C0009E42F4D24F49A1FB05314FEA511A642031
:10C7D000C9094FF4C87300FB1A5A03FB1151002A10
:10C7E00000F045861E2E40F25187A6F11F031B2B39
:10C7F00040F27087A6F13B031E2B40F28A87A6F118
:10C800005A031D2B40F2DB86A6F178031E2B40F263
:10C810008887A6F197031D2B40F28B87A6F1B503FD
:10C820001E2B40F28E87A6F1D4031E2B40F2918777
:10C83000A6F1F3031D2B40F294876FF488717318EF
:10C840001E2B40F29687A6F598731D2B40F2998710
:10C85000A6F5A7764FF00B0A20F002FE244B2A49DA
:10C86000CDF80C90A3FB00239B094FF47A7202FBD6
:10C8700013000136CDE9018700960AF101032A462B
:10C880000490224820F086FB94F8A40394F89523A2
:10C890001F4B204953F8222051F82010D4F8A00350
:10C8A0000A92069129F088F906460F46D4F89C03AF
:10C8B000CDE9046729F080F906460F46D4F89803BD
:10C8C000CDE9026729F078F90A9ACDE90001124909
:10C8D0000E4820F05FFB2BB0BDEC068BBDE8F08F5F
:10C8E000B8680020E0690020086B00206F12833ACE
:10C8F000D34D62108736006A89888888ABAAAAAAB5
:10C90000295C8FC21F85EB514C9705003C830020AA
:10C9100008AF050014AF0500E49C0500285C8F02F9
:10C920000AD7A3008FC2F53C9A99193E0000000077
:10C930005FED037AB4EEE79AF1EE10FA40F140842D
:10C940000322002384F86C23C4F870335FED0B7A64
:10C95000C4F85873B4EEE79AF1EE10FA40F17C8215
:10C960005FED0E8A4FF0000AB0EE689AF8E5F5EE3A
:10C97000C07AF1EE10FAE9DD07EE107AD4EDD66A4E
:10C9800077EE666AB0EE086A86EEA77AF0EEC77AAE
:10C99000F4EEC67AF1EE10FAD8DD0122002384F815
:10C9A0006C23C4F87033D1E71FED217AF4EEC79AF7
:10C9B000F1EE10FA40F109840322002384F84422A6
:10C9C000C4F848321FED297ADDED0C6AF4EEC79AFF
:10C9D000F1EE10FAC4ED8C6A40F104821FED2D8A4D
:10C9E0004FF00009F0EE489A52E5F5EEC07AF1EE0C
:10C9F00010FAE7DD9DED0C7AD4ED8C6A77EE666A6D
:10CA0000B0EE086A86EEA77AB0EEC77AB4EEC67AC0
:10CA1000F1EE10FAD6DD0122002384F84422C4F896
:10CA20004832CFE71FED407AB4EEC7AAF1EE10FA14
:10CA300040F1D0830322002384F81C21C4F8203164
:10CA40001FED487ADDED0A6AB4EEC7AAF1EE10FADE
:10CA5000C4ED426A40F15A811FED4CAA00251AEE3E
:10CA6000108A8AE4F5EEC07AF1EE10FAE8DD9DED69
:10CA70000A7AD4ED426A77EE666AB0EE086A86EE0C
:10CA8000A77AB0EEC77AB4EEC67AF1EE10FAD7DD27
:10CA90000122002384F81C21C4F82031D0E71FEDC7
:10CAA0005E6AF0EEE65AF4EEC65AF1EE10FA40F382
:10CAB000C78102220023C4ED8F6A84ED907A84F846
:10CAC0004422C4F848327DE75FED697AB0EEE66A49
:10CAD000B4EEE76AF1EE10FA40F348810222002337
