:020000022000DC
:10700000000004206DD10200ADD10200AFD102001A
:10701000B1D10200B3D10200B5D1020000000000DE
:10702000000000000000000000000000EDD00200A1
:10703000B9D10200000000000DD10200BDD1020054
:10704000F1D10200BFD10200BFD1020015790200C8
:10705000C9790200BFD10200D1B90200BFD102003C
:10706000BFD10200BFD10200BFD10200BFD10200D8
:10707000BFD10200BFD10200BFD10200BFD10200C8
:10708000BFD1020065D00200BFD10200BFD1020013
:10709000BFD10200BFD1020099A00200BFD10200FF
:1070A000BFD10200BFD10200BFD10200BFD1020098
:1070B000BFD10200BFD102000000000000000000AC
:1070C000BFD10200BFD10200BFD10200DDD2020059
:1070D000BFD10200BFD10200BFD10200F1A4020063
:1070E000BFD10200BFD10200BFD1020000000000EA
:1070F00000000000BFD102000000000055D30200D4
:10710000000000000000000000000000000000007F
:10711000000000000000000000000000000000006F
:10712000000000000000000000000000000000005F
:10713000000000000000000000000000000000004F
:10714000000000000000000000000000000000003F
:10715000000000000000000000000000000000002F
:10716000000000000000000000000000000000001F
:10717000000000000000000000000000000000000F
:1071800000000000000000000000000000000000FF
:1071900000000000000000000000000000000000EF
:1071A00000000000000000000000000000000000DF
:1071B00000000000000000000000000000000000CF
:1071C00000000000000000000000000000000000BF
:1071D00000000000000000000000000000000000AF
:1071E000000000000000000000000000000000009F
:1071F000000000000000000000000000000000008F
:10720000F1EE103A43F08073E1EE103A704700BFA0
:1072100010B5054C237833B9044B13B10448AFF3D0
:1072200000800123237010BD646200200000000074
:107230008C18030008B5034B1BB103490348AFF397
:10724000008008BD00000000686200208C18030068
:10725000154B002B08BF134B9D46A3F5803A002128
:107260008B460F461348144A121A07F093F90F4B36
:10727000002B00D098470E4B002B00D098470020E1
:10728000002104000D000D48002802D00C48AFF387
:10729000008007F02FF92000290000F02BF807F0FC
:1072A00015F900BF000008000000042000000000E5
:1072B0000000000064620020C4970020000000006D
:1072C00000000000024649B908B50649064807F023
:1072D000D7FF064A13680133136008BD044902480A
:1072E00007F0CEBFF80F03000010030080620020FB
:1072F0000810030010B5334A33493448344C82B087
:1073000007F0BEFF334A3049304807F0B9FF324A30
:107310002D492E4807F0B4FF304A2B492B4807F07F
:10732000AFFF2F4A2849294807F0AAFF2D4801211D
:10733000FFF7C8FF2C480121FFF7C4FF2B480121AC
:10734000FFF7C0FF2A480121FFF7BCFF29480121B0
:10735000FFF7B8FF28480121FFF7B4FF27480121B4
:10736000FFF7B0FF26480121FFF7ACFF25480121B8
:10737000FFF7A8FF24480121FFF7A4FF23480121BC
:10738000FFF7A0FF22480121FFF79CFF21480121C0
:10739000FFF798FF20480121FFF794FF1F480121C4
:1073A000FFF790FF2268084B1D491E48002A08BFBE
:1073B000194607F065FF2068003818BF012002B0A9
:1073C00010BD00BF101003000810030000100300E0
:1073D000806200202C1003004410030060100300A2
:1073E0007C10030098100300AC100300BC100300D5
:1073F000D0100300E4100300F41003001011030088
:107400002C110300481103006411030080110300D4
:1074100098110300A8110300BC110300D011030050
:10742000F80F0300E8110300704700BF013902297B
:1074300008D8416840F2DB53521A9A4284BF0123B4
:107440000372704742607047037A0BB100220272E8
:10745000184670470023037243607047704700BFAF
:1074600010B5044605F0ACFE204610BD38B500232B
:1074700000250446C0F80831C0F80C31C0F81031BE
:10748000C0F81431C0F81831C0F83032C0F83432C6
:10749000C0F83832C0F83C32C0F84032C0F8583337
:1074A000C0F85C33C0F86033C0F86433C0F86833A8
:1074B000C0F888332946C0E94055C0E98A55C0E97B
:1074C000D4554FF48072C0F8245180F81C51C0F894
:1074D0002051C0F84C5280F84452C0F84852C0F8CD
:1074E000745380F86C53C0F8705307F053F8294672
:1074F0004FF4807204F5947007F04CF84FF48072EA
:10750000294604F5147007F045F801224FF07A532C
:10751000C4F87C5384F88023C4F88433204638BDF3
:1075200010B5044B044640F8083B02F0CFFC20465F
:1075300010BD00BFBC14030010B5074B044640F853
:10754000183B02F03DF92046044B40F8083B02F09E
:10755000BDFC204610BD00BFE4140300BC140300B2
:107560002DE9F04F954B964C9649974DDFF8C8B2F0
:10757000DFF8C882954E964FDFF8C4A2DFF8C492B8
:1075800087B0FD2240F2012018809A7002A802F014
:10759000B3FC02A9204602F079FC02A802F096FC96
:1075A0002A465946204606F07DF90024894902A85A
:1075B00002F0A2FC282302A912224046009402F005
:1075C00065FB02A802F082FC2A463146404606F0DE
:1075D00069F98149DFF8708202A802F08DFC50231E
:1075E00002A912220094384602F050FB02A802F0D1
:1075F0006DFC2A463146384606F054F97749784FF3
:1076000002A802F079FC0C2302A912220094404641
:1076100002F03CFB02A802F059FC2A4631464046E3
:1076200006F040F9384602F04DFD2A466D49DFF874
:107630001C82384606F036F96B496C4F02A802F0FE
:107640005BFC02A9504602F021FC02A802F03EFCBD
:107650002A465946504606F025F9654902A802F027
:107660004BFC042302A90A220094384602F00EFBC8
:1076700002A802F02BFC2A463146384606F012F9E1
:107680005C495D4F02A802F037FC012302A90A22DF
:107690000094484602F0FAFA02A802F017FC2A46C3
:1076A0003146484606F0FEF85449DFF8A49102A896
:1076B00002F022FC042302A90A220094404602F0B0
:1076C000E5FA02A802F002FC2A463146404606F0DE
:1076D000E9F84B49DFF87C8102A802F00DFC042395
:1076E00002A90A220094384602F0D0FA02A802F059
:1076F000EDFB2A463146384606F0D4F84149424F60
:1077000002A802F0F9FB012302A90A2200944846CC
:1077100002F0BCFA02A802F0D9FB2A4631464846DC
:1077200006F0C0F8394902A802F0E6FB012302A9DD
:107730000A220094404602F0A9FA02A802F0C6FB11
:107740002A463146404606F0ADF8314902A802F01B
:10775000D3FB02A90C2312220094384602F096FAB9
:1077600002A802F0B3FB2A463146384606F09AF8E2
:10777000284BDFF8E4C02849284A294FC3F800C045
:107780004FF0081683F88C40C3F8F670C3F8FA601F
:10779000C3F8FE10C3F802212248FFF767FE224B10
:1077A000224983F82C412A46214806F07BF8214BD8
:1077B0001C805C6007B0BDE8F08F00BF986B0020B4
:1077C0006C6C0020FC11030000600020C1970200D7
:1077D000146C0020241203004C12030074120300E6
:1077E000E4630020397502009C12030084650020C8
:1077F000C4120300EC1203008C6300201413030076
:107800003C13030064130300DC6500208C130300A9
:10781000B4130300206A0020090004000A000800D5
:107820000E000C0090660020546400205D7402007D
:10783000046000200C6C00202175020034660020DA
:10784000F46B00209C6B0020DC620020346300207D
:10785000406B002084620020281403000020704741
:10786000704700BF203004F09BB800BF38B5437F9D
:107870000BB9002038BD00F1680420460D4604F025
:107880009DF80028F5D12046294604F069F801202A
:1078900038BD00BF203004F075B800BF203004F0C0
:1078A00085B800BF2DE9F04F83B0019272B34C1E32
:1078B000174F0546C1F1010604EB020800F1680A02
:1078C0002B681B68BB4206EB040B14F8019F17D111
:1078D0006B7F50461BB9584603B0BDE8F08F04F0EB
:1078E0006DF8034649465046002BF4D104F038F8B1
:1078F0004445E5D1DDF804B0584603B0BDE8F08F4B
:107900004946284698470028F2D1E4E79346E2E743
:107910006D78020070B52A4C6369D3F86421002A9F
:107920003CD1D3F86821F2B9D3F8042122B1227FE7
:107930000021C3F8041162B9D3F8242142B1002216
:10794000C3F82421D3F8D024C3F8D02401225A61EB
:1079500070BDD4F8B820D3F83C052066002AEBD0DF
:1079600090476369E8E70022C3F8682115484FF49F
:107970008073A38304F002F8D4F8B43003B19847BD
:1079800063691048C3F844050023637704F008F8DE
:1079900063690122C3F848055A63C5E7002204F170
:1079A0002006C3F8642101253046257703F0E6FF61
:1079B00063694022C3F83465C3F838251D63B0E716
:1079C000846C0020EC6C002070B52A4C6369D3F8FD
:1079D0006421002A3CD1D3F86821F2B9D3F80421FC
:1079E00022B1227F0021C3F8041162B9D3F8242107
:1079F00042B10022C3F82421D3F8D024C3F8D02404
:107A000001225A6170BDD4F8B820D3F83C05206635
:107A1000002AEBD090476369E8E70022C3F86821A9
:107A200015484FF48073A38303F0A8FFD4F8B43053
:107A300003B1984763691048C3F84405002363778E
:107A400003F0AEFF63690122C3F848055A63C5E736
:107A5000002204F12006C3F8642101253046257771
:107A600003F08CFF63694022C3F83465C3F83825FE
:107A70001D63B0E7406D0020A86D00202DE9F8439C
:107A80001A4DDFF878901A4C1A4F284600264FF40A
:107A90007A7840F8209BC5E9016803F055FF05F1AD
:107AA000680003F051FF032320462B763B696B7679
:107AB000114B7A6940F8209BC5E90433AA76C4E9E2
:107AC00001686E7703F040FF04F1680003F03CFFAB
:107AD000D7E9102104204FF04023C4E9043366772E
:107AE00020766176A276BDE8F88300BF846C002022
:107AF000406D0020441503000030004004140300D2
:107B00000B6813B9014B01221A707047006E0020F8
:107B100010B5064C206800F04BFB00B910BD23687F
:107B200000200021C3E9020110BD00BFFC6D002050
:107B300038B51E4D95F900305A1C04461BD0184626
:107B4000012105F0C5FD012195F9000005F044FE75
:107B50000A2003F07FFF002195F9000005F03CFEAC
:107B60000A2003F077FF95F90000012105F034FEAB
:107B70000A2003F06FFF0E49002204F5847000F024
:107B800047FA08B1002038BD04340146542220468B
:107B900006F000FD204600F0CBFA0028F2D10146A5
:107BA000044800F0BDFA012038BD00BF106000207D
:107BB000017B0200117B0200704700BF0848094B9F
:107BC000D0F8BC2010B4012419711C602AB1D0F87F
:107BD000C0005DF8044B194610475DF8044B704730
:107BE000A89500200C6E002010B54FF4806382B081
:107BF000C17AA0F8AC30F924022301AA4068ADF89C
:107C0000044001F087FB02B010BD00BF2DE9F04F2A
:107C10008BB0164605460F46019300F11D02002465
:107C200002E00134402C2CD012F814302A2BF8D169
:107C300005EB4404A47F0EB34FF00009C8461FFAB9
:107C400084FB4FF02A0A019B8DF811A0224607EB16
:107C500008010DF11200CDE9023906F08DFCD5F8CE
:107C6000C4208DF8104002A912B1D5F8C800904781
:107C70000BEB08031FFA83F84645E4D80BB0BDE8C8
:107C8000F08F0024D7E700BF2DE9F04F8DB0CDE98C
:107C90000223002A5AD000F11D04CDE900044FF060
:107CA000000A0E465546DDE90074735D7119002225
:107CB00002E00132402A6AD014F812009842F8D14A
:107CC00007EB4202CDE9007492F81EB03846BBF1D2
:107CD000000F5CD0FB2B3CD0FA2B41D0EF2B45D0D2
:107CE0002F488A780068039C91F803C0920102F43F
:107CF0007C528442624445D32A480068039C8DF834
:107D000019306427524407FB02424FF0000818EB79
:107D10000208234F40F100095A460DF11A00CDE93F
:107D200004893C6006F028FC009B8DF818B0D3F85D
:107D3000C43023B1009A04A9D2F8C80098471FFAAA
:107D40008BFB029B5D44ADB2AB42ACD80DB0BDE83D
:107D5000F08FD1F801A01FFA8BFBCAF1000AF0E7FF
:107D6000D1F801301FFA8BFB9A44EAE7D7F8A0302C
:107D70001FFA8BFB002BE4D09B68002BE1D05A4606
:107D80009847DEE7074C206801302060B6E7D7F857
:107D9000F8310133C7F8F8310DB0BDE8F08F00BFFE
:107DA000046E0020086E0020FFF76EBF2DE9F84F2B
:107DB0000646002A61D0DFF8E0A00F469046002575
:107DC00000F11D04795D07EB050B002302E0013390
:107DD000402B59D014F813208A42F8D106EB430304
:107DE00093F81E90B9F1000F4ED0FC2911D0D6F8AF
:107DF000A0301FFA89F92BB19B681BB159464A463E
:107E00003046984705EB090295B2A845DAD8BDE897
:107E1000F88FD6F8BC30002BE9D00222CAF8002037
:107E20009BF801108AF804109BF802001A49C0F36D
:107E3000400C8AF808C000F0010EC0F3800CC0F3BB
:107E4000C0008AF809E08AF80AC08AF80B009BF89B
:107E500003009BF804C040EA0C20AAF80C00DBF8F1
:107E60000900DBF80520DBF80DE0CAF818E0CAE9E4
:107E70000420D6F8C0009847B9E7D0F8F4310133B0
:107E8000C0F8F431BDE8F88FD6F8F8310133C6F800
:107E9000F831BDE8F88F00BF0C6E0020012A02D136
:107EA0000B78012B05D0D0F8F0310133C0F8F03158
:107EB00070470549D0F8BC20037200230B60002AEC
:107EC000F6D0D0F8C00010470C6E00200B78F82BCD
:107ED00031D1F0B5D0F8A86090F8AC3066B390F826
:107EE000AD70BB4228D21A014C78B45406EB031291
:107EF0008C785470CC7894704D68D1F808C0C2E981
:107F0000015C0D7B91F80DE0DFF838C045EA0E25E5
:107F100095818D7B9573C97BD1735268013362451E
:107F200008BF0527DBB208BF80F8AD70BB4280F800
:107F3000AC3001D2F0BD7047002286F85030C0E965
:107F40002822F0BD7FA69800802970B504463DD058
:107F5000812910D001B170BD284A2949406801F03B
:107F600043F9284AA0722849606801F03DF90123CD
:107F7000E072637270BD812A2ED85208EBD004F1F2
:107F80001D00191D04F12105AB4238BF884225D3DD
:107F9000042A23DD002AD8BF0122560803EB8606F7
:107FA000194651F8045B40F8045BB142F9D122F064
:107FB000010132F07E02CED004EB410413F811200F
:107FC000627703EB41035B78A37770BDBDE8704037
:107FD00019460C3007F08FB94022D0E71E3400213B
:107FE0005E1C13F8115000F8115016F8115004F8E7
:107FF000115001318A42F4DC70BD00BF2C14030023
:10800000341403004014030048140300FFF73CBE7F
:10801000002860D0F0B5334C054683B00F461646B5
:1080200000214FF4FE72204606F0B4FA0022FF232E
:108030002846C4E92F7625602272E37200F0D2FE52
:10804000606000284AD02849284E224600F0D2FF1E
:10805000274A60682346022101F0AAF8254B264AE8
:1080600060680094022100F0C9FF244B244A606834
:108070000094022100F0C2FF224B234A6068009462
:10808000022100F0BBFF214B214A606800940221CD
:1080900000F0B4FF1F4A60682346012101F088F810
:1080A0001D4B1E4A60680094012100F0A7FF206864
:1080B00003699847054608E0606801F067FA2068A0
:1080C00003699847401BB04202D8237A002BF3D0B3
:1080D000002003B0F0BD6FF0010070474FF0FF309B
:1080E000F7E700BFA8950020BD7B02003F0D03000D
:1080F000497F0200AD7D020040140300A97D02000B
:10810000541403000D800200601403000D7C020073
:108110006C140300B97B02009D7E02002C14030046
:10812000024BC3E931010020704700BFA895002031
:1081300070B51D4B0022C3E9002253F8AC1C9A60B5
:10814000A3F1AC0482B0C4F8A8000B6908469847B4
:10815000D4F8A05025BB154BC4F8A0304FF4806272
:10816000F926A4F8AC20E17A6068C4F8A450022390
:1081700001AAADF8046001F0CDF848B1C4E9285077
:1081800002B070BD606801F001FA20680369984789
:10819000D4F8A030002BF5D1D4F8A40002B070BD03
:1081A0006FF00200FAE700BF549600207814030035
:1081B00070B52DED028B0D46497A0170D5E900238B
:1081C0002A29C0E9022304463FD0EB7A43702B7B77
:1081D000013903F0030383702A2900F20181DFE8EB
:1081E00011F097004A023F029700C1009700AA01D0
:1081F0001801C10086019E0192017A014C013402EE
:10820000930028022B0093000201FD0102014C01A2
:10821000F6012B002B002B002B00FF0058019300D0
:108220002B002B002B002B00FF00FF00FF00FF00A6
:10823000C1001801FF00230205F10E0000F034FA1E
:10824000A0820020BDEC028B70BD002646708670B7
:1082500005F10A0000F030FA07EE900ADFEDED8A32
:108260009FEDED8AF8EEE77A05F10C0067EEA87A4B
:10827000C4ED057A00F020FA07EE900AF8EEE77AEE
:1082800005F10E0067EEA87AC4ED067A00F014FA44
:1082900007EE900AF8EEE77A05F1100067EEA87A8B
:1082A000C4ED077A00F008FA07EE900AF8EEE77AD4
:1082B00005F1120067EEA87AC4ED087A00F0FCF927
:1082C00007EE900AF8EEE77A05F1140067EE887A77
:1082D000C4ED097A00F0F0F907EE900AF8EEE77ABB
:1082E00005F1160067EE887AC4ED0A7A00F0E4F929
:1082F00007EE900AF8EEE77A304667EE887ABDEC32
:10830000028BC4ED0B7A70BDAB7B0375002099E73F
:1083100005F10E0000F0D0F907EE900A9FEDBF8A3C
:10832000B8EEE77A27EE087A05F1100084ED057AB9
:1083300000F0C2F907EE900AB8EEE77A05F11200F4
:1083400027EE087A84ED067A00F0B6F907EE900A77
:10835000F8EEE77A002067EE887ABDEC028BC4ED78
:10836000077A70BD05F10E0000F0A6F907EE900A3D
:108370009FEDA88AF8EEE77A05F1100067EE887A9B
:10838000C4ED057A00F098F907EE900AF8EEE77A66
:1083900005F1120067EE887AC4ED067A00F08CF9D8
:1083A00007EE900AF8EEE77A05F1140067EE887A96
:1083B000C4ED077A00F080F907EE900AF8EEE77A4C
:1083C00005F1160067EE887AC4ED087A00F074F9BA
:1083D00007EE900AFAEECA7A0020C4ED097A31E776
:1083E0004FF0FF302EE705F10E0000F065F9A08296
:1083F00005F1100000F060F9E08205F1120000F0D4
:108400005BF9208305F1160000F05CF9E0610020C3
:1084100018E705F10E0000F04FF907EE900A9FED06
:108420007D8AF8EEE77A05F1100067EE887AC4EDF0
:10843000057A00F041F907EE900AF8EEE77A05F1C7
:10844000120067EE887AC4ED067A00F035F907EE7F
:10845000900AF8EEE77A05F1140067EE887AC4ED29
:10846000077A00F029F907EE900AF8EEE77A002083
:1084700067EE887AC4ED087AE4E605F10E0000F0B4
:108480001BF907EE900AFAEEEC7A0020C4ED057AAB
:10849000D8E6AB7B03F07F02DB0902754375EB7B0B
:1084A000837500F1170205F11403934206D900F118
:1084B0001B0305F11002934200F2E8802B69C4F817
:1084C00017306B69C4F81B302B7EE3776B7E84F822
:1084D00020300020B6E605F10E0000F0EDF807EEC2
:1084E000900AFAEECE7A0020C4ED057AAAE605F1EC
:1084F0000E0000F0E7F807EE900AFAEEC67A0020C8
:10850000C4ED057A9EE605F10E0000F0D5F807EE01
:10851000900AFAEECC7A0020C4ED057A92E605F1D5
:108520000E0000F0CFF807EE900AFAEECC7A0020A9
:10853000C4ED057A86E605F10E0000F0BDF807EE01
:10854000900A9FED388AF8EEE77A67EE887A05F1AF
:108550001000C4ED057A00F0AFF807EE900AF8EECF
:10856000E77A05F1120067EE887AC4ED067A00F02A
:10857000A3F807EE900AF8EEE77A05F1140067EE2B
:10858000887AC4ED077A00F097F807EE900AF8EEC3
:10859000E77A05F1160067EE887AC4ED087A00F0F4
:1085A0008BF807EE900AF8EEE77A05F1180067EE0F
:1085B000887AC4ED097A00F07FF807EE900AF8EEA9
:1085C000E77A002027EE888A84ED0A8A3AE605F1E8
:1085D0000E0000F06FF86061002033E605F10E0038
:1085E00000F06AF8A08205F1100000F065F8E08262
:1085F00005F1120000F060F8208305F1140000F08E
:108600005BF8608305F1160000F05CF8E061002083
:1086100018E600BF000080380000803A0000803B70
:108620000000803D0000003BAB7BEA7B4275037598
:108630004FE705F10E0000F03DF8606105F1120012
:1086400000F038F820830020FCE505F10E0000F072
:1086500033F807EE900A1FED0E8AF8EEE77A74E71A
:1086600005F10E0000F028F807EE900A1FED148ABD
:10867000B8EEE77A56E605F10E0000F01DF807EEB9
:10868000900A1FED188AB8EEE77A4BE62B696A6903
:10869000C0F81B20C0F817302B7EC3776B7E80F8A4
:1086A000203016E7007870474278007840EA0220D0
:1086B000704700BF006870474378007840EA0320A5
:1086C00000B2704700687047802900D0704738B505
:1086D000054618461C4606F016FE072800D938BD88
:1086E000421C214605F10C00BDE8384005F044BFAE
:1086F000002900F0F4812DE9F04F2DED068B97B0A5
:108700002AB191F800900E46B9F1000F04D017B0CD
:10871000BDEC068BBDE8F08F0223012A83468DF85D
:1087200018908DF8389080F8243440F25083CDE9C9
:108730000029CDF80890CA464FF0010808F101035E
:108740009BB216F8087016F8039008F10204A4B260
:1087500004EB09087B1E1FFA88F83444082B00F24A
:10876000A880DFE813F03E013301900182019401FB
:10877000A0001901E200090021460EA806F0A8FD9C
:10878000019A0390072A00F29480342540F2245382
:1087900015FB023305FB02B55B4421461846C5F8BC
:1087A00020A50AEE903A06F0A6FD029985F8441538
:1087B0000BF2F27109EE901A0BF2C671002209EE6B
:1087C000101A0BF29A7108EE901AA5F81C250BF2FC
:1087D0002453C5F84825C5F84C250BF26E710BF2F1
:1087E000C4620AEE104A059608EE101A04971C4659
:1087F00016463BE0DBF80C5725B1BBF8E82697425C
:1088000000F06E81DBF8385725B1BBF8142797428A
:1088100000F07081DBF8645725B1BBF84027974220
:1088200000F07281DBF8905725B1BBF86C279742B6
:1088300000F07481DBF8BC5725B1BBF8982797424C
:1088400000F07681DBF8E85725B1BBF8C4279742E2
:1088500000F07881DBF8145825B1BBF8F027974277
:1088600000F07A813434A64200F0808154F8047C10
:10887000002363627B1CF5D0DBF8E056002DB9D0F5
:10888000BBF8BC269742B5D10BF2BE61204606F07C
:1088900028FD0028AED12C2303FB00B06562D0F880
:1088A000E436A362DEE72046FFF7FCFE00230190DA
:1088B0000293BBF8E0349A4578D0BBF8EC349A4583
:1088C00000F0F180BBF8F8349A4500F0F380BBF873
:1088D00004359A4500F0F580BBF810359A4500F054
:1088E000F780009B43453FF629AFBBF8E034534582
:1088F00000F05381BBF8EC34534500F05581BBF8D0
:10890000F834534500F06681BBF80435534500F058
:108910006881BBF8103553457FF4F9AEDBF8144598
:108920000422002C3FF4F3AE44E106AD2846214674
:1089300006F0CEFC9BF8DC34002BBAD0DBF8282400
:10894000524500F04682012BB3D0DBF84C2452454F
:1089500000F04182022BACD0DBF87024524500F0CD
:108960003C82032BA5D0DBF89424524500F03782DB
:10897000042B9ED0DBF8B834534508BF042398D1AC
:1089800003EBC303421B0BEB830303F22C400132C6
:10899000294605F0F1FD8CE72046FFF783FE012311
:1089A0000293BBF8E03401909A4586D1DBF8E45499
:1089B000002D82D0002303EB43030BEB83023946E7
:1089C000D2F8E80423464A46A8478AE72046FFF73C
:1089D0006BFE043880B2FF283FF66BAFABF8140093
:1089E00067E7BBF8E034534500F00281BBF8EC3494
:1089F000534500F00E81BBF8F834534500F0108168
:108A0000BBF80435534500F01281BBF810355345CF
:108A100000F014812046FFF74DFE9BF8DC348246BF
:108A2000002B00F01281DBF82824904217D0012B94
:108A300000F00B81DBF84C24904210D0022B00F0A8
:108A40000481DBF87024824209D0032B00F0FD8002
:108A5000DBF89424904202D0042B00F0F68000232F
:108A60008DF818308DF8383023E72046FFF71CFECC
:108A7000043880B2FF288ABF4FF48073ABF8160029
:108A8000ABF8163015E72046FFF70EFE11E720463B
:108A9000FFF70AFE043880B2B0F5C07FBFF409AF1B
:108AA000ABF8180105E7DBF8F054002D3FF40AAFEE
:108AB000012380E7DBF8FC54002D3FF408AF0223CC
:108AC00079E7DBF80855002D3FF406AF032372E782
:108AD000DBF814550423002D3FF403AF6BE7704718
:108AE0000BF2EA61204606F0FCFB00287FF48AAE18
:108AF0000120D0E60BF21671204606F0F2FB0028AA
:108B00007FF488AE0220C6E60BF24271204606F0E2
:108B1000E8FB00287FF486AE0320BCE618EE101AAE
:108B2000204606F0DEFB00287FF484AE0420B2E687
:108B300018EE901A204606F0D4FB00287FF482AE8F
:108B40000520A8E619EE101A204606F0CAFB0028F8
:108B50007FF480AE06209EE619EE901A204606F0BD
:108B6000C0FB00287FF47EAE072094E6019B049FA3
:108B7000059E342505FB03B5039BC5F820A50EAA69
:108B80009A1A1AEE900A01320EA905F0F5FC029B22
:108B900085F844351AEE104A8BE6DBF8E444002CE5
:108BA0003FF4A8AE002205E0DBF8F044002C3FF4CF
:108BB000A6AE012202EB42020BEB82020023D2F8A6
:108BC000E80419461A46A44617B0BDEC068BBDE86A
:108BD000F04F6047DBF8FC44002C3FF495AE0222D6
:108BE000E8E7DBF80845002C3FF493AE0322E1E709
:108BF000DBF8E454002D3FF4F9AE002303EB43030C
:108C00000BEB83020023D2F8E80419461A46A84762
:108C100000E7DBF8F054002D3FF4EDAE0123EDE763
:108C2000DBF8FC54002D3FF4EBAE0223E6E7DBF863
:108C30000855002D3FF4E9AE0323DFE7DBF81455B8
:108C40000423002D3FF4E6AED8E703EBC30140F266
:108C50002C400BEB8101242212FB030201338BF821
:108C6000DC34C1F828A40BF2F27109EE901A0BF271
:108C7000C671002008EE901A0BF29A710BF80200F0
:108C800009EE101A0BF224530BF2C4620BF26E7150
:108C90000AEE104A059608EE101A039004971C4637
:108CA000164633E0DBF80C571DB1BBF8E8269742B7
:108CB00049D0DBF838571DB1BBF8142797424BD089
:108CC000DBF864571DB1BBF8402797424DD0DBF865
:108CD00090571DB1BBF86C2797424FD0DBF8BC57BB
:108CE0001DB1BBF89827974251D0DBF8E8571DB16A
:108CF000BBF8C427974253D0DBF814581DB1BBF81A
:108D0000F027974255D03434A6425BD054F8047C07
:108D1000039B63627A1CF6D0DBF8E056002DC1D0CD
:108D2000BBF8BC269742BDD10BF2BE61204606F0CF
:108D3000D8FA0028B6D12C2303FB00B06562D0F826
:108D4000E436A362DFE70BF2EA61204606F0C9FAD7
:108D50000028AED10120EEE70BF21671204606F096
:108D6000C0FA0028ACD10220E5E70BF242712046A0
:108D700006F0B7FA0028AAD10320DCE718EE101A93
:108D8000204606F0AEFA0028A8D10420D3E719EE59
:108D9000101A204606F0A5FA0028A6D10520CAE739
:108DA00018EE901A204606F09CFA0028A4D106205E
:108DB000C1E719EE901A204606F093FA0028A2D1D6
:108DC0000720B8E7049F059E1AEE104A47E6CA46F8
:108DD0008BE50023D4E50123D2E50223D0E503236C
:108DE000CEE500BFF8B57D4C21780646002900F09D
:108DF0009180002E00F09680794C2568002D40F07F
:108E0000918040F634022946204605F0C3FB754B9D
:108E1000754F266093E8030004F2245282E80300B1
:108E200003CB4FF00123C4F8BE06C4F8C216636139
:108E300040F20111104601236C4AA4F8DC14C4E985
:108E40000155C4F8285484F82C54C4F8205584F8EB
:108E50004455A4F81C55C4F84C55C4F87C55C4F8C6
:108E6000B055C4F8E455C4F81856C4F84C56C4F8C4
:108E70008056C4F8B456A4F8E054C4F8E844A4F802
:108E8000BC56C4F8E42484F81C38C4F8E07604F234
:108E9000BE61C4F8E446C4F8485506F022FA00283A
:108EA00000F09780D4F854350022C4F87C25002BBC
:108EB00076D0D4F888350022C4F8B025002B7BD0BA
:108EC000D4F8BC350022C4F8E425002B38D0D4F8FF
:108ED000F0350022C4F81826002B3DD0D4F82436F3
:108EE0000022C4F84C26002B42D0D4F85836002279
:108EF000C4F88026002B47D0D4F88C360022C4F862
:108F0000B4268BB1012384F8243433683046984763
:108F10003348F8BD324840F6340205F03BFB0123EC
:108F2000237066E70020F8BD3149A1F12E0006F05C
:108F3000D8F90028E6D1C4F8B476C4F8B846E1E719
:108F40002B49A1F1FE0006F0CCF90028BFD1C4F8EE
:108F5000E475C4F8E845BAE72549A1F1CA0006F06E
:108F6000C0F90028BAD1C4F81876C4F81C46B5E791
:108F70001F49A1F1960006F0B4F90028B5D1C4F854
:108F80004C76C4F85046B0E71949A1F1620006F0EA
:108F9000A8F90028B0D1C4F88076C4F88446ABE7BD
:108FA0001349A1F5B37006F09CF9002881D1C4F8EB
:108FB0007C75C4F880457CE70D49A1F5997006F0F1
:108FC00090F900287FF47CAFC4F8B075C4F8B445BC
:108FD00076E7C4F84875C4F84C4563E75C76002032
:108FE000286E002084140300F1860200C986020066
:108FF000E6740020C0E90112704700BF002A00F0AB
:10900000D3802DE9F04F2DED028B984613780D4655
:1090100083B01146002B00F0C480044690F81C0871
:10902000072800F2BB802C2707FB0046431C84F86E
:109030001C3806F2BE60A6F8BC5606F05CF90E9B22
:10904000C6F8E43604F26E730197C6F8E08608EEBF
:10905000103A04F2245A04F2C46B04F2F27904F2D6
:10906000C67804F29A7734E0D4F80C571DB1B4F8FE
:10907000E8369E4270D0D4F838571DB1B4F8143792
:109080009E4272D0D4F864571DB1B4F840379E4266
:1090900050D0D4F890571DB1B4F86C379E4252D0DE
:1090A000D4F8BC571DB1B4F898379E4266D0D4F8B6
:1090B000E8571DB1B4F8C4379E4267D0D4F81458AD
:1090C0001DB1B4F8F0379E422CD00AF1340AD345D2
:1090D00022D05AF8046C0023CAF82430731CF4D050
:1090E000D4F8E056002DBFD0B4F8BC369E42BBD1B8
:1090F00004F2BE61504606F0F4F80028B4D1019B9A
:10910000CAF8245003FB00400AF1340AD0F8E436D0
:109110004AF80C3CD345DCD1002003B0BDEC028BF7
:10912000BDE8F08F4946504606F0DBF80028CCD168
:109130000720E4E704F24271504606F0D2F8002816
:10914000A7D10320DBE718EE101A504606F0C9F845
:109150000028A5D10420D2E704F2EA61504606F0C7
:10916000C0F8002887D10120C9E704F216715046E3
:1091700006F0B7F8002885D10220C0E739465046EE
:1091800006F0AFF8002892D10520B8E741465046D6
:1091900006F0A7F8002891D10620B0E74FF0FF3085
:1091A000BBE76FF00100B8E76FF00100704700BF48
:1091B00030B490F8DD44042C0CD804EB440500EBEB
:1091C0008505013480F8DD44A5F8E014C5F8E424F1
:1091D000C5F8E83490F82434022B04BF002380F84B
:1091E000243430BC0020704770B5044600F22C4097
:1091F00015460E4606F075F8E8B1314604F58A606A
:1092000006F06FF8002873D0314604F2744006F07F
:1092100068F800287AD0314604F5936006F061F8CA
:1092200040B1314604F2BC4006F05BF800286FD034
:10923000FF2070BD032000EBC00004EB8000D0F8DD
:109240002864731CF4D0294604F2245006F049F82F
:1092500018B9D4F820359E4248D0294604F5AB60B1
:1092600006F03FF818B9D4F854359E4242D029464A
:1092700004F28C5006F035F818B9D4F888359E42BF
:109280003AD0294604F5B86006F02BF818B9D4F89E
:10929000BC359E4232D0294604F2F45006F021F843
:1092A00018B9D4F8F0359E422AD0294604F5C56095
:1092B00006F017F818B9D4F824369E4224D029466F
:1092C00004F25C6006F00DF818B9D4F858369E42E6
:1092D00018D0294604F5D26006F003F80028A7D17B
:1092E000D4F88C36B34208BF0720A1D1C0B270BDFC
:1092F0000120A0E70120F9E70220F7E70320F5E7C6
:109300000420F3E70620F1E70520EFE7022092E7CB
:10931000042090E72DE9F04F2DED028B8246808AE4
:1093200089B0984201910392C0F02A8107299B4697
:1093300000F21E810A4634214FF0000901FB02A20F
:109340004B460592CDF80890BBF1000F00F00A8162
:10935000BAF81640043CA4B25C4528BF5C46271D01
:10936000BFB28AF818703A0A0BB162F07F02059911
:10937000019B8AF819208AF81A3091F81C355A1C7A
:1093800081F81C258AF81B30DDE90253D0462246BD
:1093900059190AF11C0005F0EFF858F8180BABEB5F
:1093A000040B2C44A4B2C368029441463A461FFA07
:1093B0008BFB984758BB0AF5297308EE103A0090CA
:1093C00010E0DAF8000018EE101A846807AB4FF4CA
:1093D000C072A04748BBDAF800003A46C36841466D
:1093E0009847A0B99AF82444009B0793002CE8D131
:1093F0004FF001038AF82434634A02232146504681
:10940000FFF788FF0028DCD08AF82444D9E7002839
:109410004FF0010398DADAF820380133CAF820381F
:1094200009B0BDEC028BBDE8F08F84B2032C76D975
:109430009AF8A5229AF8A43247F6FC7103EB0223AE
:109440000B429DB25CD09AF8A632072B49D89AF805
:109450001C18994245D9BAF81A0107999AF8A792A7
:10946000C5F30E0520B112066ED4009AAAF81A218F
:10947000B5F5C07F59D8009ACAF8A012AAF89E2262
:109480008AF81C311E460020AC4228BF2C460AF246
:109490001D13221F18440AF52A71049305F06CF875
:1094A000BAF89E22043A2D1B2244ADB292B2AAF819
:1094B0001A51AAF89E2265B9342303FB06A0D0F8FE
:1094C000485535B1049BD0F84C051946DAF8A0325E
:1094D000A847342303FB06A609F1010986F81D9568
:1094E00079E7DAF82C38DAF804200133CAF82C3896
:1094F000002A3FF470AFDAF80800032190476AE7CA
:10950000DAF82438DAF804200133CAF82438002ABB
:109510003FF461AFDAF80800012190475BE7DAF821
:1095200024380133CAF8243855E7DAF82838DAF84D
:1095300004200133CAF82838002A3FF44CAFDAF887
:1095400008000221904746E79AF81C619E428CD1A0
:10955000342202FB06A292F81D254A4585D1BAF8AD
:109560009E0291E7584609B0BDEC028BBDE8F08F32
:10957000DAF830380133CAF830386FF001004FE7BD
:109580006FF001004CE700BF8C1403002DE9F0439D
:1095900083B090F824540023044601935DB1206801
:1095A00001AB85684FF4C07204F52971A84778B9FA
:1095B00003B0BDE8F083012380F82434524A02232B
:1095C0002946FFF7A7FE0028E9D084F82454E6E7EF
:1095D00080B2032862D994F8A52294F8A43247F601
:1095E000FC7103EB02230B429DB24BD094F8A632E0
:1095F000072B5BD894F81C18994257D9B4F81A1164
:10960000DDF804C094F8A762C5F30E0800295AD10A
:10961000B8F5C07F5DD8002284F81C311F46C4F81D
:10962000A0C2A4F89E221346404528BF404604F23B
:109630001D190546021F04F52A7109EB030004F009
:109640009BFFB4F89E22043AA818A8EB05081FFA5D
:1096500088F582B2A4F81A51A4F89E225DB9342389
:1096600003FB0743D3F848552DB1D3F84C05D4F884
:10967000A0324946A847342303FB0744013684F847
:109680001D6595E7D4F8243862680133C4F824389E
:10969000002A8DD0A0680121904789E7D4F82438AA
:1096A0000133C4F8243803B0BDE8F083D4F82C3873
:1096B00062680133C4F82C38002A3FF479AFA068FF
:1096C0000321904774E7120610D40022A4F81A214F
:1096D0009EE7D4F8283862680133C4F82838002A95
:1096E0003FF466AFA0680221904761E794F81C71CF
:1096F0009F42EAD1342202FB074292F81D25B24272
:10970000E3D1B4F89E328FE78C1403000F49104A5E
:109710001048114B70B44D6A0C6A15730125106026
:10972000886A15714E6E947350734C6F886E0B4D32
:109730001E7300219C735873D17311821971D973F0
:1097400019821D60916070BC9960704744150300D8
:109750006076002000F00240747600200030024065
:109760000022C2770270704710B4084A084C0949B9
:1097700002620022C0E90A41C0E90C225DF8044BF4
:109780000270C27742628263704700BFFF0101002E
:109790002000F40020001E0010B44FF010144FF40D
:1097A00048010022C0E90041C0E902225DF8044BF3
:1097B000704700BFAADF7047ABDF7047B0DF70476C
:1097C00010B5044B044640F8043B00F07FFB2046F4
:1097D00010BD00BF9C14030010B5054B044640F8B3
:1097E000043B00F073FB204603F0EAFC204610BD6A
:1097F0009C14030070B57B4B04461B68836196B0D4
:10980000043000F099FB94F82E30A06913F0320276
:1098100008BF84F82F2013F00C0308BF84F8303001
:109820000DF10102694600F047FB94F82F209DF8E6
:10983000010015070DD09DF8001002F00F0301F094
:109840000F059D424FEA12126DD243EA021284F8CC
:109850002F2094F8303019070BD003F00F0100F0DF
:109860000F058D424FEA131369D241EA031384F8BE
:10987000303094F82E1011F0300340F096800FAD88
:109880000F93C5E90133C5E903338DF83C10AB6193
:109890000021ADF809109DF80A10206A14930123E5
:1098A00063F342018DF808208DF80A1008B103789F
:1098B00073BB94F8263013B104F12603129394F885
:1098C00031200023D2070893079358BFE38AADF8ED
:1098D0001C3004F1080004F12F01CDE9050154BF4B
:1098E0001846E08AADF82000294604F13203E56904
:1098F000099505AA0020FFF75DFF054628B994F8F1
:10990000253043BB237D002B64D0284616B070BDA4
:10991000109005F0F8FC02AB80B2ADF84400ADF851
:1099200046001393C5E74FEA111101D191428CD340
:109930000A462B4643EA021284F82F2089E74FEAB1
:10994000101001D1984290D30346294641EA0313EF
:1099500084F830308DE7ADF80D009DF80E2094F8B6
:109960002F600C90012363F3420242F608118DF838
:109970000E208DF8123004AA0223ADF8101003A9AE
:109980000D90ADF83030ADF834300A9204F1240374
:109990000B910DF102020AA98DF80C600E93FFF7EE
:1099A0000BFF0028AED00546AFE70F4B8DF8052022
:1099B0000FAD1B788DF80430022000230F938DF833
:1099C0000600C5E90133C5E90333AB618DF83C10EE
:1099D00001AB5DE72146054800F0D6F9284616B0F0
:1099E00070BD00BF8876002090140300CC7A002060
:1099F0002DE9F0410B888E88502B8AB00C46054625
:109A000009D0512B04D18B79012B19D0022B26D0F0
:109A10000AB0BDE8F081CB88428E9A4235D0EA8EFA
:109A20009A42F5D16B6D002BF2D095F84420648AF0
:109A3000920700F18A802246294630469847E7E798
:109A4000836C002BE4D090F84420520701F1080702
:109A50006CD43A46294630469847A379D6E7A27B8C
:109A6000042A46D0062A20D0012AD1D1EB6C002B43
:109A7000CED095F84420170704F1080400F1A58022
:109A80002246294630469847C2E7076D002FC6D0C8
:109A900090F84430D90768D404F11208238A42466A
:109AA00029463046B847E388B9E7EA6B002AAFD0C9
:109AB000002202A93046CDE90222CDE90422ADF808
:109AC0000C208DF80830FFF779FE2C6D54B195F815
:109AD0004430D80700F19280B5F84230EA6B304646
:109AE0002946A047E86B01F0EBFF0023C5E90F33DF
:109AF0008EE7E86B002878D0B5F84010278A628A94
:109B000007EB020C00234FF0020E8C45CDE9063323
:109B1000CDE908338DF818E039DD40F20913ADF8CE
:109B20001C3006A93046FFF749FE71E703211A46AB
:109B3000009106AB08213846CDE90665089703F089
:109B400081FD002889D1AB6C83E7032000211A46F0
:109B5000009006AB0846CDE90665089403F072FD57
:109B600000287FF455AF6B6D65E7218A069604F1F6
:109B70001208042300933A46404606ABCDE908811B
:109B8000079503F05FFD00288DD12F6D86E79DF8C6
:109B90001EC0ADF81C3004F114014CF00103384430
:109BA000ADF822208DF81E300991ADF8207004F038
:109BB000E3FC238A618AB5F842200B449BB29342AE
:109BC00038BF1346A5F84230ABE703211A4600918F
:109BD00006AB0E212046CDE90665089403F032FD60
:109BE00000287FF415AFEB6C4AE74FF4806001F07A
:109BF0004DFF4FF48061C5E90F017FE7E86BB5F8D1
:109C00004210069604230093224606ABCDE9075086
:109C1000099103F017FD00287FF464AF2C6D5BE71A
:109C200070B44E68164A86600260D1E90262154B34
:109C3000154D1C7845600261142500220321C0E9FE
:109C40000F22C0E91222C0E91422C660C58280F842
:109C5000311080F844200275826102628284C0F86B
:109C60002620C0F82A2080F82E20C2614286426356
:109C7000028780F82F4080F8304070BC704700BFEA
:109C80009C14030090140300D414030070B480F8F3
:109C90002E201C4A02601C4A42604A688260D1E958
:109CA00002621A4C9DF80C502478026114210022A3
:109CB000C1820321C0E90F22C0E91222C0E91422A7
:109CC000C66080F844200275826102628284C0F816
:109CD0002620C0F82A20C26142864263028780F8AB
:109CE0002F4080F8304080F8311045B19BB223B14D
:109CF00062F3000180F83110C38270BC704770BC01
:109D0000C38270479C140300D41403009014030012
:109D100080F82E10704700BF41B190F83130C182F9
:109D2000002262F3000380F83130704790F8313040
:109D3000012262F3000380F83130704780F82F1061
:109D400080F83020704700BF10B50446043000F0A2
:109D5000FBF9034B236000232375204610BD00BF91
:109D60000100FFFF10B5044600F5F87000F0ECF9B3
:109D70002046F822002104F00DFCF822A018002152
:109D800004F008FC204610BD90F85420272A0CD877
:109D900010B4034602F11604013280F8542043F84F
:109DA000241001205DF8044B70470020704700BF6D
:109DB0000378132B06D800EB8302013303700120D4
:109DC0005160704700207047054A034692E803003F
:109DD000002283E80300C3E902221846704700BF4F
:109DE000AC14030030B40D4CC4621F250022502473
:109DF0008584A025C0E91122C0E90F22A0F84650B1
:109E0000A0F84840006230BC8262028680F83820A8
:109E10004263C264A0F85020704700BF0001800078
:109E200010B50446083000F0A5F9074B2360032263
:109E300000232271C4F81034C4F81434C4F8183460
:109E4000C4F81C34204610BD35071003A8DF704746
:109E5000704700BF30B5044683B0083000F06CF89E
:109E600004F10C010DF106020120FFF7EFFF05469A
:109E700028B9044B04481C602146FFF799FF284687
:109E800003B030BD88760020CC7A002030B44C6816
:109E9000C460D1E90241054A054D0260054A85606A
:109EA000C0E90441426030BC704700BFBC140300ED
:109EB000D41403000000111183790B70C37913705F
:109EC000704700BF62DF704763DF7047704700BFB5
:109ED00010B5044603F074F9204610BD10B4054CCB
:109EE0008180002201210460C0E902225DF8044B58
:109EF00081717047D414030038B50E4B03600446DB
:109F000008460D4605F0FFF9042806D00023A3718A
:109F1000E560A380A360204638BD284610220021BA
:109F200005F076FA01220023A271A080C4E9023371
:109F3000204638BDD41403002DE9F047857982B05E
:109F4000002D47D1C7680646002F47D0102001F0EA
:109F50009DFD8246384605F0D6F9441E30B3DFF841
:109F60008490A84604E00134023C1FD4102D1DD07B
:109F700017F804C0BCF12D0F07EB0402F3D099F8D9
:109F80000030ADF805808DF8043012F8013C8DF8F2
:109F900004301022002101A88DF805C005F038FA20
:109FA0006B1C023C0AF80500DDB2DFD5C6F808A03C
:109FB000BAF1000F0ED0B11D5046FFF783FFB16814
:109FC000321D1020FFF780FFB0FA80F0400902B088
:109FD000BDE8F087012002B0BDE8F087D0F808A006
:109FE000E6E700BFC814030038B50446FFF7ECFEEF
:109FF00004F11000FFF7D0FB04F12000FFF710FF81
:10A0000004F58860FFF7AEFE04F5C860FFF7ACFB0F
:10A0100004F27C60FFF7A4FB04F29C60FFF7E2FE11
:10A0200004F5DE60FFF790FE4FF480530025C4F87E
:10A03000083716481649174AC4F80C0740F20113AE
:10A04000C4F81017C4F81427A4F81837A4F81A573E
:10A0500004F234702946502204F09CFA01224FF693
:10A06000FF73A4F81C5784F81E57C4F82457C4F88B
:10A070002857C4F82C57C4F88857C4F8845784F874
:10A080003027A4F83237204638BD00BF010A170038
:10A09000030001011700030010B5064C0021D4F89D
:10A0A000280702F01DF8D4F824070021BDE810406D
:10A0B00002F016B88C7600200148FFF795BF00BF6C
:10A0C0008C76002030B585B0044641F60F01684615
:10A0D000FFF704FF69462046FFF7D8FE254668468D
:10A0E000FFF7F4FE084B45F8183B684642F6192185
:10A0F000FFF7F4FE69462846FFF792FD6846FFF732
:10A10000E5FE204605B030BDE414030030B583B051
:10A110000446FFF79FFE08B103B030BD054612218B
:10A1200004F118000190FFF7F3FD01982A46112170
:10A13000FFF704FE01980121FFF7EEFD019803B03F
:10A14000BDE83040FFF756BB002201214270C0E954
:10A1500001220170C2818281704700BF10B5044C9A
:10A16000204600F00BF8002384F8E83010BD00BF53
:10A17000187E002000220260704700BF002280F895
:10A18000E420704738B500F097F940B10024054647
:10A190002046013400F018FAE0B28542F9D838BD03
:10A1A00070B592B01D460C46164601A84222002109
:10A1B00004F0F0F9412D5CD9631C0222DBB28DF86A
:10A1C00006408DF80E408DF8264040F6083540F2E6
:10A1D00002248DF81E308DF827308DF83130ADF81F
:10A1E00004508DF807208DF812208DF833208DF85B
:10A1F0003B20ADF80840204A069240F20125052395
:10A200002424ADF810508DF815308DF81640042335
:10A210001A4C8DF81F30012540F224628DF81C5035
:10A220008DF830300894ADF82420154D0A95082398
:10A230004FF411640A228DF82C30ADF82E404023E3
:10A240008DF834200F4C8DF83C3001A9304640F297
:10A25000075540F209464222ADF80C60ADF838507F
:10A260008DF84330CDF83F4004F086F9422012B01B
:10A2700070BD002012B070BD20010524240202052B
:10A280000705800307058002007EFF280AD010B56D
:10A2900000F048F9044608B1204610BD03F052F919
:10A2A000204610BD00207047007EFF280ED000B56C
:10A2B00083B00DF1070100F07DF920B19DF8070092
:10A2C00003B05DF804FB4FF0FF30F9E74FF0FF30CB
:10A2D000704700BF007EFF280FD000B583B0012279
:10A2E0000DF1070100F02AF920B19DF8070003B035
:10A2F0005DF804FB4FF0FF30F9E74FF0FF30704797
:10A30000007EFF2801D000F05FB97047007EFF2873
:10A3100001D000F0B9B90020704700BFF8B506467B
:10A32000007EFF281CD017465AB10D46144600F097
:10A33000E3F82946224680B1307E00F089F9241ADC
:10A3400001D13846F8BD054403F0FCF8307E00F03A
:10A35000D3F8294622460028EED13F1B3846F1E7C4
:10A360000020F8BD70B50368184A5B6882B093425C
:10A370008DF8071021D10546007EFF2823D000F07C
:10A38000BBF80DF1070601243146224688B1287E2C
:10A3900000F05EF9241A02D1012002B070BD06441B
:10A3A00003F0D0F8287E00F0A7F8314622460028B6
:10A3B000EDD1C4F1010002B070BD01220DF1070121
:10A3C000984702B070BD002002B070BD1DA302000E
:10A3D00070B592B01D460C46164601A842220021D7
:10A3E00004F0D8F8412D5CD9631C0222DBB28DF851
:10A3F00006408DF80E408DF8264040F6083540F2B4
:10A4000002248DF81E308DF827308DF83130ADF8EC
:10A4100004508DF807208DF812208DF833208DF828
:10A420003B20ADF80840204A069240F20125052362
:10A430002424ADF810508DF815308DF81640042303
:10A440001A4C8DF81F30012540F224628DF81C5003
:10A450008DF830300894ADF82420154D0A95082366
:10A460004FF411640A228DF82C30ADF82E404023B1
:10A470008DF834200F4C8DF83C3001A9304640F265
:10A48000075540F209464222ADF80C60ADF838504D
:10A490008DF84330CDF83F4004F06EF8422012B002
:10A4A00070BD002012B070BD2001052424020205F9
:10A4B0000705800307058002014B1878704700BF2D
:10A4C000207F002030B4084B084AFF2002F1080525
:10A4D0004FF47A740021303218761D609C601A6146
:10A4E00030BC596059617047047F0020F0140300AC
:10A4F000002000F017BD00BF10B5044600F01AFAA6
:10A5000008B9002010BD00F01DFA0028F9D1044858
:10A510004FF45A7303FB0400007900F0010010BDF2
:10A52000247F002008B5044B4FF45A7202FB003020
:10A53000103000F0B5F808BD247F00202DE9F0416F
:10A540004FF45A7505FB00F5194F05F110043C4412
:10A5500092B2204600F0C6F80646204600F0B0F859
:10A560003F2802D83046BDE8F08107EB05080020FF
:10A5700098F8031000F038FB0028F3D0204600F0D4
:10A580009FF83F280BD905F53A7298F803103A4422
:10A590004023002000F08CFB3046BDE8F08198F8A5
:10A5A0000310002000F058FB3046BDE8F08100BFEA
:10A5B000247F0020034B4FF45A7202FB003010300E
:10A5C00000F002B9247F00202DE9F041044600F09C
:10A5D000B1F910B90020BDE8F08100F0B3F90646EA
:10A5E0000028F7D14FF45A71DFF8608001FB04F4C2
:10A5F00004F12C054544284600F052F80028E9D023
:10A6000008EB04073046B97800F0EEFA0028E1D0F4
:10A6100004F54A74444428462146402200F062F87A
:10A62000054660B1B978224630462B4600F040FB23
:10A6300040B9054B1B68DB07CCD500BECBE7B9782A
:10A6400000F00AFB2846C6E7F0ED00E0247F00207A
:10A6500038B50C4B4FF45A7404FB00342C3492B2CE
:10A660000546204600F0F0F8034620461C4600F060
:10A6700017F83F2801D8204638BD2846FFF7A4FF29
:10A68000204638BD247F002008B5044B4FF45A7291
:10A6900002FB00302C3000F013F808BD247F0020AE
:10A6A000C189028A89B292B28B1A91429BB202D2BC
:10A6B00042899B1A9BB28088984228BF18467047EF
:10A6C000C189028A89B292B28B1A914210B49BB2AC
:10A6D000848802D240891B1A9BB2E01A80B25DF8CE
:10A6E000044B70472DE9F04705468069884691463E
:10A6F00018B14FF0FF3101F07FFEEB892C8A9BB23D
:10A70000A4B21E1BA342B6B202D26A89B61AB6B26E
:10A71000AF88B74209D2BB4249D26A893A449B1AF0
:10A720009AB22A822C8A3E46A4B2002E45D04E45CB
:10A7300028BF4E46A74203D8E41BA4B2A742FBD9C8
:10A74000A7EB0409B5F806A029681FFA89F94E4558
:10A750000AFB041125D919FB0AF91FFA89F94A469F
:10A76000404603F009FFF21B224412FB0AF229685B
:10A7700092B208EB090003F0FFFE2A8A92B2931905
:10A780009BB29A421BD96A8913449BB2A8692B8257
:10A7900020B100231A46194601F03EFA3046BDE8C2
:10A7A000F0870AFB06F2404603F0E6FEE5E7A989DA
:10A7B000DA1B92B29142B4D2AFE72B8A9BB2AA893C
:10A7C0009A42E3D2DFE700BF70B5044680690E46C7
:10A7D00018B14FF0FF3101F00FFEE289238A92B2E7
:10A7E0009BB2D01A9A4280B202D26189401A80B2DA
:10A7F000A588854207D2AA421DD261892944521AEE
:10A8000091B221822846E0B1AB4203D35B1B9BB2DD
:10A810009D42FBD9E2882168304602FB031103F018
:10A82000ABFE0125A06920B100231A46194601F0AC
:10A83000F3F9284670BDA089511B89B28842E0D245
:10A84000DBE70546EEE700BF2DE9F84F1546002A85
:10A850003FD004464069884618B14FF0FF3101F0FF
:10A86000CBFDE789237A218ABFB289B2A3BB7A1ACA
:10A870008F42A38892B252D39A1A92B2954228BFBD
:10A880001546A5EB0309B4F806A01FFA89F99F4203
:10A890003E4603D3F61AB6B29E42FBD29B1B2068FB
:10A8A0009BB29D420AFB060027D80AFB05F24146EF
:10A8B00003F062FEEB199BB29F421AD8A2899A421A
:10A8C00017D36069E38120B100231A46194601F0CD
:10A8D000A3F92846BDE8F88FA3889D4223D3B4F896
:10A8E00006A0ED1A0AFB05880F461D464FF0000929
:10A8F000CDE7628913449BB2E3E713FB0AF31FFA27
:10A9000083FB5A4641464E4403F036FE16FB0AF2DC
:10A91000206808EB0B0192B203F02EFECAE76189B2
:10A92000521A92B2A8E7A5EB0309B4F806A01FFAE1
:10A9300089F9ACE7024B5878003818BF01207047FE
:10A940008C820020024B1878C0F38000704700BF53
:10A950008C82002030B589B000248D1ECDE90244E0
:10A9600004948DF809108DF80800032D5CD8DFE8F9
:10A9700005F0082C48023B4B1978C80761D409B090
:10A9800030BD384938480B7800686FF300030B700E
:10A990000C7800236FF341040C704B700C7863F358
:10A9A00082040C70002A37D002A905AA01F01AFB14
:10A9B000059B002BE3D02D4B4FF080525A6040BFD7
:10A9C000BFF34F8FBFF36F8FD9E7264B1978490735
:10A9D000D5D51978244C6FF3820119700023052115
:10A9E000CDE9053307938DF814008DF81510206814
:10A9F000002A2FD1134605A94FF0FF3201F00CF9C0
:10AA0000BDE7184B1978CC07B9D51978164841F02D
:10AA10000401006819705AB9134602A94FF0FF32B9
:10AA200001F0FAF809B030BD0F4B1868002AF3D0D6
:10AA3000002302A905AA01F0D5FA059B002B9ED0A0
:10AA4000B9E7197808486FF3820100681970002A85
:10AA5000EED1E1E705A901AA01F0C4FA019B002BA0
:10AA60008DD0A8E78C820020C882002000ED00E095
:10AA700030B5144D85B000240123CDE90144039481
:10AA80008DF804008DF8081028688DF805303AB963
:10AA9000134601A94FF0FF3201F0BEF805B030BDFA
:10AAA000234601A96A4601F09DFA009B002BF5D0D0
:10AAB000054B4FF080525A6040BFBFF34F8FBFF33A
:10AAC0006F8FEBE7C882002000ED00E030B50B4649
:10AAD00085B0044649681868124D8DF8044002ACF0
:10AAE00003C4002306212868ADF806308DF8051050
:10AAF0003AB9134601A94FF0FF3201F08DF805B0C5
:10AB000030BD6A4601A901F06DFA009B002BF6D01A
:10AB1000054B4FF080525A6040BFBFF34F8FBFF3D9
:10AB20006F8FECE7C882002000ED00E030B585B003
:10AB3000164D03929DF820402D680022CDE9012298
:10AB40008DF8081007218DF804008DF809308DF874
:10AB5000051044B9234601A928464FF0FF3201F001
:10AB60005BF805B030BD134601A928466A4601F0DE
:10AB700039FA009B002BF4D0054B4FF080525A60FD
:10AB800040BFBFF34F8FBFF36F8FEAE7C88200204B
:10AB900000ED00E030B5124D85B000230824CDE96A
:10ABA0000201019328688DF805403AB9134601A9BE
:10ABB0004FF0FF3201F030F805B030BD6A4601A910
:10ABC00001F010FA009B002BF6D0064B4FF080529C
:10ABD0005A6040BFBFF34F8FBFF36F8FECE700BFEA
:10ABE000C882002000ED00E0F8B5194B01F07F04A9
:10ABF00003EB440303EBD11101F12004607910F061
:10AC0000010519D163795A07C3F3800701D5284696
:10AC1000F8BD104E4FF0FF31306801F0EDFB607968
:10AC200010F001050BD163795B0709D4637943F018
:10AC300004036371012503E000252846F8BD3D4665
:10AC4000002330681A46194600F0E6FF2846F8BD92
:10AC50008C820020C482002038B5134D0C46286831
:10AC60004FF0FF3101F0C8FB104B04F07F0103EB04
:10AC7000410303EBD41120314B7913F0010310D1C0
:10AC80004A79C2F38004520703D54A7963F38202FA
:10AC90004A71002328681A46194600F0BDFF204675
:10ACA00038BD0024F5E700BFC48200208C8200205C
:10ACB00070B5144D01F07F0605EB460505EBD11488
:10ACC00020346579ED0706D50F4B1B68DA0700D5F0
:10ACD00000BE002070BD657945F00105657100F08A
:10ACE00079F80028F6D16379074A60F300036371AD
:10ACF000637960F3820363711368DB07E9D500BEF3
:10AD000070BD00BF8C820020F0ED00E02C4B5B6832
:10AD1000C3F3080313B9EFF310839BB1294B93F8E6
:10AD2000D820002A36D1012283F8D8200260BFF350
:10AD30006F8FBFF34F8F244A904227D0043A90423E
:10AD400024D07047214A53681B06E7D5802110B4F0
:10AD5000C2F88410BFF34F8FBFF36F8F194B93F876
:10AD6000D840E4B9012283F8D8200260BFF36F8F86
:10AD7000BFF34F8F144A90421DD0043A90421AD02C
:10AD8000124B80225A605DF8044B7047002283F812
:10AD9000D8207047014601220D48FFF7FBBE5160E5
:10ADA000C2F88410BFF34F8FBFF36F8F93F8D84072
:10ADB000002CF4D1D6E7002283F8D820E0E700BFCA
:10ADC00000ED00E0CC8200205070024000E100E085
:10ADD0000DAD0200F0B501F07F00CF090D467C00FB
:10ADE00000EB4001DFF838C1C9003C4401EB8404AA
:10ADF0000CEB040E1E460023AEF806304CF804207F
:10AE000083B0AEF80460430040B127BB0CEB0103F4
:10AE10009A7A002A48D1012003B0F0BDD6B93A4A47
:10AE2000D2F88024C2F3C012974213D03748FFF7FC
:10AE30006DFF374B5B68C3F30803003B18BF01236A
:10AE400000933046294633463246FFF76FFE012015
:10AE500003B0F0BD17B303440CEBC30C00EB80034D
:10AE6000BCF81210BCF81020BCF81440DCF80C50F0
:10AE7000521A9B0092B203F1804303F51C3325491B
:10AE8000C3F80056A24228BF224601EB8000C3F857
:10AE90000426FFF73BFF012003B0F0BD1E48FFF77B
:10AEA00035FF012003B0F0BD08289F720ED1164B6C
:10AEB000D3F8C024D103AED4DCF8C010C3F8A01777
:10AEC0001648C3F8A427FFF721FFA4E75CF8015058
:10AED0000D4C9A8800F5947100EB800654F821100F
:10AEE000DB88D31A9BB289B204EB86028B4204F151
:10AEF000280428BF0B46C2F8005704EB8000C2F8B4
:10AF00000437FFF703FF86E70070024050700240ED
:10AF100000ED00E0047002404C70024048700240B6
:10AF2000CC8200202DE9F04F854B8648D3F80013E2
:10AF3000002387B01F461D46012421FA03F2D607DD
:10AF40000BD550F8232042B104FA03F240F8235005
:10AF50001743BFF36F8FBFF34F8F0133192BECD122
:10AF6000FC0700F1C781784E380508D5744BD3F83B
:10AF7000A83601229BB2A6F8D23086F8D720B902B3
:10AF800014D56F4CD4F81435DA0500F10482D4F8E6
:10AF90001035DB0540F1098296F8D730002B40F0E0
:10AFA0003482012203210020FFF7D4FC79021FD54F
:10AFB000634BD3F8004404F4E062C3F80024E205D4
:10AFC00000F1DE81650510D55D4B0122C3F808252F
:10AFD0009A65D3F8002312F4001208BFC3F8542175
:10AFE000574B4FF40012C3F80423A00500F1C281AF
:10AFF00039022BD5524BD3F88024D2B28DF81020D1
:10B00000D3F88414C9B28DF81110D3F888048DF8E0
:10B010001200D3F88C048DF81300D3F890048DF847
:10B020001400D3F894048DF81500D3F898048DF823
:10B030001600D3F89C348DF81730520601D105293B
:10B0400004D0012204A90020FFF740FD3F4B3B4004
:10B050003BB196F8D830002B00F08581002386F8AC
:10B06000D830DFF8E490DFF8D8A002974D460024EE
:10B07000C8460DE0B2F806C0A5F804C0D288012782
:10B08000009792B2FFF752FD082E3DD001341835DB
:10B09000029B04F10C0223FA02F204EB440C04EBD1
:10B0A000840E08EBCC0C0023E6B212F0010F0AEB81
:10B0B0008E0E624631461846E6D0DEF808E72F6865
:10B0C0005FFA8EFE07EB0E0BC5F800B0BCF806B0B9
:10B0D0001EFA8BFB1FFA8BFB082CACF806B01FFA8C
:10B0E0008EFEC7D0B5F808B0F345C3D1BCF806C092
:10B0F000B5F804E01FFA8CFCE645BBD9002EC3D19D
:10B100001348FFF703FEC1E7029F124B3B40464640
:10B11000002B00F0CA800A4BD3F86C84C3F86C840F
:10B12000BFF36F8FBFF34F8F17F4806740F0C0807D
:10B13000CDE90277024FDFF820A0002416E000BF1F
:10B140000070024000710240CC820020FCFB1F0016
:10B150004C7002400004000104700240002C00F01A
:10B16000BC80072D3DD0013409F1180928FA04F3F9
:10B1700004EB840C04EB440213F0010F07EB8C0C7E
:10B1800006EBC202E5B24FEA8400E7D0DCF808160D
:10B19000D9F80C30C9B203EB010BC9F80CB0538AD3
:10B1A00011FA83F39BB25382518AB9F810E089B245
:10B1B00071454FF00003504445F0800180F08580D8
:10B1C000538AB9F81420CCF800B6AEEB03039BB257
:10B1D000934228BF1346CCF80436FFF797FD072D9E
:10B1E000C1D118F4803F7DD1039B002B7AD118F494
:10B1F000003F08D0F28BB38B92B2934200F2F28000
:10B20000012386F8223018F4802F08D0F38EB28EF6
:10B210009BB29342C0F00681012386F83A3018F4BD
:10B22000002F0AD0B6F84E20B6F84C3092B29A42AF
:10B23000C0F00B81012386F8523018F4801F0AD029
:10B24000B6F86620B6F8643092B29A42C0F0118126
:10B25000012386F86A3018F4001F0AD0B6F87E3051
:10B26000B6F87C209BB29342C0F02181012386F87E
:10B27000823018F4800F0AD0B6F89630B6F89420D1
:10B280009BB29342C0F02781012386F89A3018F4CC
:10B29000000F0AD0B6F8AE30B6F8AC209BB293429D
:10B2A000C0F02E81012386F8B23007B0BDE8F08FE0
:10B2B000D3F88024D3F8803483F08003C3F3C01321
:10B2C0000393C2F3C013029334E7528A0120009023
:10B2D00092B21846FFF72AFC43E7029B002B3FF48B
:10B2E00042AF53E7F388B2889BB29A4267D80123F2
:10B2F000B3727CE78D4B8E4A8E4E8F480024012519
:10B30000C2F81455C2F81055546094625C609C6297
:10B310009C60DC62DC601C631C615C635C619C6340
:10B320009C61DC63DC611C6454629464C2F8584123
:10B33000D2F80034D2F800140B43C2F80034D2F82B
:10B340000033C2F808332146C2F804033046DC2239
:10B3500003F020F940232A4621462046B382338158
:10B36000FFF786FB00E6754B1B68DB077FF579AEC0
:10B3700000BE76E6012205210020FFF7EBFA37E652
:10B380000122C3F82C2504210020FFF7E3FA65050C
:10B390007FF52BAE18E6D4F8C034DD037DD5D4F8A4
:10B3A0001035D8053FF5F8ADFBE54FF40013C4F8B0
:10B3B0000833012203210020FFF7CCFAF6E55C49AF
:10B3C0003468D1F8A004F388C1F80047D31A9BB2BF
:10B3D00082B2934228BF13465948C1F80437FFF799
:10B3E00095FC04E7524AB469D2F8A414F08BC2F871
:10B3F00014471B1A9BB289B28B4228BF0B46514897
:10B40000C2F81837FFF782FCFDE6B6F8D220002319
:10B410000121009192B21846882186F8D730FFF7B3
:10B4200085FBBEE54249346BD1F8A804F38EC1F820
:10B430002847D31A9BB282B2934228BF1346424890
:10B44000C1F82C37FFF762FCE9E6394AB46CD2F850
:10B45000AC14B6F84E00C2F83C471B1A9BB289B236
:10B460008B4228BF0B463948C2F84037FFF74EFCE5
:10B47000E3E62F4A346ED2F8B014B6F86600C2F88C
:10B4800050471B1A9BB289B28B4228BF0B463048EB
:10B49000C2F85437FFF73AFCDDE6D6F8C020C4F80E
:10B4A000A0272C48C4F8A437FFF730FC77E72049E1
:10B4B000B46FD1F8B404B6F87E30C1F86447D31A3B
:10B4C0009BB282B2934228BF13462348C1F8683723
:10B4D000FFF71CFCCDE61649D6F89040D1F8B80429
:10B4E000B6F89630C1F87847D31A9BB282B293422D
:10B4F00028BF13461948C1F87C37FFF707FCC6E69A
:10B500000B49D6F8A840D1F8BC04B6F8AE30C1F863
:10B510008C47D31A9BB282B2934228BF134610487D
:10B52000C1F89037FFF7F2FBBFE600BF047002409E
:10B5300000700240CC8200200514C001F0ED00E054
:10B54000287002402C70024030700240347002407B
:10B5500038700240487002403C7002404070024027
:10B5600044700240704700BF10B5044601F028FE49
:10B57000204610BD38B50A4B04460D46442240F81B
:10B580000C3B002103F006F80023A560237104F1B1
:10B590005401012000F0F0FC2065204638BD00BFBA
:10B5A0002C15030010B5034B03600446FFF7DAFFC8
:10B5B000204610BD3C15030010B5054B0360044642
:10B5C000FFF7D0FF204601F0FBFD204610BD00BF75
:10B5D0003C15030008B500F08DF9002008BD00BF40
:10B5E00070B501F5ED51CC0182B004F18006FF2564
:10B5F000012220460DF1070114448DF8075000F098
:10B600007FF9A642F4D1002002B070BD08B501F563
:10B61000ED5102EBC110029A194600F071F9B0FA2F
:10B6200080F04009404208BD08B501F5ED5102EB3C
:10B63000C1111846029A00F07BF90028CCBF002007
:10B640000120404208BD00BF10B5074C0749204605
:10B65000FFF790FF064B23602046064A0649BDE8E7
:10B66000104002F01FB900BFA88300201460002022
:10B670003C15030000600020A5B502002DE9F04F45
:10B6800083B00193002B37D0DFF8749005460E4647
:10B6900090461F46C6F30B0ACAF58054296906EA8C
:10B6A000090BBC4228BF3C46594526441BD04B1CC5
:10B6B0004FF4805208460ED0EB681BB16969984779
:10B6C00048B929692B6808469847D5E904016B6891
:10B6D0004FF480529847AB686869C5F810B0594676
:10B6E0004FF480529847686941462246504402F020
:10B6F00043FF3F1BA044CDD1019803B0BDE8F08FBC
:10B7000000F0FFFF10B504460069431C12D0E36847
:10B710002BB161694FF48052984740B92069236882
:10B720009847D4E9040163684FF4805298474FF07A
:10B73000FF33236110BD00BF2DE9F84307691D46A3
:10B740007B1C06468846144605D097420BD807F561
:10B7500080539A4230D3B368214640462A469847E0
:10B760002846BDE8F88353199F42F4D207F5805369
:10B770009A42F0D2A7EB04094A462146B3684046F4
:10B78000E71B98477A1908EB09004FF4805C002109
:10B79000624528BF62467369174619444F4402F058
:10B7A000EBFEBD42DCD9B368E11908EB0700EA1BE8
:10B7B00098472846BDE8F883A7EB040C0CF5805C9D
:10B7C000E11B2A4640464FF00009E1E729DF7047B8
:10B7D00028DF704712DF704708B502F0BFFEB0FAED
:10B7E00080F0400908BD00BF10B5144602F0C4FE49
:10B7F000204610BDF0B583B0074600230DF10700C9
:10B8000016460C46D5088DF80730FFF7E3FF01E038
:10B8100000F020F92A4621463846FFF7D7FF1128C5
:10B8200003464FF00100F3D0D3B99DF80730D3B9E8
:10B8300007EB560704EB560401E000F00BF92A462B
:10B8400021463846FFF7C2FF112803464FF001009A
:10B85000F3D02BB99DF8073063B9304603B0F0BD83
:10B86000002003B0F0BD084B4FF0FF31186800F026
:10B87000C3FDDDE7044B4FF0FF31186800F0BCFD5D
:10B88000304603B0F0BD00BF4C94002030B5184DD9
:10B89000296883B00446D9B1240B01E000F0DAF83E
:10B8A0002046FFF795FF112803464FF00100F5D021
:10B8B00013B1002003B030BD0DF107008DF8073043
:10B8C000FFF788FF9DF807304BB9012003B030BD6A
:10B8D0000A2000F06FF928600028DDD1E9E7286828
:10B8E0004FF0FF3100F088FD012003B030BD00BFF4
:10B8F0004C9400200148FFF705BF00BF4C600020BA
:10B9000010B4094CA0420AD3B0F5742F07D21346E5
:10B910005DF8044B0A4601460448FFF7AFBE4FF0FE
:10B92000FF305DF8044B7047007002004C6000204F
:10B9300010B40C4613460146224602485DF8044BFB
:10B94000FFF7FABE4C60002010B5402200210446EB
:10B9500002F020FE0023C4E91033204610BD00BFD2
:10B9600010B4D0E91024531C03F03F039C4218BFCD
:10B9700081545DF8044B18BF036470470023C0E98D
:10B9800010337047D0E91023934206D05A1CC35C91
:10B9900002F03F024264184670474FF0FF30704794
:10B9A000D0E91030181A48BF40307047D0E9102352
:10B9B000934214BFC05C4FF0FF307047D0E91030A5
:10B9C000013303F03F03181AB0FA80F040097047C2
:10B9D0002DE9F0431B4B1C4FD3F80463DFF86C8058
:10B9E000DFF86C9085B000250123AC00AB4004F17A
:10B9F0008044334204F5C0440FD0D4F8003163B121
:10BA0000EB57013306D058F825201AB115F8093044
:10BA10007BB990470023C4F800310135082DE3D1EC
:10BA2000BFF34F8F00BF00BF00BF00BF05B0BDE830
:10BA3000F08300210091084603AB039101F002FE60
:10BA4000E8E700BF00600040789400205894002090
:10BA500050940020014638B54FF47A7200238002DA
:10BA6000890D02F0A3FB044600F078FF0546FEF7BF
:10BA700089FB00F073FF431B9C4200D838BD2C4467
:10BA8000201ABDE8384001F099B800BF10B504464F
:10BA900001F008FA022804D02046BDE8104002F068
:10BAA0004DBD00F053FF204602F048FD044600F073
:10BAB000F5FF0CB1204610BD01F056FDFAE700BFBE
:10BAC00010B5044601F0EEF902280AD144B100F0A5
:10BAD0003DFF204602F03AFDBDE8104000F0DEBF19
:10BAE00010BD2046BDE8104002F030BD10B582B058
:10BAF000019000F02BFF019802F020FD044600F0B9
:10BB0000CDFF14B1204602B010BD01F02DFD20463E
:10BB100002B010BD50B110B5044600F017FF20462A
:10BB200002F014FDBDE8104000F0B8BF704700BF40
:10BB3000F8B5064617460D4669B100FB01F05030D6
:10BB4000FFF7D4FF044690B3002200F1500380F8C1
:10BB50004620036007E05020FFF7C8FF044630B3DB
:10BB600084F846502460C4E90F6501F067FAD4E90F
:10BB70000F132268A26001FB03F1CB1A13440020CB
:10BB80000A44FF21A063E36084F84410626084F8F3
:10BB9000451004F1100001F03DFE04F1240001F015
:10BBA00039FE01F055FA84F84C702046F8BD0024A7
:10BBB0002046F8BDF8B5064650200D46FFF796FF23
:10BBC000044630B300272060C66380F846700764DF
:10BBD00001F034FAD4E90F322168A76303FB02F3C2
:10BBE0009A1A0A440B44FF26C4E90131E26084F842
:10BBF000446004F1100084F8456001F00BFE04F18C
:10BC0000240001F007FE01F023FA0223A56384F863
:10BC10004C302046F8BD00BF2DE9F047044684B003
:10BC20001F460192884600F1240601F007FAA26B34
:10BC3000E36BDFF840939A424FF0000A7CD3022F67
:10BC400000F0E880019D002D00F0128102ADBAF1F4
:10BC5000000F00F0DB8001F0FBF900F077FE01F04F
:10BC6000EDF994F84430FF2B04BF002384F84430EE
:10BC700094F84530FF2B04BF002384F8453001F0D1
:10BC8000E7F9284601A901F0D3F8002840F0F68032
:10BC900001F0D4F9A26BE36B9A4261D001F0D8F9BC
:10BCA00001F0CCF994F845506DB2002D05DC12E09E
:10BCB0006B1E13F0FF0F5DB20DD0636A304653B1B7
:10BCC00001F058F80028F3D001F0E6F86B1E13F0ED
:10BCD000FF0F5DB2F1D1FF2384F8453001F0B8F9D0
:10BCE00001F0ACF994F844506DB2002D15DD04F16B
:10BCF000100A04E06B1E13F0FF0F5DB20DD0236934
:10BD0000504653B101F036F80028F3D001F0C4F8E2
:10BD10006B1E13F0FF0F5DB2F1D1FF2384F84430A6
:10BD200001F096F900F0BAFE01F088F9A26BE36B1E
:10BD30009A424FF0010A82D2226CA56B002A40F091
:10BD4000E7802668002E00F0F9800135A563636A5C
:10BD5000002B7CD101F07CF9012004B0BDE8F08714
:10BD600004F1100A01F074F90199504600F0C6FF81
:10BD700001F064F994F845506DB2002D05DC12E035
:10BD80006B1E13F0FF0F5DB20DD0636A304653B1E6
:10BD900000F0F0FF0028F3D001F07EF86B1E13F0E6
:10BDA000FF0F5DB2F1D1FF2384F8453001F050F967
:10BDB00001F044F994F844506DB2002D05DC12E016
:10BDC0006B1E13F0FF0F5DB20DD02369504653B1C7
:10BDD00000F0D0FF0028F3D001F05EF86B1E13F0E6
:10BDE000FF0F5DB2F1D1FF2384F8443001F030F948
:10BDF00000F054FE002897D14FF08053C9F804306A
:10BE000040BFBFF34F8FBFF36F8F8DE7284601F020
:10BE100003F820E7226CA56B002A92D04146E06827
:10BE200002F0AAFB226CE36821689B1A8B42E36054
:10BE3000C2F1000204D263681A44E260022F84D186
:10BE4000002D83D10123A363636A002B82D004F108
:10BE5000240000F08FFF00283FF47CAF454B4FF0EB
:10BE600080525A6040BFBFF34F8FBFF36F8F71E7AF
:10BE700001F0EEF8284604B0BDE8F08701F0DEF8E6
:10BE800094F845506DB2002D15DD04F1240604E050
:10BE90006B1E13F0FF0F5DB20DD0636A304653B1D5
:10BEA00000F068FF0028F3D000F0F6FF6B1E13F0DF
:10BEB000FF0F5DB2F1D1FF2384F8453001F0C8F8DF
:10BEC00001F0BCF894F844506DB2002D15DD04F17A
:10BED000100604E06B1E13F0FF0F5DB20DD0236956
:10BEE000304653B100F046FF0028F3D000F0D4FFF5
:10BEF0006B1E13F0FF0F5DB2F1D1FF2384F84430C5
:10BF000001F0A6F800F0CAFD002004B0BDE8F087FB
:10BF1000414607BBA06802F02FFBA368216C626852
:10BF20000B449342A360FFF410AF0135A563636A2D
:10BF30002268A260002B3FF40DAF88E760680135EE
:10BF400001F006F8A563636A6660002B7FF47FAF9B
:10BF5000002883D1FEE6E06802F00EFB226CE36865
:10BF600021689B1A8B42E360C2F10002BFF466AF06
:10BF700061E700BF00ED00E0F8B50C4679B300259D
:10BF800001232160C1E90F3581F84630064601F0F2
:10BF900055F8D4E90F322168A56303FB02F39A1A1E
:10BFA0000A440B44FF27C4E90131E26084F844707D
:10BFB00004F1100084F8457001F02CFC04F1240019
:10BFC00001F028FC01F044F8C4E90055E56084F86C
:10BFD0004C602B462A4629462046FFF71DFE204688
:10BFE000F8BD00BF2DE9F043044683B016469946DC
:10BFF000EFF31188402282F31188806BE26B90424C
:10C000001ED3022B05D0002088F3118803B0BDE8B1
:10C01000F08394F84550226CA76B6DB232BB236855
:10C02000002B47D001376B1CA76335D001356DB2AB
:10C0300084F84550012088F3118803B0BDE8F083EF
:10C0400094F84550226CA76B6DB2002AE7D0002B04
:10C0500038D1A06802F090FAA368216C62680B44A2
:10C060009342A36024BF2368A360DBE7E06802F08B
:10C0700083FA226CE0682168801A8842E060C2F18D
:10C08000000205D261680A44E260B9F1020FC9D129
:10C09000012F38BF0127C6E7636A002BCAD004F11D
:10C0A000240000F067FE0028C4D0002EC2D001207A
:10C0B0003060A9E76068019300F04AFF019B63606C
:10C0C0000137B0E7E06802F057FA226CE0682168B7
:10C0D000801A8842E060C2F10002D6D2D2E700BFE7
:10C0E00010B582B0EFF31184402383F31188836B82
:10C0F000C26B9A420FD990F845200133FF2A83631F
:10C1000053B20DD001335BB280F84530012084F387
:10C11000118802B010BD002084F3118802B010BD58
:10C12000436A002BF2D02430019100F023FE002856
:10C13000ECD001990029E9D001200860ECE700BFAC
:10C140002DE9F043044685B00F46019200F076FFDA
:10C15000A56B002D40F02781019B002B00F0D280C1
:10C1600002A800F059FEDFF88C8204F1240600F0EA
:10C170006FFF00F0EBFB00F061FF94F84430FF2B01
:10C1800004BF002384F8443094F84530FF2B04BFEB
:10C19000002384F8453000F05BFF01A902A800F0FD
:10C1A00047FE00285BD100F049FFA36B002B40F055
:10C1B000AF8000F04DFF0199304600F09FFD00F088
:10C1C0003DFF94F845506DB2002D05DC12E06B1E6A
:10C1D00013F0FF0F5DB20DD0636A304653B100F02B
:10C1E000C9FD0028F3D000F057FE6B1E13F0FF0FBF
:10C1F0005DB2F1D1FF2384F8453000F029FF00F053
:10C200001DFF94F844506DB2002D15DD04F11009A6
:10C2100004E06B1E13F0FF0F5DB20DD0236948469A
:10C2200053B100F0A7FD0028F3D000F035FE6B1EDF
:10C2300013F0FF0F5DB2F1D1FF2384F8443000F01A
:10C2400007FF00F02BFC002853D14FF08053C8F8B3
:10C25000043040BFBFF34F8FBFF36F8F49E000F052
:10C26000EDFE94F845506DB2002D05DC12E06B1E1A
:10C2700013F0FF0F5DB20DD0636A304653B100F08A
:10C2800079FD0028F3D000F007FE6B1E13F0FF0FBE
:10C290005DB2F1D1FF2384F8453000F0D9FE00F003
:10C2A000CDFE94F844506DB2002D15DD04F1100957
:10C2B00004E06B1E13F0FF0F5DB20DD023694846FA
:10C2C00053B100F057FD0028F3D000F0E5FD6B1EE0
:10C2D00013F0FF0F5DB2F1D1FF2384F8443000F07A
:10C2E000B7FE00F0DBFB00F0A9FEA36B53B100F03A
:10C2F000AFFE00F0A3FEA56B002D54D1019B002BD7
:10C300007FF435AF00F0A4FE002005B0BDE8F08357
:10C3100000F09EFE00F092FE94F845506DB2002DA4
:10C3200005DC12E06B1E13F0FF0F5DB20DD0636AE7
:10C33000304653B100F01EFD0028F3D000F0ACFDF4
:10C340006B1E13F0FF0F5DB2F1D1FF2384F845306F
:10C3500000F07EFE00F072FE94F844506DB2002DA5
:10C3600015DD04F1100904E06B1E13F0FF0F5DB240
:10C370000DD02369484653B100F0FCFC0028F3D0EF
:10C3800000F08AFD6B1E13F0FF0F5DB2F1D1FF23A9
:10C3900084F8443000F05CFE00F080FB00F04EFEBC
:10C3A000A56B002DAAD0226C52B1E16863681144DC
:10C3B0009942E16024BF2168E160384602F0DCF870
:10C3C000013DA56323692BB900F042FE012005B0B1
:10C3D000BDE8F08304F1100000F0CCFC0028F3D09D
:10C3E000044B4FF080525A6040BFBFF34F8FBFF3F2
:10C3F0006F8FE9E700ED00E02DE9F043044685B0DA
:10C4000000F12406019100F019FEA36BDFF8DC8235
:10C410000027B946002B40F0D780019D002D00F089
:10C42000418102ADB9F1000F00F0DE8000F010FE96
:10C4300000F08CFA00F002FE94F84430FF2B04BFA9
:10C44000002384F8443094F84530FF2B04BF0023C8
:10C4500084F8453000F0FCFD284601A900F0E8FC16
:10C4600000285FD100F0EAFDA36B002B40F0C880EC
:10C4700000F0EEFD2368002B00F01B81019930468F
:10C4800000F03CFC00F0DAFD94F845506DB2002D50
:10C4900005DC12E06B1E13F0FF0F5DB20DD0636A76
:10C4A000304653B100F066FC0028F3D000F0F4FCF5
:10C4B0006B1E13F0FF0F5DB2F1D1FF2384F84530FE
:10C4C00000F0C6FD00F0BAFD94F844506DB2002DA6
:10C4D00015DD04F1100904E06B1E13F0FF0F5DB2CF
:10C4E0000DD02369484653B100F044FC0028F3D036
:10C4F00000F0D2FC6B1E13F0FF0F5DB2F1D1FF23F1
:10C5000084F8443000F0A4FD00F0C8FA002853D1AC
:10C510004FF08053C8F8043040BFBFF34F8FBFF3D4
:10C520006F8F49E000F08AFD94F845506DB2002D00
:10C5300005DC12E06B1E13F0FF0F5DB20DD0636AD5
:10C54000304653B100F016FC0028F3D000F0A4FCF4
:10C550006B1E13F0FF0F5DB2F1D1FF2384F845305D
:10C5600000F076FD00F06AFD94F844506DB2002DA5
:10C5700015DD04F1100904E06B1E13F0FF0F5DB22E
:10C580000DD02369484653B100F0F4FB0028F3D0E6
:10C5900000F082FC6B1E13F0FF0F5DB2F1D1FF23A0
:10C5A00084F8443000F054FD00F078FA00F046FDC5
:10C5B000A36BEBB100F04CFD00F040FDA36B4FF01E
:10C5C0000109002B3FF429AF2268013BA363002A35
:10C5D00000F088802369002B74D100F039FD012719
:10C5E000384605B0BDE8F083284600F015FC1DE78D
:10C5F00000F02EFD002F4AD1384605B0BDE8F0838B
:10C6000000F026FD00F01AFD94F845506DB2002DA3
:10C6100005DC12E06B1E13F0FF0F5DB20DD0636AF4
:10C62000304653B100F0A6FB0028F3D000F034FCF4
:10C630006B1E13F0FF0F5DB2F1D1FF2384F845307C
:10C6400000F006FD00F0FAFC94F844506DB2002DA5
:10C6500015DD04F1100904E06B1E13F0FF0F5DB24D
:10C660000DD02369484653B100F084FB0028F3D075
:10C6700000F012FC6B1E13F0FF0F5DB2F1D1FF232F
:10C6800084F8443000F0E4FC00F008FA94E700F08D
:10C69000D5FC616A19B1236B1968C1F105016068A5
:10C6A00000F086FC00F0D4FC0027384605B0BDE859
:10C6B000F08300F0C3FC606800F004FC074600F063
:10C6C000C7FCDBE604F1100000F054FB002884D026
:10C6D000064B4FF080525A6040BFBFF34F8FBFF3FD
:10C6E0006F8F7AE700F09EFC606073E700ED00E07A
:10C6F000104B5A68904208D0DA68904208BF012275
:10C7000004D090F8463093B170470022002110B455
:10C7100003EBC20443F8321090F84630616013B165
:10C720005DF8044B70475DF8044BFFF7F3B9FFF772
:10C73000F1B900BFA497002070B50446534E00F035
:10C740007DFC002C00F08280251D284601F096F823
:10C75000A36A1BB104F1180001F090F829464C4877
:10C760004C4D01F063F894F85030012B04BF0023C6
:10C7700084F8503000F06CFC2B68002B57D13368E4
:10C78000A34200D070BD2B68002B66D14049424ABD
:10C790000968126891426AD0404B1B68002B68D12F
:10C7A0003F4A13603268336812681B6B9A4266D93D
:10C7B0003C4C3D4B226802EB8200800091001858EF
:10C7C00028BB501E00EB8005AD0081005D59002D97
:10C7D00053D1901E00EB8005AD0081005D59002D06
:10C7E0004BD1D01E00EB8005AD0081005D59002DBE
:10C7F00043D1101F00EB8005AD0081005D59002D75
:10C800003BD1053A02EB8200800091001858114498
:10C8100003EB81000346416849684160083399424F
:10C8200004BF49684160CB683360226070BD00F08E
:10C8300005FC1E4B1A68126852B11A681C4BD2686C
:10C84000D26852681A6000F003FC98E734687BE70E
:10C85000174B4FF0FF321A60F5E7164B4FF080523E
:10C860005A6040BFBFF34F8FBFF36F8F70BD33600F
:10C8700070BD0B4B01221A6070BD0246C7E73068DD
:10C880003168343100F06EFE92E700BF80940020E2
:10C89000209500201C950020F0940020F8940020A2
:10C8A00038950020FC9400208C9400208494002073
:10C8B0000095002000ED00E098B130B51D4D2B68CB
:10C8C000834283B004460AD000F0B8FB1A4B626979
:10C8D0009A4207D003B0BDE8304000F0B9BB03B0C6
:10C8E00030BD7047A36A154A9342F3D0002BF1D1B3
:10C8F000211D0846019100F0C1FF114AE36A10684A
:10C90000019983420F4888BF136003EB830300EB58
:10C91000830000F08BFF2B68E26ADB6A9A42D9D36E
:10C92000094B4FF080525A6040BFBFF34F8FBFF3A7
:10C930006F8FCFE78094002020950020089500207D
:10C94000FC9400208C94002000ED00E0024A136863
:10C9500001331360704700BFF8940020014B186842
:10C96000704700BF349500202DE9F04F404B1B6805
:10C9700083B0002B46D13F4B1E6801361E60002E4F
:10C980004ED0DFF808B1DBF80030B3425FD83A4F41
:10C990003B681D68002D65D0DFF8F480DFF8F4A057
:10C9A000DFF8F490002522E0019100F067FFA36A10
:10C9B000019904F1180013B100F060FF0199E36AD6
:10C9C000D8F8002003EB830093420AEB800088BF75
:10C9D000C8F8003000F02AFFD9F800203B68E16A6F
:10C9E000D26A1B68914228BF0125002B3AD03B68D0
:10C9F000DB68DC686368211D9E420846D4D2CBF810
:10CA0000003004E01D4A13680133136000251C4BFD
:10CA10001B68002B0CBF2846012003B0BDE8F08F37
:10CA2000154B184A1868184914681C6010600A6889
:10CA300001320A601A6812685AB9DFF850B04FF034
:10CA4000FF33CBF80030DBF80030B3429FD900252C
:10CA5000DDE71B68DFF834B0DB68DB685B68CBF8C8
:10CA6000003090E74FF0FF33CBF80030CFE700BF46
:10CA7000F89400203495002084940020F494002041
:10CA8000389500208894002004950020009500200F
:10CA9000FC9400208C940020809400202DE9F04F1D
:10CAA00083B000F0CBFA3A4B1A68013A1A601B685F
:10CAB000002B55D1374B1B68002B51D0364D2B68BE
:10CAC000002B62D0354EDFF8EC80354FDFF8E89070
:10CAD0004FF0010AEB68DC6804F1040B04F1180064
