:020000022000DC
:107000000000042045890400858904008789040064
:10701000898904008B8904008D8904000000000028
:10702000000000000000000000000000C188040013
:107030009189040000000000E188040095890400A3
:10704000998B04009789040097890400C179030093
:10705000757A03009789040055630400978904003A
:107060009789040097890400978904009789040090
:107070009789040097890400978904009789040080
:1070800097890400118604009789040097890400F9
:1070900097890400978904004DAB03009789040089
:1070A0009789040097890400978904009789040050
:1070B0009789040097890400000000000000000088
:1070C000978904009789040097890400858C04003F
:1070D0009789040097890400978904000DBF030075
:1070E0009789040097890400978904000000000034
:1070F000000000009789040000000000FD8C0400DF
:10710000000000000000000000000000000000007F
:10711000000000000000000000000000000000006F
:10712000000000000000000000000000000000005F
:10713000000000000000000000000000000000004F
:10714000000000000000000000000000000000003F
:10715000000000000000000000000000000000002F
:10716000000000000000000000000000000000001F
:10717000000000000000000000000000000000000F
:1071800000000000000000000000000000000000FF
:1071900000000000000000000000000000000000EF
:1071A00000000000000000000000000000000000DF
:1071B00000000000000000000000000000000000CF
:1071C00000000000000000000000000000000000BF
:1071D00000000000000000000000000000000000AF
:1071E000000000000000000000000000000000009F
:1071F000000000000000000000000000000000008F
:10720000F1EE103A43F08073E1EE103A704700BFA0
:1072100010B5054C237833B9044B13B10448AFF3D0
:1072200000800123237010BDD06300200000000007
:10723000FC69050008B5034B1BB103490348AFF3D4
:10724000008008BD00000000D4630020FC69050038
:10725000154B002B08BF134B9D46A3F5803A002128
:107260008B460F461348144A121A28F01DFA0F4B8A
:10727000002B00D098470E4B002B00D098470020E1
:10728000002104000D000D48002802D00C48AFF387
:10729000008028F09FF92000290021F0ABFB28F0A6
:1072A00073F900BF00000800000004200000000087
:1072B00000000000D0630020B0AE002000000000FD
:1072C00000000000406870470020704790F82530AB
:1072D00090F824209A4205D900EBC3004068036867
:1072E0005B681847704700BF704700BF013902292B
:1072F00008D8416840F2DB53521A9A4284BF0123F6
:107300000372704742607047037A0BB10022027229
:107310001846704700230372436070478FDF704741
:1073200000797047704700BF704700BF704700BFCB
:10733000704700BF704700BF704700BF08B501200D
:1073400022F04CF9B0FA80F0400908BD1FF044B8B3
:1073500010B5044621F090FB204610BD10B5044640
:1073600021F08AFB204610BD10B5044621F084FBB5
:10737000204610BD10B5044621F07EFB204610BD0E
:1073800010B5044621F078FB204610BD10B586B03C
:107390000024084601A9CDE90144CDE90444039243
:1073A0008DF806300EF0A8FEB0FA80F0400906B065
:1073B00010BD00BF00232DE9F041037180460E4649
:1073C0001FF00AF8144F154C054647F0010702E07C
:1073D0004FF4FA30B8471EF0FFFF431BB34220467C
:1073E00017D20EF0B9FA0346204643B10EF020FB47
:1073F00028B1192888F804000BD0122809D00120E0
:1074000022F0ECF80128E3D11EF0E6FF401B96289D
:10741000DED9BDE8F08100BF903C0500006C002083
:1074200008B504480EF04EFABDE8084032201EF0C0
:10743000DFBF00BF006C002001480EF04BBA00BF58
:10744000006C002090F824303BB190F8253000EB20
:10745000C30040680368DB6818471846704700BFE0
:1074600090F8243003B32DE9F041044690F825004C
:1074700004EBC0060D46B3686BB10B68214F9B69E6
:10748000BB4238D11EF0A8FFA26AB368801A9842A6
:107490000CD294F8250004EBC0002946406803682C
:1074A000BDE8F0419B68184700207047706803688A
:1074B00029465B68984794F8253094F824200133D6
:1074C000DBB2934284F8253002D3013A84F82520B8
:1074D0002B689B69BB4211D11EF07EFF94F82530CA
:1074E000A06204EBC3042946606803681B689847E0
:1074F0000020BDE8F08108469847C5E72846984730
:10750000ECE700BF4D730200002370B580F8253012
:107510000B680B4A9B69934204460D460DD11EF041
:107520005BFF94F82430A06233B160680368294699
:107530001B68BDE87040184770BD08469847F0E7E3
:107540004D73020030B50A68154BD5689D4287B06F
:107550000C4617D100230122124D019301A91220DC
:10756000CDE9043302938DF8062003950EF0C4FD97
:1075700023680D4A1B6893420ED10C480EF0AAF9FD
:1075800007B030BD074A012312212046A8472368CF
:10759000054A1B689342F0D02046984707B030BD9B
:1075A0008D73020080841E0039740200006C00207C
:1075B00070B50A681E4BD6689E4286B00C460546DA
:1075C0004FF000031ED142F2107201A91920CDE93B
:1075D0000133CDE904338DF8063003920EF08CFDB3
:1075E0002368144A1B68934216D113480EF072F9AF
:1075F0002368124A9B69934215D11EF0EDFEA860E4
:1076000006B070BD42F2107219212046B0472368BF
:10761000084A1B689342E8D0204698472368074AE7
:107620009B699342E9D020469847A86006B070BD98
:107630008D73020039740200006C00204D7302004B
:107640000B68254A5B6893422DE9F0410C4636D120
:1076500022480EF037F932201EF0CAFE2368204A75
:107660009B68934232D1002323711EF0B5FE1D4E5C
:107670001A4F054646F0010602E04FF4FA30B047D3
:107680001EF0AAFE431BC72B384616D80EF064F92D
:10769000034638463BB10EF0CBF920B119282071D2
:1076A0000BD0122809D0012021F098FF0128E4D145
:1076B0001EF092FE401B9628DFD9BDE8F0810846F7
:1076C00098472368064A9B689342CCD02046C8213D
:1076D000BDE8F041184700BF21740200006C002093
:1076E000B5730200903C0500F0B50B68304A5B684A
:1076F000934287B00C4649D12E480EF0E3F8322071
:107700001EF076FE23682C4A9B68934245D10023E5
:1077100023711EF061FE294E264F054646F00106F4
:1077200002E04FF4FA30B0471EF056FE431BB3F5AB
:10773000967F384616D20EF00FF9034638463BB115
:107740000EF076F920B1192820710BD0122809D03B
:10775000012021F043FF0128E3D11EF03DFE401B34
:107760009628DED92268164BD5689D424FF000035B
:1077700018D101A912200193CDE9043303938DF8A8
:10778000063002930EF0B8FC07B0F0BD08469847EB
:107790002368094A9B689342B9D04FF496712046FA
:1077A0009847DFE720461A461221A84707B0F0BDE8
:1077B00021740200006C0020B5730200903C0500AB
:1077C0008D730200F8B50B68344A5B6993420C462E
:1077D0004ED1012021F002FFB0FA80F040090028CC
:1077E00045D023682E4A5B68934244D12D480EF061
:1077F00069F832201EF0FCFD23682B4A9B689342F7
:1078000040D1002323711EF0E7FD284E254F054689
:1078100046F0010602E04FF4FA30B0471EF0DCFDFE
:10782000431BB3F5967F384616D20EF095F8034603
:1078300038463BB10EF0FCF820B1192820710BD06E
:10784000122809D0012021F0C9FE0128E3D11EF041
:10785000C3FD431B962BDED92368154A1B6993424F
:1078600019D12079A0F11200B0FA80F04009F8BDDA
:1078700008469847B3E72046984723680A4A9B681A
:107880009342BED04FF49671204698472368084A29
:107890001B699342E5D020469847E3E73D73020019
:1078A00021740200006C0020B5730200903C0500BA
:1078B000217302002DE9F8430B68424E9B69B342E5
:1078C0000C46054668D11EF087FD0346D5E9012028
:1078D0001B1A934254D323683B4A5B6893426DD191
:1078E0003A480DF0EFFF32201EF082FD2368384A3F
:1078F0009B68934257D1002323711EF06DFD354BD9
:10790000DFF8C890074643F0010802E04FF4FA3070
:10791000C0471EF061FDC31BC72B484616D80EF0AA
:107920001BF8034648463BB10EF082F820B11928F7
:1079300020710BD0122809D0012021F04FFE012820
:10794000E4D11EF049FDC01B9628DFD92368224AE6
:107950001B6993422FD12079192821D023681F4A0F
:107960001B6893420FD119480DF0B4FF23689B693F
:10797000B3420ED11EF030FDA8600020BDE8F883B0
:107980000020BDE8F8832046984723689B69B342EE
:10799000F0D020469847EFE708469847034695E71A
:1079A0000120BDE8F883C8212046984723680A4A89
:1079B0001B699342CFD020469847CDE72046984791
:1079C00094E700BF4D73020021740200006C002098
:1079D000B5730200903C0500217302003974020067
:1079E0002DE9F0476048614E614F624D90B00DF057
:1079F0005BFF24220021814607A827F055FE5E4B3D
:107A000006931EF0E9FC5D4A5D4BDFF898C15D49C5
:107A1000A2FB002003EB9010A6FB003A4FEA5A1A93
:107A2000A6FB0A367609A7FB06473F0952463346AE
:107A3000CAEB0A1AC6EB06163C4607EB4707A0EB53
:107A40008A0AA2EB8606A3EBC70740F2DB7840F276
:107A50006D100DE0B5EBB20F55D3B1EB321F2CBF5B
:107A60004FF4B772024694420BD3A41A08F10108EE
:107A700018F003030CFB08F2ECD040F26D129442B4
:107A8000F3D2414AA2FB081251096425D2094FF4EE
:107A9000C87005FB118100FB1282002B36D03B49D8
:107AA0001F23002502E0D5B2E41A4B5DA34205F185
:107AB0000102F8D91EF090FC304B3549CDF80CA0EE
:107AC000A3FB00239B094FF47A7202FB13000134DD
:107AD0006B1C42460490CDE9017600942D481EF0BF
:107AE00015FA4B4606AA2C492A481EF00FFA06A999
:107AF00028222A4810F0CAFE1EF06EFC284B18609F
:107B000010B0BDE8F0874FF4B772ACE761B9DAB1F5
:107B10001D461E491F2302E0D5B2E41A4B5D9C426C
:107B200005F10102F8D2C5E718481D461F2202E000
:107B3000CDB2E41A425D012D134608BF531C9C428E
:107B400005F10101F4D2B5E710481D461F2202E0FD
:107B5000CDB2E41A425D012D134608BF531C9C426E
:107B600005F10101F4D2A5E7006C0020898888881E
:107B7000ABAAAAAA285C8F0274617000D34D621070
:107B80008065BC4E0AD7A3001F85EB51303C050031
:107B9000CC26050088820020F4260500006800201D
:107BA000306D0020295C8FC22DE9F04F89B08B46E3
:107BB00081461EF011FCC049C04BC14EC14FDFF8D9
:107BC00048C3C14DC14AA1FB001003EB9010A6FBB6
:107BD00000314909A6FB013676098E46A7FB061738
:107BE0003F093346CEEB0E11C6EB06163C4607EBBB
:107BF0004707AEEB8606A0EB8101A3EBC70740F277
:107C0000DB7840F26D1E0EE0B5EBB00FC0F0E48003
:107C1000B2EB301F2CBF4FF4B770704684420BD3C9
:107C2000241A08F1010818F003030CFB08F0EBD04C
:107C300040F26D108442F3D2A54AA2FB080250091B
:107C40004FF0640CD2094FF4C8750CFB108005FB93
:107C50001282002B00F0C3809E481F23002502E003
:107C6000D5B2E41A435D9C4205F10102F8D20791B6
:107C70001EF0B2FBDFF840A207990391AAFB002394
:107C80009B094FF47A7202FB13000134CDE90176AF
:107C90006B1C91490094424604909048904F914E3D
:107CA000914D924C1EF032F991498C485B464A4600
:107CB0001EF02CF98F4BDFF854E2DFF854C219782C
:107CC0008D488E4A0023CEF800308CF800303B708F
:107CD00033702B70237080F82C3182F82C310029FE
:107CE00000F092801EF078FB744B754F754CDFF8F6
:107CF00018C2754D7549AAFB002A03EB9A1AA7FB17
:107D00000A394FEA5919A7FB09377F09A4FB07086D
:107D10004FEA18184A463B46C9EB0919C7EB071743
:107D2000444608EB4808AAEB8909A2EB8707A3EBB6
:107D3000C80840F2DB7640F26D100CE0B5EBB20FF4
:107D40005FD3B1EB321F2CBF4FF4B772024694429F
:107D50000AD3A41A013616F003030CFB06F2EDD089
:107D600040F26D129442F4D2594AA2FB0612510914
:107D70006425D2094FF4C87005FB116100FB126243
:107D8000002B00F0FF8053491F23002502E0D5B2ED
:107D9000E41A4B5DA34205F10102F8D91EF01CFB69
:107DA000454B4D49CDF80C90A3FB00239B094FF4A4
:107DB0007A7202FB130001340490CDE9018700942C
:107DC0006B1C324645481EF0A1F84D49434809B0A6
:107DD000BDE8F04F1EF09AB84FF4B7701EE70028C8
:107DE00040F0DF80002A00F013811D4639481F2330
:107DF00002E0D5B2E41A435D9C4205F10102F8D2DB
:107E000035E74FF4B772A2E73E482D4F2D4C2E4D6B
:107E100010F026F81EF0E0FA284BDFF8ECC02B49F2
:107E2000AAFB002A03EB9A1AA7FB0A394FEA591951
:107E3000A7FB09377F09A4FB07084FEA18184A4631
:107E40003B46C9EB0919C7EB0717444608EB48083E
:107E5000AAEB8909A2EB8707A3EBC80840F2DB76FF
:107E600040F26D100CE0B5EBB20F78D3B1EB321FDE
:107E70002CBF4FF4B772024694420AD3A41A0136BB
:107E800016F003030CFB06F2EDD040F26D129442A3
:107E9000F4D20F4AA2FB061251096425D2094FF40D
:107EA000C87005FB116100FB1262002B5AD0094912
:107EB0001F23002531E000BFD34D62108065BC4E0A
:107EC00089888888ABAAAAAA285C8F020AD7A3004F
:107ED0001F85EB51303C0500CC2605008882002030
:107EE000FD6300208864002044670020206D00208E
:107EF00004270500346E002010660020386E002034
:107F00003427050050800020295C8FC2F4630020D4
:107F10004C670020D5B2E41A4B5D9C4205F101028A
:107F2000F8D21EF059FA534B5349CDF80C90A3FBED
:107F300000239B094FF47A7202FB13000134049072
:107F4000CDE9018700946B1C32464C481DF0DEFFE2
:107F50004B494A4809B0BDE8F04F1DF0D7BF4FF478
:107F6000B77289E7002941D1002A73D01D464549DF
:107F70001F2302E0D5B2E41A4B5D9C4205F10102D9
:107F8000F8D2CEE7F9B9002A54D01D463D491F2347
:107F900002E0D5B2E41A4B5DA34205F10102F8D923
:107FA000FCE6DFF8E0C01D461F2203E0C5B2E41A7C
:107FB0001CF80520012D134608BF531C9C4205F1F7
:107FC0000100F3D253E62F481D461F2205E0A242CE
:107FD0003FF6E4AECDB2E41A425D012D05F1010198
:107FE0001346F4D1531C9C42F4D2D7E625481D46D3
:107FF0001F2204E0A24294D8CDB2E41A425D012DC2
:1080000005F101011346F5D1531C9C42F4D288E7D7
:10801000DFF870C01D461F2203E0C5B2E41A1CF849
:108020000520012D134608BF531C9C4205F1010099
:10803000F3D21CE613481D461F2202E0CDB2E41A1B
:10804000425D012D134608BF531CA34205F10101F7
:10805000F4D9A3E60B481D461F2202E0CDB2E41A74
:10806000425D012D134608BF531C9C4205F10101DE
:10807000F4D256E7D34D6210CC260500888200204A
:1080800070270500303C05002DE9F047C64BC74D71
:10809000C74FC84C01228CB01A701EF09DF9C64B18
:1080A00018601EF099F9C54AC54BC649DFF850C3A0
:1080B000A5FB005002EB9010A7FB00294FEA5919CD
:1080C000A7FB09277F09A4FB07484FEA18184D466C
:1080D0003A46C9EB0919C7EB0717444608EB4808AD
:1080E000A0EB8909A5EB8707A2EBC80840F2DB7576
:1080F00040F26D100DE0B1EBB20FC0F03681BCEB79
:10810000321F2CBF4FF4B772024694420AD3A41A0E
:10811000013515F0030603FB05F2ECD040F26D12B9
:108120009442F4D2A84BA3FB05235A096420DB092F
:108130004FF4C87100FB125201FB1353002E00F0E4
:108140002E81A2491F23002602E0D6B2E41A8B5DDD
:108150009C4206F10102F8D21EF03EF9934BCDF895
:108160000C90A3FB00239B094FF47A7101FB1300D1
:10817000621C974C97490092731C2A460490CDE9E3
:10818000018795481DF0C2FE227807921EF024F95F
:108190000346924892490568079A8F485B1B1DF079
:1081A000B5FE904811F036F8002840F063818E4803
:1081B0000FF0BCFE2378002B40F0518100238B4848
:1081C0008B4F1A46052180460DF0E2FB00231A462C
:1081D000062140460DF0DCFB00231A4604214046F0
:1081E0000DF0D6FB00231A46132140460DF0D0FBBC
:1081F00000231A46022140460DF0CAFB1EF0ECF89F
:1082000047F00107054600260CE01EF0E5F8431B89
:10821000B3F5967F40460BD20DF09EFB4FF4FA303B
:108220002646B847012021F0D9F9741C0028ECD06B
:108230001EF0D2F85D4D614A5D4B5E4C6049614F66
:10824000DFF8BCC1A5FB005002EB9010A3FB002A95
:108250004FEA5A1AA3FB0A384FEA5818A4FB0849F8
:108260004FEA191952464346CAEB0A1AC8EB0818D6
:108270004C4609EB4909A0EB8A0AA2EB8808A3EB5C
:10828000C90940F2DB7540F26D100CE0B7EBB20F9C
:108290006ED3BCEB321F2CBF4FF4B7720246944230
:1082A0000AD3A41A013515F0030301FB05F2EDD042
:1082B00040F26D129442F4D2434AA2FB05125109D6
:1082C0006427D2094FF4C87007FB115100FB12520A
:1082D000002B50D03D491F22002702E0DFB2A41A34
:1082E000CA5DA24207F10103F8D91EF075F82F4BC1
:1082F0003849CDF80CA0A3FB00239B094FF47A72F8
:1083000002FB130001347B1C2A460490CDE901983E
:10831000314800941DF0FAFD012021F05FF9F2B21E
:10832000034634492C481DF0F1FD01210C2021F0B9
:10833000B3F801210C2021F033F950201EF058F839
:1083400000210C2021F02CF900201EF051F82A4BBE
:108350001A793AB9186828B10268284912680124C4
:108360001C7190470CB0BDE8F0874FF4B772CCE6B3
:108370004FF4B77293E700295DD014481F461F22BF
:1083800004E0A242B1D8CFB2E41AC25D012F07F1D6
:1083900001011346F5D1531C9C42F4D2A5E7002AF3
:1083A0003CD00A481F2230E0346E0020D34D6210CA
:1083B00089888888ABAAAAAA306E00208065BC4E46
:1083C000295C8FC2285C8F021F85EB51303C050071
:1083D00080640020CC26050088820020306D0020BB
:1083E0008C270500107A002050800020006C0020AF
:1083F000903C0500E0270500A06D002024600020CF
:108400000AD7A300CEB2E41A825D012E134608BF3C
:10841000531C9C4206F10101F4D29DE6002B48D08A
:108420002B491F2302E0D6B2E41A8B5D9C4206F171
:108430000102F8D290E682BB25481F461F2205E0C4
:10844000A2423FF652AFCFB2E41AC25D012F07F14C
:1084500001011346F4D1531C9C42F4D245E700239A
:1084600009A90C221B480A93237009930B9310F05F
:10847000D1F9A3E60423012209A917488DF8243075
:1084800010F004FA50201DF0B3FF0021134812F041
:1084900033FB32201DF0ACFF89E61F460C491F2339
:1084A00002E0D7B2E41ACB5D9C4207F10102F8D298
:1084B0001BE707481F2202E0CEB2E41A825D012EBC
:1084C000134608BF531C9C4206F10101F4D243E657
:1084D000303C0500A86700206C6F0020107A002057
:1084E000012B00D070472DE9F047DFF8B4911378E5
:1084F00099F800101A1E18BF0122914286B008D0C8
:1085000089F80020002B00F08F80594814210DF0CD
:10851000E9F91DF061FF574D574A584F584C5949DA
:10852000594BDFF880C1A5FB005002EB9010A7FB70
:10853000002A4FEA5A1AA7FB0A277F09A4FB07481B
:108540004FEA181855463A46CAEB0A1AC7EB0717FE
:10855000444608EB4808A0EB8A0AA5EB8707A2EB84
:10856000C80840F2DB7640F26D100CE0B3EBB20FBE
:108570004AD3BCEB321F2CBF4FF4B7720246944271
:108580000AD3A41A013616F0030501FB06F2EDD05A
:1085900040F26D129442F4D23C4AA2FB06325309D7
:1085A0006420D2094FF4C87100FB136301FB12620F
:1085B0006DB337491F23002502E0D5B2E41A4B5DA5
:1085C000A34205F10102F8D91DF006FF294B3149FC
:1085D000CDF80CA0A3FB00239B094FF47A7202FB99
:1085E0001300013432460490CDE9018700946B1CDE
:1085F00029481DF08BFC99F800202849264806B030
:10860000BDE8F0471DF082BC4FF4B772B7E78BB9F5
:10861000FAB11F491F2302E0D5B2E41A4B5D9C4218
:1086200005F10102F8D2CFE71A46052110480DF0F6
:10863000AFF96EE716481F2202E0CDB2E41A425DA0
:10864000012D134608BF531C9C4205F10101F4D2D1
:10865000BAE70F481F2202E0CDB2E41A425D012DB5
:10866000134608BF531C9C4205F10101F4D2ABE74D
:10867000006C0020D34D62108065BC4E89888888CC
:10868000ABAAAAAA295C8FC2285C8F021F85EB5176
:10869000303C0500CC260500888200200C2805000F
:1086A000A86D00200AD7A300042B00D070472DE945
:1086B000F047D2F8008040F29E73A8F132029A424D
:1086C00086B000F28180B34FB34EC7F800801DF032
:1086D00083FEB24DB24AB34CB34BB449DFF8ECC29F
:1086E000A6FB006005EB9010A2FB005A4FEA5A1A55
:1086F000A2FB0A284FEA5818A4FB08494FEA1919A7
:1087000055464246CAEB0A1AC8EB08184C4609EB14
:108710004909A0EB8A0AA5EB8808A2EBC90940F237
:10872000DB7640F26D100DE0B1EBB20FC0F0CE8001
:10873000BCEB321F2CBF4FF4B772024694420AD3EF
:10874000A41A013616F0030503FB06F2ECD040F242
:108750006D129442F4D2964AA2FB06325309642069
:10876000D2094FF4C87100FB136301FB1262002DA4
:1087700000F0AF808F491F23002502E0D5B2E41A34
:108780004B5DA34205F10102F8D91DF025FE824B95
:108790008949CDF80CA0A3FB00239B094FF47A7202
:1087A00002FB1300013432460490CDE90198009495
:1087B0006B1C82481DF0AAFB3A6881497F4806B0CD
:1087C000BDE8F0471DF0A2BB1DF006FE724D734AD6
:1087D000734F744C744B7549DFF8F0C1A5FB005022
:1087E00002EB9010A7FB002A4FEA5A1AA7FB0A27B0
:1087F0007F09A4FB07494FEA191955463A46CAEBC7
:108800000A1AC7EB07174C4609EB4909A0EB8A0A7D
:10881000A5EB8707A2EBC90940F2DB7640F26D10A9
:108820000CE0B1EBB20F4ED3BCEB321F2CBF4FF4B8
:10883000B772024694420AD3A41A013616F0030511
:1088400003FB06F2EDD040F26D129442F4D2584A86
:10885000A2FB063253096420D2094FF4C87100FB11
:10886000136301FB1262002D46D052491F230025DD
:1088700002E0D5B2E41A4B5D9C4205F10102F8D248
:108880001DF0AAFD444B4C49CDF80CA0A3FB0023DE
:108890009B094FF47A7202FB1300013432466B1CC1
:1088A0000490CDE90197009444481DF02FFB454901
:1088B00042481DF07DFA44494048424606B0BDE8B2
:1088C000F0471DF023BB4FF4B772B3E74FF4B77214
:1088D00034E773BB002A3BD036491F2305E0A3428F
:1088E0003FF653AFD5B2E41A4B5D012D05F10102FD
:1088F000F5D19C42F6D248E763B9002A3AD02D4917
:108900001F2302E0D5B2E41A4B5D9C4205F101023F
:10891000F8D2B5E727481F2202E0CDB2E41A425D43
:10892000012D134608BF531C9C4205F10101F4D2EE
:10893000A6E720481F2202E0CDB2E41A425D012DD5
:10894000134608BF531C9C4205F10101F4D21CE7F9
:1089500018481F2205E0A2423FF617AFCDB2E41A35
:10896000425D012D05F101011346F4D1531C9C42D7
:10897000F4D20AE70F481F2202E0CDB2E41A425DAA
:10898000012D134608BF531C9C4205F10101F4D28E
:1089900076E700BF20600020D34D62108065BC4E9A
:1089A00089888888ABAAAAAA295C8FC2285C8F0212
:1089B0001F85EB51303C0500CC2605008882002045
:1089C000242805004C280500502805000AD7A300DC
:1089D000B94B1B7803B970472DE9F04786B01DF0FD
:1089E000FBFCB64B1F6842F20F73C71B9F4240F25D
:1089F00092801DF0F1FCB24EB24DB34AB34CB44973
:108A0000B44BDFF8F0C2A6FB006005EB9010A2FBB0
:108A1000005A4FEA5A1AA2FB0A284FEA5818A4FB38
:108A200008494FEA191955464246CAEB0A1AC8EBDB
:108A300008184C4609EB4909A0EB8A0AA5EB8808FF
:108A4000A2EBC90940F2DB7640F26D100CE0B3EB0B
:108A5000B20F4CD3BCEB321F2CBF4FF4B77202469F
:108A600094420AD3A41A013616F0030501FB06F25C
:108A7000EDD040F26D129442F4D2974AA2FB063236
:108A800053096420D2094FF4C87100FB136301FB42
:108A900012627DB391491F23002502E0D5B2E41A8A
:108AA0004B5D9C4205F10102F8D21DF095FC844B10
:108AB0008B49CDF80CA0A3FB00239B094FF47A72DD
:108AC00002FB130001346B1C32460490CDE901987F
:108AD000009484481DF01AFA3A46834981481DF0F3
:108AE00015FA824B01221A7006B0BDE8F0874FF4E8
:108AF000B772B5E7002B40F0A080002A00F0BB80E1
:108B000076491F2302E0D5B2E41A4B5D9C4205F181
:108B10000102F8D2C9E71DF05FFC694E694D6A4A4F
:108B20006A4C6B4B6B49DFF8CCC1A6FB006005EBD0
:108B30009010A2FB005A4FEA5A1AA2FB0A284FEAE9
:108B40005818A4FB08494FEA191955464246CAEB82
:108B50000A1AC8EB08184C4609EB4909A0EB8A0A27
:108B6000A5EB8808A2EBC90940F2DB7640F26D1054
:108B70000CE0B1EBB20F4BD3BCEB321F2CBF4FF468
:108B8000B772024694420AD3A41A013616F00305BE
:108B900003FB06F2EDD040F26D129442F4D24E4A3D
:108BA000A2FB063253096420D2094FF4C87100FBBE
:108BB000136301FB126275B348491F23002502E0CD
:108BC000D5B2E41A4B5DA34205F10102F8D91DF0BC
:108BD00003FC3B4B4249CDF80CA0A3FB00239B09AF
:108BE0004FF47A7202FB130001346B1C324604907E
:108BF000CDE9019800943B481DF088F93C4939487B
:108C00003A4642F2107306B0BDE8F0471DF07EB957
:108C10004FF4B772B6E7FBB9002A3BD02F491F23A8
:108C200004E0A342D3D8D5B2E41A4B5D012D05F17F
:108C30000102F6D19C42F6D2C9E728481F2202E081
:108C4000CDB2E41A425D012D134608BF531C9C426D
:108C500005F10101F4D228E720481F2202E0CDB23D
:108C6000E41A425D012D134608BF531C9C4205F1D6
:108C70000101F4D2ABE719481F2202E0CDB2E41A99
:108C8000425D012D134608BF531C9C4205F10101B2
:108C9000F4D20AE711481F2204E0A24297D8CDB2CD
:108CA000E41A425D012D05F101011346F5D1531C73
:108CB0009C42F4D28BE700BF346E0020306E00205F
:108CC000D34D62108065BC4E89888888ABAAAAAA59
:108CD000295C8FC2285C8F021F85EB51303C050058
:108CE000CC26050088820020CC280500FC630020EB
:108CF0008C2805000AD7A300012B00D070471378F9
:108D0000022BFBD82DE9F047554F564E3B7086B0ED
:108D10001DF062FB544D554A554C564B5649DFF8F1
:108D200070C1A6FB006005EB9010A2FB005A4FEA51
:108D30005A1AA2FB0A284FEA5818A4FB08494FEA1E
:108D4000191955464246CAEB0A1AC8EB08184C4690
:108D500009EB4909A0EB8A0AA5EB8808A2EBC9092F
:108D600040F2DB7540F26D100CE0B1EBB20F49D36D
:108D7000BCEB321F2CBF4FF4B772024694420AD3A9
:108D8000A41A013515F0030603FB05F2EDD040F2FD
:108D90006D129442F4D2394BA3FB05235A09642087
:108DA000DB094FF4C87100FB125201FB135366B389
:108DB00033491F23002602E0D6B2E41A8B5DA3429A
:108DC00006F10102F8D91DF007FB264B2D49CDF81D
:108DD0000CA0A3FB00239B094FF47A7202FB130043
:108DE00001342A460490CDE901980094731C26486A
:108DF0001DF08CF83A782549234806B0BDE8F047C5
:108E00001DF084B84FF4B772B8E75AB9CBB11C491A
:108E10001F2302E0D6B2E41A8B5D9C4206F10102E8
:108E2000F8D2D0E716481F2202E0CEB2E41A825DE3
:108E3000012E134608BF531C9C4206F10101F4D2D7
:108E4000C1E70F481F2202E0CEB2E41A825D012E74
:108E5000134608BF531C9C4206F10101F4D2B2E74D
:108E60004D670020D34D62108065BC4E898888888C
:108E7000ABAAAAAA295C8FC2285C8F021F85EB517E
:108E8000303C0500CC26050088820020082905001A
:108E90000AD7A300042B00D070472DE9F0472DED31
:108EA000028B136808EE103AF0EE047A88B0B4EE44
:108EB000E78AF1EE10FA079308DBBE4BD3ED007A98
:108EC000B4EEE78AF1EE10FA00F1A5801DF084FA05
:108ED000B94DBA4ABA4FBB4CBB49BC4BDFF810C3C3
:108EE000A5FB005002EB9010A7FB00294FEA59198F
:108EF000A7FB09277F09A4FB07484FEA18184D462E
:108F00003A46C9EB0919C7EB0717444608EB48086E
:108F1000A0EB8909A5EB8707A2EBC80840F2DB7636
:108F200040F26D100CE0B3EBB20F59D3BCEB321F23
:108F30002CBF4FF4B772024694420AD3A41A0136EA
:108F400016F0030501FB06F2EDD040F26D129442DB
:108F5000F4D29F4B9C4A9D49A3FB060302FB06F2F9
:108F6000DB094FF4C870B1EBB20F00FB13633AD2C8
:108F7000002D00F0E08097491F23002502E0D5B2C4
:108F8000E41A4B5D9C4205F10102F8D21DF024FA6F
:108F9000894B9149CDF80C90A3FB00239B094FF41A
:108FA0007A7202FB130001346B1C32460490CDE947
:108FB00001878A4800941CF0A9FF894987481CF062
:108FC000F7FE18EE100A25F0B3FD0B468549024660
:108FD000824808B0BDEC028BBDE8F0471CF096BF9C
:108FE0004FF4B772A8E7002B00F0988079491F234F
:108FF00065B1002502E0D5B2E41A4B5D9C4205F153
:109000000102F8D2C2E7D5B2E41A4B5D9C4205F1E9
:109010000102F8D2BAE7744F674E87ED008A1DF05F
:10902000DBF9664D664A674C674B6849DFF8C0C19B
:10903000A6FB006005EB9010A2FB005A4FEA5A1AFB
:10904000A2FB0A284FEA5818A4FB08494FEA19194D
:1090500055464246CAEB0A1AC8EB08184C4609EBBB
:109060004909A0EB8A0AA5EB8808A2EBC90940F2DE
:10907000DB7540F26D100CE0B1EBB20F11D3BCEB1D
:10908000321F2CBF4FF4B772024694420CD3A41A7D
:10909000013515F0030603FB05F2EDD040F26D1229
:1090A000F3E74FF4B772F0E7494BA3FB05235A09E6
:1090B0006420DB094FF4C87100FB125201FB13530B
:1090C000002E47D1002A60D1002B6FD041491F23C9
:1090D00002E0D6B2E41A8B5D9C4206F10102F8D29E
:1090E0001DF07AF9344B3C49CDF80CA0A3FB0023CA
:1090F0009B094FF47A7202FB13000134731C2A4659
:109100000490CDE90198354800941CF0FFFE3868C2
:1091100025F00EFD0B460246344959E735B31D468E
:109120002C491F2302E0D5B2E41A4B5D9C4205F1A5
:109130000102F8D22AE727481F2202E0CDB2E41A42
:10914000425D012D134608BF531C9C4205F10101ED
:10915000F4D21BE71F491F23002602E0D6B2E41A0F
:109160008B5DA34206F10102F8D9B9E719481F2225
:1091700002E0CDB2E41A425D012D134608BF531C34
:109180009C4205F10101F4D200E712481F2204E0DD
:10919000A242A5D8CEB2E41A825D012E06F10101E9
:1091A0001346F5D1531C9C42F4D299E709481F227B
:1091B00026E000BF18600020D34D62108065BC4ED1
:1091C00089888888ABAAAAAA295C8FC2285C8F02EA
:1091D0001F85EB51303C0500CC260500888200201D
:1091E0004C280500602905001C6000203C29050072
:1091F0000AD7A300A2423FF673AFCEB2E41A825D53
:10920000012E06F101011346F4D1531C9C42F4D205
:1092100066E700BF042B00D070472DE9F0472DED25
:10922000028B1368BA4A08EE103AD2ED007A88B081
:10923000B4EEE78AF1EE10FA079307DDDFEDB57AB9
:10924000B4EEE78AF1EE10FA40F2A5801DF0C4F802
:10925000B14DB24AB24FB34CB349B44BDFF8F0C290
:10926000A5FB005002EB9010A7FB00294FEA59190B
:10927000A7FB09277F09A4FB07484FEA18184D46AA
:109280003A46C9EB0919C7EB0717444608EB4808EB
:10929000A0EB8909A5EB8707A2EBC80840F2DB76B3
:1092A00040F26D100CE0B3EBB20F59D3BCEB321FA0
:1092B0002CBF4FF4B772024694420AD3A41A013667
:1092C00016F0030501FB06F2EDD040F26D12944258
:1092D000F4D2974B944A9549A3FB060302FB06F28E
:1092E000DB094FF4C870B1EBB20F00FB13633AD245
:1092F000002D00F0E0808F491F23002502E0D5B249
:10930000E41A4B5D9C4205F10102F8D21DF064F8AD
:10931000814B8949CDF80C90A3FB00239B094FF4A6
:109320007A7202FB130001346B1C32460490CDE9C3
:109330000187824800941CF0E9FD81497F481CF0B8
:1093400037FD18EE100A25F0F3FB0B467D49024667
:109350007A4808B0BDEC028BBDE8F0471CF0D6BDE2
:109360004FF4B772A8E7002B00F0988071491F23D3
:1093700065B1002502E0D5B2E41A4B5D9C4205F1CF
:109380000102F8D2C2E7D5B2E41A4B5D9C4205F166
:109390000102F8D2BAE76C4F5F4E3B601DF01CF83B
:1093A0005E4D5F4A5F4C604B6049DFF8A4C1A6FB8D
:1093B000006005EB9010A2FB005A4FEA5A1AA2FB7C
:1093C0000A284FEA5818A4FB08494FEA19195546CC
:1093D0004246CAEB0A1AC8EB08184C4609EB490981
:1093E000A0EB8A0AA5EB8808A2EBC90940F2DB755D
:1093F00040F26D100CE0B1EBB20F11D3BCEB321F99
:109400002CBF4FF4B772024694420CD3A41A013514
:1094100015F0030603FB05F2EDD040F26D12F3E701
:109420004FF4B772F0E7424BA3FB05235A096420BF
:10943000DB094FF4C87100FB125201FB1353002EDD
:1094400048D1002A61D1002B00F0928039491F23B6
:1094500002E0D6B2E41A8B5D9C4206F10102F8D21A
:109460001CF0BAFF2C4B3449CDF80CA0A3FB002311
:109470009B094FF47A7202FB13000134731C2A46D5
:109480000490CDE901982D4800941CF03FFD386808
:1094900025F04EFB0B4602462C4959E735B31D46D5
:1094A00024491F2302E0D5B2E41A4B5D9C4205F12A
:1094B0000102F8D22AE71F481F2202E0CDB2E41AC7
:1094C000425D012D134608BF531C9C4205F101016A
:1094D000F4D21BE717491F23002602E0D6B2E41A94
:1094E0008B5DA34206F10102F8D9B9E711481F22AA
:1094F00002E0CDB2E41A425D012D134608BF531CB1
:109500009C4205F10101F4D200E70A481F2226E03F
:109510001C60002033338B40D34D62108065BC4EFD
:1095200089888888ABAAAAAA295C8FC2285C8F0286
:109530001F85EB51303C0500CC26050088820020B9
:109540004C280500C429050018600020A02905004A
:109550000AD7A300A24283D8CEB2E41A825D012EBC
:1095600006F101011346F5D1531C9C42F4D277E772
:1095700008481F2205E0A2423FF672AFCEB2E41ABD
:10958000825D012E06F101011346F4D1531C9C4269
:10959000F4D265E7303C05002DE9F0432DED068B54
:1095A000B94895B00CF038F9B748B0EE409A0CF0D5
:1095B0003BF9B548F0EE409A0CF03EF9B349B44A95
:1095C0000B68B44869EEA98A0133E9EE098A02FB07
:1095D00003F2B0EBB20FB0EE408AE0EE008A0B600F
:1095E00062D2DFEDAD7AF4EEE78AF1EE10FA35D40F
:1095F000F0EEC97AB0EEE97AF4EEC77AF1EE10FA3D
:10960000F0EEC86A2FDBF4EEE67AF1EE10FA80F2A3
:10961000F480F4EE477AF1EE10FA24D0B5EEC08A69
:10962000F1EE10FACCBF01244FF0FF341CF0D4FE51
:109630009A4B93F90020944229D06AB15A68821A51
:10964000323AB2F5AF7F00F2E1805A780132D2B2FD
:10965000022A5A7000F2DE8058601C7015B0BDEC12
:10966000068BBDE8F083B4EEE67AF1EE10FAD5DBB6
:10967000F5EEC09AF1EE10FACCBF01244FF0FF34A2
:109680001CF0AAFE854B93F900209442D5D15A785C
:10969000002AE2D05A68801AB0F5C87FDDD90022CE
:1096A0005A705A601C70D9E77D480FF0B3FD00284E
:1096B00097D01CF091FE7B4D7B4A7C4F7C4C7D4BC0
:1096C0007D49DFF814C2A5FB005002EB9010A7FB08
:1096D00000294FEA5919A7FB09277F09A4FB07486E
:1096E0004FEA18184D463A46C9EB0919C7EB071758
:1096F000444608EB4808A0EB8909A5EB8707A2EBD5
:10970000C80840F2DB7540F26D100DE0B1EBB20F0E
:10971000C0F04081BCEB321F2CBF4FF4B772024641
:10972000A2420AD8A41A013515F0030603FB05F27C
:10973000ECD040F26D12A242F4D9604BA3FB05239A
:109740005A096420DB094FF4C87100FB125201FB77
:109750001353002E00F0478159491F23002604E0CF
:10976000A34208D8D6B2E41A8B5D012E06F101029D
:10977000F6D19C42F6D2B1EEE8AA1CF02DFE494B80
:109780005049CDF80C90A3FB00239B094FF47A724B
:1097900002FB13000134731C2A4600940490CDE9A7
:1097A00001874948494D1CF0B1FB19EE100A25F01C
:1097B000BFF9002402460B461AEE100ACDE9082331
:1097C000CDE9064525F0B4F904460D4618EE100A19
:1097D000CDE9044525F0ACF904460D4619EE900A92
:1097E000CDE9024525F0A4F9DDE90823CDE9000122
:1097F000374935481CF08AFBF3E6B5EEC09AF1EE26
:1098000010FACCBF01244FF0FF340FE700225A704A
:10981000586022E70021242219800BA8596025F006
:1098200043FF2C4B214F224C224D93E80300ADF80F
:109830002C100A901CF0D0FD1A4A1B4B1E49DFF871
:1098400098C0A2FB002003EB9010A7FB00394FEA61
:109850005919A7FB09377F09A4FB07484FEA1818D5
:109860004A463B46C9EB0919C7EB0717444608EBC4
:109870004808A0EB8909A2EB8707A3EBC80840F2D0
:10988000DB7640F26D1036E0006C0020246400208E
:10989000CDCCCCCCCCCCCC0CFFFFC7401C6E002078
:1098A000107A0020D34D62108065BC4E898888886C
:1098B000ABAAAAAA295C8FC2285C8F021F85EB5134
:1098C000303C0500CC2605008882002000000440C2
:1098D000082A0500442A05000AD7A300B1EBB20FFD
:1098E00055D3BCEB321F2CBF4FF4B77202469442E3
:1098F0000AD3A41A013616F0030305FB06F2EDD0D5
:1099000040F26D129442F4D2524AA2FB061251095F
:109910006425D2094FF4C87005FB116100FB126287
:10992000002B3AD04C491F23002502E0D5B2E41A9F
:109930004B5DA34205F10102F8D91CF04DFD474BE8
:109940004749CDF80C90A3FB00239B094FF47A7292
:1099500002FB130001346B1C32460490CDE90187F1
:10996000009440481CF0D2FA0AAA3F493D481CF036
:10997000CDFA0AA928223D480EF088FF1CF02CFDE4
:109980003B4B186015B0BDEC068BBDE8F0834FF47F
:10999000B772ACE74FF4B772C2E691B982BB2E48FA
:1099A0001D461F2204E0A242C7D8CDB2E41A425D90
:1099B000012D05F101011346F5D1531C9C42F4D24F
:1099C000BBE725481D461F2204E0A242B5D8CDB210
:1099D000E41A425D012D05F101011346F5D1531C36
:1099E0009C42F4D2A9E7BAB92BB31B491F2302E06A
:1099F000D6B2E41A8B5D9C4206F10102F8D2BAE6B7
:109A00001D4615491F2302E0D5B2E41A4B5D9C4266
:109A100005F10102F8D290E70F481F2202E0CEB212
:109A2000E41A825D012E134608BF531C9C4206F1C6
:109A30000101F4D29FE608481F2202E0CEB2E41AE8
:109A4000825D012E134608BF531C9C4206F10101A2
:109A5000F4D290E61F85EB51303C0500D34D6210E7
:109A6000CC260500888200204C2A050000680020D2
:109A7000306D00202DE9F04F2DED068BA448A9B0E4
:109A80000BF0E2FEA248F0EE408A0BF0E5FEA048A3
:109A9000B0EE408A0BF0E8FE9E4A92F900300333A4
:109AA000F0EE407A062B00F21C85DFE813F0E604A6
:109AB000F004FA041A0504050C05070020EE007AEC
:109AC00010EE10BAB0EEC0AA92F901300333062BA3
:109AD00000F20F85DFE813F0BF04B504AB040D05F9
:109AE000A3049B040700A7EEA77AF0EEE79ACDED5A
:109AF0000A7A92F902300333062B00F2EC84DFE895
:109B000013F072047C046004EA04B4046A040700DD
:109B1000A7EEA77A17EE907AB0EEE79AB5EEC07A84
:109B2000F1EE10FAC8BFF1EEC77A7B4B7B4A1B7887
:109B3000CABF9FED7B7ADFED847A67EE877AC2ED4C
:109B4000007A002B40F0B6861FAE764A764D136839
:109B500076490133136005FB03F3B1EB730F80F01B
:109B6000B985734C734BDB68DB0140F1D084724BD9
:109B70001A68D50740F1CB845B689B0994F8802371
:109B800082B9D4F87C23DFED6D7A9A1A07EE102A99
:109B9000B8EE477A67EE277AF5EEC07AF1EE10FA62
:109BA00000F2B486DFED667A1420D4E9402104EB9C
:109BB0008205C4F87C33531C03F01F032A46C5F802
:109BC00000B01F294FF00005C4F80031C2ED207A23
:109BD00084F8805340F3FC8420219FED5B7A5A1E69
:109BE000F0EE476A0025531B03F01F0304EB830CC0
:109BF000DCED005A9CED205AB0EEE56AB4EEC67A70
:109C0000F1EE10FA05F10105B8BFB0EE467A8D42CB
:109C1000E5EE856AE7DBD4F8203194F81C21C4ED29
:109C2000436A034484ED447AC4F82031032A00F2E5
:109C30005C83DFE812F06A03B1034C0304009FED7C
:109C4000417AB4EEC7AAF1EE10FA40F1368500224F
:109C5000002394ED45AAD4F81881C4F808B1C4F8DB
:109C60001421C4F8182184F81C31C4F820310125CE
:109C7000D4F824C1BCF1140F03DC0CF1010CC4F8BE
:109C800024C1D4E98A319DED0A7A5A1C04EB830E73
:109C900002F01F021F29C4F828228EED4A7ACEED69
:109CA0006A7A40F3CE8420219FED277A013AF0EEC4
:109CB000476A4FF0000EA2EB0E0303F01F0304EB04
:109CC0008309D9ED4A5A99ED6A5AB0EEE56AB4EEC5
:109CD000C67AF1EE10FA0EF1010EB8BFB0EE467A78
:109CE0008E45E5EE856AE6DBD4F8483294F84422E6
:109CF000C4ED8D6A034484ED8E7AC4F84832032A99
:109D000000F2B582DFE812F0C6023303A50222009A
:109D1000006C00209C6D0020A86D0020F8630020DE
:109D2000E12E654214640020295C8FC251B81E05E3
:109D300058680020F0ED00E0001000E0BD378635E7
:109D40000AD7A33C8FC2F53C000000001FED037A48
:109D5000F4EEC79AF1EE10FA40F1A08400239DEDD5
:109D60000A7A84F844320022C4F84832012394ED80
:109D70008F8AD4ED909A84ED8C7AC4F83C22C4F892
:109D800040220C93D4F84CE2BEF1140F03DC0EF128
:109D9000010EC4F84CE2D4E9D43104EB830A5A1C16
:109DA00002F01F021F29C4F85023CAF85072CAEDEE
:109DB000B47A40F3DE8320211FED1D7ADDF8309068
:109DC000531EF0EE476A0E934FF0000A0E9BA3EB72
:109DD0000A0303F01F0304EB8302D2ED945A92EDC1
:109DE000B45AB0EEE56AB4EEC67AF1EE10FA0AF1B2
:109DF000010AB8BFB0EE467A8A45E5EE856AE5DB32
:109E0000D4F8703394F86C23CDF830901844C4ED36
:109E1000D76A84EDD87AC4F87003032A00F2BF81B0
:109E2000DFE812F0FA019002AF0104005FED3B7A27
:109E3000B4EEE79AF1EE10FA40F1F8830023002225
:109E400084F86C33C4F870330123D4EDD98A94EDCF
:109E5000DA9AC4F85873C4F86423C4F868230E93DC
:109E6000D4F87433142B02DC0133C4F87433BCF11E
:109E7000130F55DDBEF1130F52DD132B50DD5FEDD7
:109E80004EAACF484FF48072002125F00DFC4FF010
:109E9000000900234FF0000A19464FF48072C4F8FD
:109EA000243184F81C31C4F82031C4E9409AC548F3
:109EB000C4ED42AAC4ED43AAC4ED44AAC4ED45AA28
:109EC000C4ED46AA25F0F0FB00231946C4F84C3235
:109ED00084F84432C4F84832C4E98A9ABA48C4EDD6
:109EE0008CAA4FF48072C4ED8DAAC4ED8EAAC4ED85
:109EF0008FAAC4ED90AA25F0D7FBC4E9D49A002319
:109F0000C4EDD6AAC4EDD7AAC4EDD8AAC4F8743358
:109F100084F86C33C4F87033C4EDD9AAC4EDDAAA5E
:109F20000C9A0E998DF86020002301221F938DF862
:109F30006C10C6E90133C6E9033302218DF8842091
:109F400015AA8DF88C101E9218A91BAA8DF85450D2
:109F50008DED16AACDF85C808DED198ACDED1A9A9B
:109F6000CDED1C8A8DED1D9A2091229235B1F0EE37
:109F7000CA7AF5EEC07AF1EE10FA03DCDFEDA57ACD
:109F80004FF0FF339DF860209DF86C10002A00F020
:109F9000C882F0EEC86AF4EEE67AF1EE10FA40F10B
:109FA000C08259B1B0EEE87AF4EEC76AF1EE10FA69
:109FB00000F1D482B0EE667AF0EE476A002D00F030
:109FC000F584B0EE667A0D460123012BF0EECA7AD5
:109FD00000F09582002A00F0CA820223F0EEC86ADF
:109FE000022B77EEA67A00F0C2821DB1F0EEE86A8D
:109FF00077EEA67A28AA02EBC303DFED746A9FED21
:10A00000745A53F8282C13F8243CD2ED015A77EEF9
:10A01000A66AB4EEC57AF1EE10FA87EE266A40F130
:10A0200082840121022284F8913384F8901384F809
:10A03000A023C4EDE55AC4EDE67A84EDE76A1CF08E
:10A04000CBF9644F644E6549654D664B664ADFF84F
:10A05000B8C1A7FB007006EB9010A1FB006A4FEAA5
:10A060005A1AA1FB0A184FEA5818A5FB08594FEADB
:10A07000191956464146CAEB0A1AC8EB08184D464C
:10A0800009EB4909A0EB8A0AA6EB8808A1EBC909EC
:10A0900040F2DB7640F26D100DE0B2EBB10FC0F094
:10A0A0004E84BCEB311F2CBF4FF4B77101468D427B
:10A0B0000AD36D1A013616F0030703FB06F1ECD044
:10A0C00040F26D118D42F4D2484BA3FB06235A098E
:10A0D0006420DB094FF4C87100FB126201FB1363BB
:10A0E000002F00F06285424A1F21002702E0DFB204
:10A0F0006D1AD15DA94207F10103F8D91CF06CF982
:10A10000344B3C49CDF80CA0A3FB00239B094FF432
:10A110007A7202FB130001357B1C32460490CDE9B4
:10A120000198009534481BF0F1FE94F8A00394F8D0
:10A130009123324B324953F8222051F82010D4F8A1
:10A140009C030A92069124F0F3FC06460F46D4F8CD
:10A150009803CDE9046724F0EBFC06460F46D4F8DB
:10A160009403CDE9026724F0E3FC0A9ACDE90001EB
:10A17000244921481BF0CAFE29B0BDEC068BBDE87E
:10A18000F08FDFED237AB4EEE79AF1EE10FA40F1AA
:10A1900001840322002384F86C23C4F87033DFEDBC
:10A1A0001B7AC4F85873B4EEE79AF1EE10FA40F156
:10A1B0003F82DFED188A0023B0EE689A0E934FE6D7
:10A1C0005868002080690020A86A00206F12833A36
:10A1D000CDCC4C3ED34D62108065BC4E89888888BA
:10A1E000ABAAAAAA295C8FC2285C8F021F85EB51FB
:10A1F000303C0500CC26050088820020983C0500F4
:10A20000A43C0500202B05000AD7A3008FC2F53C13
:10A210009A99193E00000000F5EEC07AF1EE10FAAE
:10A22000BDDD07EE107AD4EDD66A77EE666AB0EE41
:10A23000086A86EEA77AF0EEC77AF4EEC67AF1EEF7
:10A2400010FAACDD0122002384F86C23C4F87033CB
:10A25000A5E71FED117AF4EEC79AF1EE10FA40F17E
:10A26000A1830322002384F84422C4F848321FED5E
:10A27000197ADDED0A6AF4EEC79AF1EE10FAC4ED30
:10A280008C6A40F10F821FED1D8A0023F0EE489A80
:10A290000C9377E5F5EEC07AF1EE10FAE7DD9DED6F
:10A2A0000A7AD4ED8C6A77EE666AB0EE086A86EEBA
:10A2B000A77AB0EEC77AB4EEC67AF1EE10FAD6DD20
:10A2C0000122002384F84422C4F84832CFE71FED6E
:10A2D000307AB4EEC7AAF1EE10FA40F15F830322A0
:10A2E000002384F81C21C4F820311FED387AC4F80B
:10A2F00008B1B4EEC7AAF1EE10FA40F1E0811FED0B
:10A300003BAA00251AEE108AB2E4F5EEC07AF1EE0F
:10A3100010FAEADD07EE10BAD4ED426A77EE666A0B
:10A32000B0EE086A86EEA77AB0EEC77AB4EEC67AC7
:10A33000F1EE10FAD9DD0122002384F81C21C4F8C3
:10A340002031D2E75FED4E7AB0EEE66AB4EEE76A0E
:10A35000F1EE10FA40F3328102220023C4EDD96AF3
:10A3600084EDDA7A84F86C23C4F8703317E71FEDB4
:10A37000586AF0EEE65AF4EEC65AF1EE10FA40F3DF
:10A38000838102220023C4ED8F6A84ED907A84F8E1
:10A390004422C4F848326AE71FED636AF0EEE65AD9
:10A3A000F4EEC65AF1EE10FA40F336810222002391
:10A3B000C4ED456A84ED467A84F81C21C4F8203146
:10A3C00093E7F1EE687AA8EEA87A17EE907AB0EEED
:10A3D000E89AFFF7A3BBA8EE087A18EE107AB0EE61
:10A3E000C89AFFF79BBBF1EE676AA7EEA77A16EE55
:10A3F000907AB0EEE79AFFF791BBF1EE487AA8EEBB
:10A40000087A17EE907AB0EEC89AFFF787BBA8EEED
:10A41000087AF0EEC89A8DED0A8AFFF76ABBA8EEBB
:10A42000A87AF0EEE89ACDED0A8AFFF762BBF1EE6A
:10A43000686AA8EEA87ACDED0A6AF0EEE89AFFF70E
:10A4400058BBF1EE486AA8EE087ACDED0A6AF0EE44
:10A45000C89AFFF74EBBF1EE676AA7EEA77ACDED7B
:10A460000A6AF0EEE79AFFF744BBA8EEA87A18EE66
:10A47000907AB0EEE89AFFF751BBB1EE407A17EE52
:10A4800010BAB0EEC0AA20EE007AFFF71DBBB1EE05
:10A49000487A17EE10BAB0EEC8AA28EE087AFFF78D
:10A4A00013BBB1EE687A17EE10BAB0EEE8AA28EE48
:10A4B000A87AFFF709BB28EEA87A18EE90BAB0EE9A
:10A4C000E8AAFFF701BB28EE087A18EE10BAB0EE42
:10A4D000C8AAFFF7F9BA1FEDB19A19EE107AFFF783
:10A4E0001DBB1FEDB4AA1AEE10BAB0EE4A7AFFF700
:10A4F000EBBA5FEDB89ACDED0A9AFFF7FABAF0EE33
:10A50000476A2946B0EE667A0D4601236DE51DF0D7
:10A510007BF9D74BA0FB0301830A43EA8153FFF782
:10A520002DBB31B1B0EEE87AF4EEC77AF1EE10FA55
:10A5300014D4581C40F01C84002300210122C4F8CC
:10A540009433C4F89833C4F89C33A4F8901384F877
:10A55000A02329B0BDEC068BBDE8F08F002D40F0A4
:10A56000F581DFEDC47A0125002A7FF436AD0223A0
:10A5700040E501312029C4F854133FF41CAC0029F4
:10A580003FF71AACD4F8702394F86C134FF0000A1C
:10A590001044C4F85CA3C4F87003C4F860A3032992
:10A5A0003FF6FDAD01A353F821F000BF19A2020050
:10A5B000BDA5020083A102002D9E0200B0F5167F0A
:10A5C0007FF6EDAD002384F86C33C4F87033E6E514
:10A5D00001312029C4F804113FF4FEAA00293FF7F5
:10A5E000FCAAD4F8203194F81C2100210344C4F8BB
:10A5F0000C11C4F82031C4F81011032A3FF675AECF
:10A6000001A151F822F000BF0BA3020019A602001D
:10A61000CFA202003F9C0200B3F5167F7FF665AE25
:10A62000002384F81C31C4F820315EE6C4F8587366
:10A63000DFED908A0023B0EE689AC4F874330E936D
:10A640006EE401312029C4F82C123FF42CAB002910
:10A650003FF72AABD4F8483294F84422002103444F
:10A66000C4F83412C4F84832C4F83812032A3FF64A
:10A67000FEAD01A151F822F095A2020089A60200C8
:10A6800053A202004D9D0200B3F5167F7FF6EFAD99
:10A69000002384F84432C4F84832E8E59DED0A7A94
:10A6A00084ED8C7A9FED738A00239E46F0EE489AE3
:10A6B000C4F84C320C93FFF76EBBC4F808B19FEDA1
:10A6C0006DAA00231AEE108A9C46C4F824311D4658
:10A6D000FFF7D7BA68480EF09DFD00283FF441AA65
:10A6E000664B674CDFF8B8810FCB0DF1780C8CE826
:10A6F0000F0094F81C310E9394F84432109394F8A0
:10A700006C330C931BF068FEDFF8A4C15D4A5E4B0E
:10A710005E49A8FB00E00CEB901CA2FB0C094FEA81
:10A72000591AA2FB0A284FEA5812A3FB023E4FEA2D
:10A730001E13C2EB0218504603EB430EA0EB880039
:10A74000CAEB0A19A2EBCE02ACEB890A1290139263
:10A75000994640F2DB7840F26D10A44610E0B1EB70
:10A76000B20FC0F0F0804A4CB4EB321F2CBF4FF454
:10A77000B772024691450CD3A9EB020908F1010812
:10A7800018F0030305FB08F2E9D040F26D12914581
:10A79000F2D2404D404A3D49A5FB080502FB08F2B4
:10A7A000ED094FF4C870B1EBB20F644600FB15859C
:10A7B000C0F00C82002D00F05482002B00F00883C2
:10A7C00036491F23002503E0D5B2A9EB03094B5DF1
:10A7D0004B4505F10102F7D91BF0FEFD304ACDF8DB
:10A7E0000CA0A2FB003209F1010300939209129B15
:10A7F00002934FF47A71139B019301FB12006B1CBF
:10A8000042460490274928481BF080FB584624F014
:10A810008FF90B460C99024628A800EB810010998D
:10A8200050F8280C28AD05EB81050E9955F8285CE9
:10A830000DF1A00C0CEB8101CDE90C2351F8281C83
:10A8400006903846CDE9041524F072F98046894611
:10A850000A98CDE9028924F06BF9DDE90C23CDE9F2
:10A860000001124910481BF051FBFFF77BB900BFF4
:10A8700040420F0000000000107A00203C3C050020
:10A880005868002089888888ABAAAAAA285C8F0209
:10A890000AD7A3001F85EB51295C8FC2303C05000D
:10A8A000D34D6210CC26050088820020AC2A05001A
:10A8B0008065BC4EC8480EF0ADFC00283FF444A9AA
:10A8C0001FAE0021242230461E9124F0EDFE3846B2
:10A8D00024F02EF902460B460A98CDE9042324F011
:10A8E00027F902460B465846CDE9022324F020F909
:10A8F000BA4ACDE900011EA8282125F05BFD1EA95A
:10A900002822B7480DF0C2FFFFF71FB9DFEDB56A87
:10A91000B4EEE67AF1EE10FA40F37D82DFEDB27A22
:10A920001420FFF742B9B7EE087AB4EEC76AF1EE29
:10A9300010FA4FF001010CD50322FFF774BB4FF45E
:10A94000B771FFF7B4BB4FF4B77213E70223FFF7F9
:10A950003CBBF5EEC05A0022F1EE10FA84F89133B8
:10A96000C4EDE55AC4EDE67A84EDE76A84F8901305
:10A9700084F8A0231DDB8B4200F00682022B00F03E
:10A980008F81002B7FF45BAB984D84EDE2AAC4F875
:10A990008C831CE0C8283FF615AE00E4C82B3FF6B8
:10A9A0003FAEA2E4C82B3FF673AE60E4DFED907AD1
:10A9B000A8E5012B00F07E81022B00F0EF81002B37
:10A9C0007FF43DAB8B4D84EDE2AAC4F88C83002468
:10A9D0002146242230461E9424F066FE584624F078
:10A9E000A7F802460B460A98CDE90A2324F0A0F8FE
:10A9F0000B4602463846CDE90C2324F099F802466E
:10AA000092468B461AEE100ACDE90EAB24F090F870
:10AA10000246894640469046CDE9108924F088F8E0
:10AA200049EC178B8DED067B4BEC17AB8DED047B62
:10AA30009DED0C7B8DED027B9DED0A7B06460F465E
:10AA40008DED007B2B466C4A2821CDE908671EA8B6
:10AA500025F0B0FC1EA9282261480DF017FF1BF05D
:10AA6000BBFC664B664A1C72586010601BF0B4FC5D
:10AA70006449654A654BDFF8A0E1DFF8B0C1A1FB8E
:10AA8000001002EB9010A3FB00125209A3FB023A44
:10AA90004FEA5A1AA4F155341146A4FB0A2B4FEA87
:10AAA0001B1B5346C1EB0112CAEB0A1AD8460BEB2B
:10AAB0004B0BA3EBCB0BA0EB8202A1EB8A0A40F27B
:10AAC000DB7940F26D130FE0BEEBB10FC0F0FC80FC
:10AAD000BCEB311F2CBF4FF4B771194688450DD31D
:10AAE000A8EB010809F10109494919F0030401FB28
:10AAF00009F1E9D040F26D118845F1D2454B444946
:10AB00004548A3FB09C301FB09F1DB094FF4C87CED
:10AB1000B0EBB10F0CFB1393C0F0D980002B00F009
:10AB2000E480002C00F006813C481F23002403E051
:10AB3000CCB2A8EB0308035D434504F10101F7D94A
:10AB400012921BF049FC2F4B129A0392A3FB002395
:10AB50009B094FF47A7101FB130008F10102009286
:10AB6000631C4A460490CDE901BA2D492D481BF0DB
:10AB7000CDF99DED107B8DED067B9DED0E7B8DED72
:10AB8000047B9DED0C7B8DED027B9DED0A7BCDE979
:10AB900008678DED007B244922482A461BF0B6F950
:10ABA00029B0BDEC068BBDE8F08F002A49D1002BFF
:10ABB00000F0FE8019491F2302E0D7B2ED1ACB5DE9
:10ABC000AB4207F10102F8D9FFF798BA1349002BFD
:10ABD00056D01F2300252FE0107A0020982A050068
:10ABE000006800200024F4480AD7A33C802A05000E
:10ABF00000000000502A0500642B05000C600020B6
:10AC0000306D0020D34D62108065BC4E89888888E5
:10AC1000295C8FC21F85EB51285C8F02303C0500F8
:10AC2000CC26050088820020E42A05000AD7A3006C
:10AC3000D5B2A9EB03094B5D994505F10102F7D2A5
:10AC4000CAE57A481F2202E0CFB2ED1AC25D012F99
:10AC5000134608BF531C9D4207F10101F4D2FFF7D0
:10AC60004DBA002B00F0C180704A1F2303E0CDB223
:10AC7000A9EB0309535D994505F10101F7D2ABE555
:10AC80001D461F2203E0C5B2A9EB03094A5D012D51
:10AC9000134608BF531C994505F10100F3D29BE50B
:10ACA00019EE108A624DC4EDE28A84EDE39AB0EEAB
:10ACB00068AA8CE619EE908A5E4D84EDE28AC4EDB6
:10ACC000E39AB0EE48AA82E64FF4B77106E7FCB10A
:10ACD00056481F23002403E0CCB2A8EB0308035D11
:10ACE000434504F10101F7D92AE77CB31C464F49DB
:10ACF0001F2306E09845FFF423AFC4B2A8EB030876
:10AD00000B5D012C04F10100F4D14345F5D917E79F
:10AD1000DFF818C11F2104E0C4B2A8EB03081CF837
:10AD20000410012C0B4608BF4B1C984504F1010090
:10AD3000F2D205E73D491F2303E0C4B2A8EB0308A4
:10AD40000B5D434504F10100F7D9F9E6DFF8DCC0FB
:10AD50001F2104E0C4B2A8EB03081CF80410012C66
:10AD60000B4608BF4B1C434504F10100F2D9E7E64E
:10AD7000B0EE677A002B7FF41FA9002A46D1DFEDE1
:10AD80002E7A0D46FFF731B919EE908A2B4D84EDDE
:10AD9000E28AC4EDE39AB0EE48AA18E619EE108AEA
:10ADA000274DC4EDE28A84EDE39AB0EE68AA0EE680
:10ADB0001E481F2202E0CFB2ED1AC25D012F1346DA
:10ADC00008BF531CAB4207F10101F4D9FFF796B954
:10ADD0001D46164A1F2303E0CDB2A9EB0309535DBC
:10ADE000994505F10101F7D2F6E410491D461F22ED
:10ADF00003E0C5B2A9EB03094A5D012D134608BF64
:10AE0000531C4B4505F10100F3D9E5E4DFED0A7A67
:10AE10000D46FFF7E3B89FED0B7A27EE877ABCEE7D
:10AE2000C77A17EE100AFEF7C0BE00BF303C05001F
:10AE30008C2A0500742A050000000000682A05001D
:10AE40005C2A050000007A442DE9F04F2DED028BBD
:10AE50000C2B8DB040F028811368DFEDC17A51686A
:10AE60009268099308EE103AB4EE678AF1EE10FA90
:10AE7000CDE90A12894600F0B0809246B94BBA4932
:10AE80001A78BA4B81ED008AB948BA49C3F80090E4
:10AE90000123C0F800A00B7022B1B74A1178002935
:10AEA00000F00A821BF098FAB44CB54AB54FB64D83
:10AEB000DFF8E4C2B549B64BA4FB004002EB9010AA
:10AEC000A7FB002B4FEA5B1BA7FB0B277F09A5FB0A
:10AED00007584FEA18185C463A46CBEB0B1BC7EBFA
:10AEE0000717454608EB4808A0EB8B0BA4EB870738
:10AEF000A2EBC80840F2DB7640F26D100DE0B1EB3A
:10AF0000B20FC0F0CE80B3EB321F2CBF4FF4B7723C
:10AF1000024695420AD3AD1A013616F003040CFB23
:10AF200006F2ECD040F26D129542F4D2994B9A4A57
:10AF30009649A3FB060302FB06F2DB094FF4C87037
:10AF4000B1EBB20F00FB1363C0F06781002B00F080
:10AF5000908192491F23002C00F09D81002402E083
:10AF6000D4B2ED1A0B5D9D4204F10102F8D21BF040
:10AF700033FA824B8A49CDF80CB0A3FB00239B091E
:10AF80004FF47A7202FB13000135631C32460095C0
:10AF90000490CDE9018783481AF0B8FF18EE100A33
:10AFA00023F0C6FD02460B465046CDE9062323F0AA
:10AFB000BFFD04460D464846CDE9024523F0B8FDE5
:10AFC000DDE90623CDE90001774976481AF09EFFB6
:10AFD0000DB0BDEC028BBDE8F08F07EE101AB4EE99
:10AFE000677AF1EE10FA92467FF448AF07EE102A26
:10AFF000B4EE677AF1EE10FA7FF440AF6B496C4A19
:10B000005C4D6C4C6C485C4E5E4F002381F82C31DB
:10B0100082F82C312B702370337003701BF0DCF935
:10B02000564A574D584C5C4B5849DFF864C1A2FB57
:10B03000000205EB9212A7FB02094FEA5919A7FB80
:10B0400009077F09A4FB07484FEA18184D46384600
:10B05000C9EB0919C7EB0717444608EB4808A5EBED
:10B060008707A0EBC808A2EB890940F2DB7540F224
:10B070006D100EE0B1EBB20FC0F0F381BCEB321FEC
:10B080002CBF4FF4B77202469442C0F0ED81A41A6F
:10B09000013515F0030603FB05F2EBD040F26D120B
:10B0A000F2E74FF4B77234E71F461BF095F9334EC1
:10B0B000334D344A344C3849344BDFF8D4C0A6FB06
:10B0C000006005EB9010A2FB005A4FEA5A1AA2FB4F
:10B0D0000A284FEA5818A4FB08494FEA191955469F
:10B0E0004246CAEB0A1AC8EB08184C4609EB490954
:10B0F000A0EB8A0AA5EB8808A2EBC90940F2DB762F
:10B1000040F26D100DE0B3EBB20FC0F08380BCEBEA
:10B11000321F2CBF4FF4B772024694420AD3A41ACE
:10B12000013616F0030501FB06F2ECD040F26D1279
:10B130009442F4D2174B184A1449A3FB060302FBAE
:10B1400006F2DB094FF4C870B1EBB20F00FB1363DA
:10B1500077D2002D00F03A8110491F23002530E0FE
:10B1600000C079C480640020E4640020846400206E
:10B17000E8640020886400204C670020D34D6210F2
:10B180008065BC4E89888888ABAAAAAA285C8F02F1
:10B190000AD7A3001F85EB51295C8FC2303C050004
:10B1A000CC26050088820020182C0500106600209F
:10B1B000386E002044670020206D0020D5B2E41ACC
:10B1C0004B5D9C4205F10102F8D21BF005F9AF4B33
:10B1D000AF49CDF80CA0A3FB00239B094FF47A7272
:10B1E00002FB1300013432466B1C0490CDE9019838
:10B1F0000094A8481AF08AFEA749A6481AF0D8FD7C
:10B20000A649A4483A460DB0BDEC028BBDE8F04F0C
:10B210001AF07CBE4FF4B7727FE7002C40D1A048F3
:10B220001F2205E0AA423FF6A2AECCB2ED1A025DA3
:10B23000012C04F101011346F4D1531C9D42F4D2B8
:10B2400095E6002B00F0B48095491F2365B10025D9
:10B2500002E0D5B2E41A4B5DA34205F10102F8D930
:10B26000B3E7D5B2E41A4B5DA34205F10102F8D968
:10B27000ABE7002C00F0B9801C4689491F2302E08F
:10B28000D4B2ED1A0B5D9D4204F10102F8D26EE6D4
:10B29000D4B2ED1A0B5D9D4204F10102F8D266E6CC
:10B2A0007F491F23002402E0D4B2ED1A0B5D9D42BA
:10B2B00004F10102F8D25AE613701BF08DF8734DB9
:10B2C000784A794F794C7A4B7A49DFF8F4C1A5FB7B
:10B2D000005002EB9010A7FB002B4FEA5B1BA7FB73
:10B2E0000B277F09A4FB07484FEA18185D463A462A
:10B2F000CBEB0B1BC7EB0717444608EB4808A0EB4A
:10B300008B0BA5EB8707A2EBC80840F2DB7540F278
:10B310006D100CE0B1EBB20F47D3BCEB321F2CBF6A
:10B320004FF4B772024694420AD3A41A013515F0BD
:10B33000030603FB05F2EDD040F26D129442F4D205
:10B340005D4BA3FB05235A096420DB094FF4C87148
:10B3500000FB125201FB1353002E55D050491F23FE
:10B36000002602E0D6B2E41A8B5D9C4206F101028F
:10B37000F8D21BF031F8454B4549CDF80CB0A3FB92
:10B3800000239B094FF47A7202FB130001340490EE
:10B39000CDE901870094731C2A463E481AF0B6FD99
:10B3A00046493C481AF0B2FD7CE54FF4B772BAE763
:10B3B000002D38D01D463A491F2302E0D5B2E41AC9
:10B3C0004B5DA34205F10102F8D9FEE634481F2285
:10B3D00002E0CDB2E41A425D012D134608BF531CB2
:10B3E0009C4205F10101F4D2EFE62D481F2202E054
:10B3F000CCB2ED1A025D012C134608BF531C9D42CE
:10B4000004F10101F4D2B2E5E2B9002B00F08E8024
:10B4100023491F2302E0D6B2E41A8B5D9C4206F159
:10B420000102F8D2A5E71E481F2202E0CDB2E41ABD
:10B43000425D012D134608BF531CA34205F10101D3
:10B44000F4D9C2E616481F2202E0CEB2E41A825DA9
:10B45000012E134608BF531C9C4206F10101F4D291
:10B4600087E74FF4B7720FE6134BA3FB05235A0986
:10B470006420DB094FF4C87100FB125201FB135327
:10B48000002E46D006491F2300261EE0D34D621031
:10B49000CC260500888200204C280500802B050062
:10B4A000303C05008065BC4E89888888ABAAAAAA72
:10B4B000295C8FC2285C8F021F85EB51E82B0500A9
:10B4C0000AD7A300D6B2E41A8B5D9C4206F10102B2
:10B4D000F8D21AF081FF2C4BCDF80C90A3FB00237F
:10B4E0009B094FF47A7101FB130101340491CDE9FA
:10B4F000018726490094731C2A4625481AF006FD48
:10B50000244923480DB0BDEC028BBDE8F04F1AF082
:10B51000FDBCD2B943B320491F2302E0D6B2E41ADE
:10B520008B5D9C4206F10102F8D2D2E71A481F2235
:10B5300002E0CEB2E41A825D012E134608BF531C0E
:10B540009C4206F10101F4D213E713481F2202E0E6
:10B55000CEB2E41A825D012E134608BF531C9C42F2
:10B5600006F10101F4D2B4E70B481F2202E0CEB28B
:10B57000E41A825D012E134608BF531C9C4206F15B
:10B580000101F4D2A5E700BFD34D6210CC2605001F
:10B5900088820020A82B0500303C0500012B40F0DC
:10B5A00054812DE9F04FC34914780878221E18BF42
:10B5B0000122904291B000F045810A70002C40F0C9
:10B5C0000182BD4B1B78002B40F04081BB4B1B78A8
:10B5D000002B00F01D84BA4BBA4FBB4EBB48002570
:10B5E0001D600AA900230C22CDE90A333D603560B5
:10B5F0000C930DF00FF91AF0EFFEB54FB54EB649AA
:10B60000B64DB74BB74ADFF810C3A7FB007006EB87
:10B610009010A1FB006B4FEA5B1BA1FB0B184FEADC
:10B620005818A5FB08594FEA19195E464146CBEB5D
:10B630000B1BC8EB08184D4609EB4909A0EB8B0B17
:10B64000A6EB8808A1EBC90940F2DB7740F26D1048
:10B650000DE0B2EBB10FC0F0B281BCEB311F2CBFDB
:10B660004FF4B77101468D420AD36D1A013717F0B6
:10B67000030603FB07F1ECD040F26D118D42F4D2CA
:10B68000994B974A9749A3FB070302FB07F2DB0993
:10B690004FF4C870B1EBB20F00FB1373C0F091828E
:10B6A000002B00F00D839149002E00F0428400260B
:10B6B0001F2302E0D6B2ED1A8B5D9D4206F1010216
:10B6C000F8D21AF089FEDFF808A28949CDF80CB04B
:10B6D000AAFB00239B094FF47A7202FB1300013589
:10B6E000CDE90198731C3A460095049081487A4F41
:10B6F0001AF00CFC00220023CDE90223CDE900233F
:10B700007D497C481AF002FC00230DA90C227B48DD
:10B710000D930E930F930DF07DF80DA90C22774831
:10B720000DF0B4F802250023072207A97448CDF8CC
:10B730001D30ADF821308DF81C500DF0A7F81AF02F
:10B740004BFE644B654D6649DFF898C1DFF8C8E1F0
:10B75000AAFB002A03EB9A1AA7FB0A394FEA5919E8
:10B76000A7FB09377F09A5FB07084FEA18184A46C7
:10B770003B46C9EB0919C7EB0717454608EB4808D4
:10B78000AAEB8909A2EB8707A3EBC80840F2DB7696
:10B7900040F26D100DE0BCEBB30FC0F02483BEEBA4
:10B7A000331F2CBF4FF4B77303469D420AD3ED1AE3
:10B7B000013616F0030201FB06F3ECD040F26D13E4
:10B7C0009D42F4D2484BA3FB061359094FF0640C79
:10B7D000DB094FF4C8700CFB116100FB1363002AF6
:10B7E00000F0048341491F2302E0D4B2ED1A0B5D3F
:10B7F0009D4204F10102F8D21AF0EEFD344B3C49AF
:10B80000CDF80C90A3FB00239B094FF47A7202FB46
:10B8100013000135631C32460490CDE90187354899
:10B8200000951AF073FB37493248374C1AF06EFB1B
:10B8300036483749374A002384F82C3180F82C31B8
:10B840000B70137011B0BDE8F08F70471B4B1B7865
:10B85000002B00F0EB821AF0BFFD1D4A1D4B1E4F5E
:10B860001E4D1F49DFF87CC0DFF8ACE0A2FB0020D2
:10B8700003EB9010A7FB00394FEA5919A7FB0937D2
:10B880007F09A5FB07584FEA18184A463B46C9EB03
:10B890000919C7EB0717454608EB4808A0EB8909CB
:10B8A000A2EB8707A3EBC80840F2DB7640F26D10ED
:10B8B00041E000BF806400204C670020A86D00209C
:10B8C000E464002084640020E8640020A86700206D
:10B8D000D34D62108065BC4E89888888ABAAAAAA1D
:10B8E000295C8FC2285C8F021F85EB51303C05001C
:10B8F000CC26050088820020A42C05008C64002042
:10B900006C6F0020D02C050010660020386E0020DF
:10B9100044670020206D00200AD7A300BCEBB30FC2
:10B920004AD3BEEB331F2CBF4FF4B77303469D427F
:10B930000AD3ED1A013616F0030201FB06F3EDD02F
:10B9400040F26D139D42F4D2B04BA3FB061359098C
:10B950004FF0640CDB094FF4C8700CFB116100FB65
:10B960001363002A00F01C81A9491F2302E0D4B20E
:10B97000ED1A0B5D9D4204F10102F8D21AF02CFD84
:10B98000A44BA549CDF80C90A3FB00239B094FF4D1
:10B990007A7202FB13000135631C32460490CDE934
:10B9A000018700959D481AF0B1FA9D499B481AF00D
:10B9B000ADFA11B0BDE8F08F4FF4B773B7E74FF4AD
:10B9C000B77150E6974A934D13701AF005FD9649EA
:10B9D000964F974C974B984ADFF86CC2A5FB0050E6
:10B9E00001EB9010A7FB00194FEA5919A7FB0917A3
:10B9F0007F09A4FB07484FEA18184D463946C9EBA2
:10BA00000919C7EB0717444608EB4808A0EB89095A
:10BA1000A5EB8707A1EBC80840F2DB7640F26D107A
:10BA20000DE0B2EBB10FC0F0B580BCEB311F2CBF05
:10BA30004FF4B77101468C420AD3641A013616F0EE
:10BA4000030503FB06F1ECD040F26D118C42F4D2F9
:10BA50006E4BA3FB06235A096420DB094FF4C8711F
:10BA600000FB126201FB1363002D00F0B8806849EF
:10BA70001F23002502E0D5B2E41A4B5D9C4205F17C
:10BA80000102F8D21AF0A8FCDFF888A16249CDF8CB
:10BA90000C90AAFB00239B094FF47A7202FB13005F
:10BAA00001346B1C32460490CDE901875B48009459
:10BAB0001AF02CFA614959481AF028FA604B1B78A1
:10BAC00023B1604B1A78002A00F04A811AF084FCF6
:10BAD000504D5549554F564C564B574ADFF868C1A3
:10BAE000A5FB005001EB9010A7FB00194FEA591974
:10BAF000A7FB09177F09A4FB07484FEA18184D4612
:10BB00003946C9EB0919C7EB0717444608EB480843
:10BB1000A0EB8909A5EB8707A1EBC80840F2DB760B
:10BB200040F26D100CE0B2EBB10F36D3BCEB311F1D
:10BB30002CBF4FF4B77101468C420AD3641A013608
:10BB400016F0030503FB06F1EDD040F26D118C42B7
:10BB5000F4D22E4B374A3849A3FB060302FB06F208
:10BB6000DB094FF4C870B1EBB20F00FB136347D38E
:10BB7000002B00F0E68026491F23002D00F0DC801A
:10BB8000002502E0D5B2E41A4B5DA34205F10102A3
:10BB9000F8D968E04FF4B7714DE74FF4B771CBE7D0
:10BBA000002940F09C80002B00F0A58118491F233C
:10BBB00002E0D4B2ED1A0B5D9D4204F10102F8D20D
:10BBC000DCE6002E6DD0124900261F2302E0D6B21B
:10BBD000ED1A8B5D9D4206F10102F8D271E5002A53
:10BBE00040F09880002B00F0AF8109491F2302E04C
:10BBF000D5B2E41A4B5D9C4205F10102F8D241E74F
:10BC0000002D7BD102481F2225E000BF1F85EB518C
:10BC1000303C0500D34D6210CC2605008882002000
:10BC2000002D0500FE6300208065BC4E8988888851
:10BC3000ABAAAAAA295C8FC2285C8F02502C0500EF
:10BC4000886400204C6700200AD7A300A2420AD8CB
:10BC5000CDB2E41A425D012D05F101011346F5D183
:10BC6000531C9C42F4D21AF0B7FBB94BB949CDF83A
:10BC70000C90A3FB00239B094FF47A7202FB130084
:10BC800001346B1C32460490CDE901870094B24820
:10BC90001AF03CF9B149B0481AF038F911B0BDE8D2
:10BCA000F08FAF481F2202E0CEB2ED1A825D012E66
:10BCB000134608BF531C9D4206F10101F4D200E572
:10BCC000002E00F008811E46A5491F2302E0D6B2CF
:10BCD000ED1A8B5D9D4206F10102F8D2F1E4A04815
:10BCE0001F2202E0CCB2ED1A025D012C134608BF00
:10BCF000531C9D4204F10101F4D23FE698491F23F1
:10BD0000002502E0D5B2E41A4B5DA34205F1010221
:10BD1000F8D9A8E792481F2202E0CDB2E41A425DAA
:10BD2000012D134608BF531C9C4205F10101F4D2BA
:10BD3000A8E6D5B2E41A4B5DA34205F10102F8D999
:10BD400091E7002D00F02C811D4685491F2302E05C
:10BD5000D5B2E41A4B5DA34205F10102F8D982E79E
:10BD600001221A701AF038FB7E4B7F4F7F4C804ABD
:10BD70008049DFF810C2AAFB000A03EB9A1AA7FB5E
:10BD80000A394FEA5919A7FB09377F09A4FB07486D
:10BD90004FEA181848463B46C9EB0919C7EB071785
:10BDA000444608EB4808A0EB8707AAEB8909A3EBF8
:10BDB000C80840F2DB7540F26D100CE0B1EBB30F38
:10BDC00023D3BCEB331F2CBF4FF4B77303469C4205
:10BDD0004BD3E41A013515F0030602FB05F3EDD051
:10BDE00040F26D13F3E74FF4B773DEE459BB002B59
:10BDF00000F090805A491F2302E0D4B2ED1A0B5D87
:10BE00009D4204F10102F8D2F6E44FF4B773DEE785
:10BE1000234622460521584809F0BAFD234622460A
:10BE20000621554809F0B4FDFFF7D5BB234622464D
:10BE30000521514809F0ACFD2346224606214E4813
:10BE400009F0A6FD07E546481F2205E0AA423FF695
:10BE5000D3ACCCB2ED1A025D012C04F10101134602
:10BE6000F4D1531C9D42F4D2C6E4444BA3FB0523FA
:10BE70005A096420DB094FF4C87100FB125201FB20
:10BE80001353002E00F09B8035491F23002602E04B
:10BE9000D6B2E41A8B5DA34206F10102F8D91AF07A
:10BEA0009BFA2B4BCDF80C90A3FB00239B094FF47E
:10BEB0007A7101FB130101340491CDE90187254911
:10BEC0000094731C2A4624481AF020F82C49224872
:10BED0001AF01CF8FAE522481F2202E0CEB2ED1A51
:10BEE000825D012E134608BF531C9D4206F10101DD
:10BEF000F4D2FFF7E6BB1A481F2202E0CCB2ED1ADB
:10BF0000025D012C134608BF531C9D4204F1010140
:10BF1000F4D233E512481F2202E0CCB2ED1A025DE2
:10BF2000012C134608BF531C9D4204F10101F4D2B9
:10BF300062E41F2302E0D6B2ED1A8B5D9D4206F14A
:10BF40000102F8D2FFF7BDBB05481F221FE000BF6A
:10BF5000D34D6210CC26050088820020942C050069
:10BF6000303C05008065BC4E89888888ABAAAAAAA7
:10BF7000295C8FC2285C8F02006C00201F85EB516A
:10BF80006C2C05000AD7A300CDB2E41A425D012D46
:10BF9000134608BF531C9C4205F10101F4D271E520
:10BFA0001C481F2202E0CDB2E41A425D012D134667
:10BFB00008BF531CA34205F10101F4D953E65AB955
:10BFC000CBB114491F2302E0D6B2E41A8B5DA34221
:10BFD00006F10102F8D962E70E481F2202E0CEB254
:10BFE000E41A825D012E134608BF531C9C4206F1E1
:10BFF0000101F4D253E707481F2202E0CEB2E41A4F
:10C00000825D012E134608BF531CA34206F10101B5
:10C01000F4D944E7303C0500A34B1B7803B17047CB
:10C020002DE9F04FA1488BB009F046FC07461AF005
:10C03000D3F99F4B9F4A1B6819684C68944281460C
:10C0400040F036827A1ED2B2022A00F221825A6869
:10C0500040F2DB51821A8A4200F2B981964B1B787A
:10C0600023B1964B1B78002B00F0B481944B1A78C7
:10C07000BA4200F08E801F701AF0AEF9914E924DC8
:10C08000924A934C9349944BDFF87CC2A6FB006024
:10C0900005EB9010A2FB005B4FEA5B1BA2FB0B2899
:10C0A0004FEA5818A4FB084A4FEA1A1A5D4642465E
:10C0B000CBEB0B1BC8EB081854460AEB4A0AA0EB63
:10C0C0008B0BA5EB8808A2EBCA0A40F2DB7640F2A4
:10C0D0006D100DE0B3EBB20FC0F0B380BCEB321FBC
:10C0E0002CBF4FF4B772024694420AD3A41A013609
:10C0F00016F0030501FB06F2ECD040F26D129442FB
:10C10000F4D2764AA2FB063253096420D2094FF4D6
:10C11000C87100FB136301FB1262002D00F0AA81BD
:10C120006F491F23002502E0D5B2E41A4B5D9C4203
:10C1300005F10102F8D21AF04FF9624B6949CDF8C6
:10C140000CB0A3FB00239B094FF47A7202FB13008F
:10C1500001346B1C32460490CDE901A8624800947A
:10C1600019F0D4FE614960483A4619F0CFFE6048A4
:10C170000DF050F868B101238DF819708DF8183062
:10C18000BDF818305B48ADF81C30022207A90CF04E
:10C190007DFB594B1B78002B00F08280032F40F26F
:10C1A000B580564B5648197800220260002977D096
:10C1B00014213E481A7009F095FB1AF00DF9414A16
:10C1C000414D424F424C434B4349DFF83CC1A2FB37
:10C1D000000205EB9212A7FB02094FEA5919A7FBCF
:10C1E00009077F09A4FB07484FEA18184D4638464F
:10C1F000C9EB0919C7EB0717444608EB4808A5EB3C
:10C200008707A0EBC808A2EB890940F2DB7540F272
:10C210006D100EE0B1EBB20FC0F04181BCEB321FEC
:10C220002CBF4FF4B77202469442C0F05581A41A55
:10C23000013515F0030603FB05F2EBD040F26D1259
:10C24000F2E74FF4B7724FE725481F2204E0A242FD
:10C250000AD8CEB2E41A825D012E06F1010113461E
:10C26000F5D1531C9C42F4D21AF0B6F8154BCDF818
:10C270000CA0A3FB00239B094FF47A7101FB13016F
:10C2800001342A460491CDE90198164916480094D4
:10C29000731C19F03BFE3A781A49134819F036FE20
:10C2A0000BB0BDE8F08F00BF346E0020006C0020A2
:10C2B0005C600020ED72020044670020886400206A
:10C2C00004600020D34D62108065BC4E8988888848
:10C2D000ABAAAAAA295C8FC2285C8F021F85EB51EA
:10C2E000303C0500CC26050088820020942D0500F6
:10C2F000107A00206C6F002080640020EC63002026
:10C30000F0630020F42D05000AD7A30000F0CA80D6
:10C31000BF4F3B78002B00F0C580BE4A1368002B4E
:10C3200000F03B81BC4A11780029B9D1A9EB030385
:10C3300041F287318B42B3D901236421B74813708E
:10C3400009F0D0FA1AF048F8B54BB64DB64CB74ED6
:10C35000B74AB849DFF800C3A3FB000305EB931508
:10C36000A4FB053A4FEA5A1AA4FB0A344FEA5418C0
:10C37000A6FB08464FEA161950464346CAEB0A1A6E
:10C38000C8EB08184C4609EB4909A5EB8A0AA0EB53
:10C390008808A3EBC90940F2DB7540F26D100EE08E
:10C3A000B1EBB30FC0F07581BCEB331F2CBF4FF462
:10C3B000B77303469C42C0F00482E41A013515F0BD
:10C3C000030602FB05F3EBD040F26D13F2E7012206
:10C3D0001A7243E6032F00F0E3807FF647AE964AD9
:10C3E000117800293FF442AE137019F0F5FF8C4B21
:10C3F0008C4D8D4E8D4C8E4A8E49DFF85CC2A3FB6E
:10C40000000305EB9315A6FB053B4FEA5B1BA6FB60
:10C410000B364FEA5618A4FB08644FEA141A584624
:10C420004346CBEB0B1BC8EB081854460AEB4A0AF1
:10C43000A5EB8B0BA0EB8808A3EBCA0A40F2DB75D7
:10C4400040F26D100EE0B1EBB30FC0F01F81BCEBFA
:10C45000331F2CBF4FF4B77303469C42C0F0528188
:10C46000E41A013515F0030602FB05F3EBD040F2A8
:10C470006D13F2E70BBB002A69D070491F2302E05D
:10C48000D5B2E41A4B5D9C4205F10102F8D252E6A6
:10C490005860032F84BF6A4BC3F80090DEE54FF469
:10C4A000B772C1E65B4B00221A600BB0BDE8F08F9B
:10C4B00018464A463946A047EBE760481F2202E08B
:10C4C000CDB2E41A425D012D134608BF531C9C42B5
:10C4D00005F10101F4D22EE65A4B554A5549A3FB0A
:10C4E000050302FB05F2DB094FF4C870B1EBB20F94
:10C4F00000FB13533AD3002B00F050814F491F2308
:10C50000002E45D0002602E0D6B2E41A8B5DA3428D
:10C5100006F10102F8D919F05FFF414BCDF80C90FC
:10C52000A3FB00239B094FF47A7101FB1301013433
:10C530000491CDE9018744490094731C2A4643487D
:10C5400019F0E4FC4249414819F0E0FCA8E63B48F8
:10C550001F2202E0CDB2E41A425D012D134608BF4E
:10C56000531C9C4205F10101F4D2E4E5002E00F0D9
:10C57000038132491F23002602E0D6B2E41A8B5D04
:10C58000A34206F10102F8D9C5E7D6B2E41A8B5DE1
:10C59000A34206F10102F8D9BDE7C2F800907FE698
:10C5A000254B1A78002A7FF461AD2A491D4DC1F848
:10C5B000009001221A7019F00FFF194B1A4E1B4CF4
:10C5C0001B4A1C49DFF890C0A3FB000305EB931541
:10C5D000A6FB053B4FEA5B1BA6FB0B364FEA561842
:10C5E000A4FB08644FEA141A58464346CBEB0B1BD6
:10C5F000C8EB081854460AEB4A0AA5EB8B0BA0EBD4
:10C600008808A3EBCA0A40F2DB7540F26D1032E0F5
:10C610004D670020F0630020EC630020006C0020D8
:10C62000D34D62108065BC4E89888888ABAAAAAABF
:10C63000295C8FC2285C8F02206D0020303C0500F1
:10C64000306D00201F85EB51CC260500888200202C
:10C65000D82D0500686F00200AD7A300B1EBB30FF7
:10C6600011D3BCEB331F2CBF4FF4B77303469C426E
:10C6700012D3E41A013515F0030602FB05F3EDD0E1
:10C6800040F26D13F3E74FF4B773F0E74FF4B7736D
:10C69000E3E64FF4B7738DE69D4BA3FB05235A09E0
:10C6A0006420DB094FF4C87100FB125201FB1353E5
:10C6B000002E00F0A08097491F23002602E0D6B28A
:10C6C000E41A8B5D9C4206F10102F8D219F084FE57
:10C6D000914BCDF80CB0A3FB00239B094FF47A716A
:10C6E00001FB130101340491CDE901A88B490094A9
:10C6F000731C2A468A4819F009FC8A49884819F0AF
:10C7000005FCB3E4824BA3FB05235A096420DB0933
:10C710004FF4C87100FB125201FB1353002E00F0BE
:10C7200088807C491F23002602E0D6B2E41A8B5D84
:10C730009C4206F10102F8D219F04EFE764BCDF87C
:10C740000CB0A3FB00239B094FF47A7101FB13018A
:10C750000134731C2A460491CDE901A86F49009465
:10C760006F4819F0D3FB704B70491A686C48A9EBFD
:10C77000020219F0CBFB79E466481F2205E0A242D1
:10C780003FF6C9AECEB2E41A825D012E06F1010178
:10C790001346F4D1531C9C42F4D2BCE6002E39D08F
:10C7A0001E465C491F2305E09C42FFF4B4AED6B29E
:10C7B000E41A8B5D012E06F10102F5D1A342F6D9F0
:10C7C000A9E6534BA3FB05235A096420DB094FF468
:10C7D000C87100FB125201FB1353002E37D04D4994
:10C7E0001F23002602E0D6B2E41A8B5DA34206F1B5
:10C7F0000102F8D938E5002A3ED1002B5AD045492C
:10C800001F2302E0D6B2E41A8B5D9C4206F10102BE
:10C81000F8D25BE73F481F2202E0CEB2E41A825D05
:10C82000012E134608BF531CA34206F10101F4D99F
:10C8300071E682BB002B4CD036491F2302E0D6B2F2
:10C84000E41A8B5D9C4206F10102F8D274E7002ADB
:10C850007FF4FAAC002B4BD02E491F2305E09C42FD
:10C86000FFF402ADD6B2E41A8B5D012E06F101028F
:10C87000F5D1A342F6D9F7E426481F2202E0CEB252
:10C88000E41A825D012E134608BF531C9C4206F138
:10C890000101F4D21AE71F481F2202E0CEB2E41AC7
:10C8A000825D012E134608BF531C9C4206F1010114
:10C8B000F4D241E717481F2202E0CEB2E41A825DAB
:10C8C000012E134608BF531C9C4206F10101F4D20D
:10C8D000FCE610481F2202E0CEB2E41A825D012E6F
:10C8E000134608BF531C9C4206F10101F4D223E712
:10C8F00008481F2202E0CEB2E41A825D012E1346E0
:10C9000008BF531C9C4206F10101F4D2ACE400BF05
:10C910001F85EB51303C0500D34D6210CC2605003D
:10C9200088820020402D0500686F0020642D0500DE
:10C93000C54B1B7803B170472DE9F04F2DED048BEB
:10C94000C2489BB008F098FFC048F0EE408A08F05B
:10C950009BFFBE48B0EE408A08F09EFFBC4A92F9A9
:10C9600000300333F0EE407A062B00F2B081DFE8AE
:10C9700013F0B300AE00A900AE019F009A000700BB
:10C9800020EE007AF0EE406A92F901300333062B74
:10C9900000F29A81DFE813F082007D0078009801B0
:10C9A000910073000700A7EEA77AB0EE676A92F9CC
:10C9B00002300333062B00F28481DFE813F05B00C2
:10C9C0005600510082014C0047000700A7EEA77AED
:10C9D000DFEDA05AB4EEE57AF1EE10FA31D4F1EEC3
:10C9E000C75AB7EE005A85EE257AF6EE085A27EEBA
:10C9F000878A66EE878AF0EEC87AF4EEE57AF1EE81
:10CA000010FA26EE079A6CDC934E944F3278F0EED3
:10CA1000E87AF4EEE57AF1EE10FACCBF01230223B6
:10CA20009A4264D0337001233B708D4A8D4D136858
:10CA30008D490133136005FB03F3B1EB730F80F0F5
:10CA4000C8801BB0BDEC048BBDE8F08FA8EE087A5F
:10CA5000F0EE487ABCE7A8EEA87AF0EE687AB7E77D
:10CA6000A8EEA87AF1EE687AB2E7A8EE087AF1EEBD
:10CA7000487AADE7A7EEA77AF1EE677AA8E7A8EEC5
:10CA8000087AB0EE486A92E7A8EEA87AB1EE686A32
:10CA90008DE7A8EE087AB1EE486A88E7A7EEA77A94
:10CAA000B1EE676A83E728EE087AF0EE486A6BE732
:10CAB00028EEA87AF0EE686A66E7A8EEA87AB0EEEB
:10CAC000686A74E728EEA87AF1EE686A5CE728EEF7
:10CAD000087AF1EE486A57E720EE007AF1EE406AF4
