:020000022000DC
:1070000000000420DD8004001D8104001F810400B5
:107010002181040023810400258104000000000078
:107020000000000000000000000000005980040083
:107030002981040000000000798004002D810400F3
:10704000318304002F8104002F810400617103004B
:10705000157203002F810400ED5A04002F810400F3
:107060002F8104002F8104002F8104002F81040050
:107070002F8104002F8104002F8104002F81040040
:107080002F810400A97D04002F8104002F810400BA
:107090002F8104002F810400E5A203002F8104004A
:1070A0002F8104002F8104002F8104002F81040010
:1070B0002F8104002F810400000000000000000068
:1070C0002F8104002F8104002F8104001D840400FF
:1070D0002F8104002F8104002F810400A5B6030036
:1070E0002F8104002F8104002F8104000000000084
:1070F000000000002F8104000000000095840400BF
:10710000000000000000000000000000000000007F
:10711000000000000000000000000000000000006F
:10712000000000000000000000000000000000005F
:10713000000000000000000000000000000000004F
:10714000000000000000000000000000000000003F
:10715000000000000000000000000000000000002F
:10716000000000000000000000000000000000001F
:10717000000000000000000000000000000000000F
:1071800000000000000000000000000000000000FF
:1071900000000000000000000000000000000000EF
:1071A00000000000000000000000000000000000DF
:1071B00000000000000000000000000000000000CF
:1071C00000000000000000000000000000000000BF
:1071D00000000000000000000000000000000000AF
:1071E000000000000000000000000000000000009F
:1071F000000000000000000000000000000000008F
:10720000F1EE103A43F08073E1EE103A704700BFA0
:1072100010B5054C237833B9044B13B10448AFF3D0
:1072200000800123237010BDD06300200000000007
:107230004C60050008B5034B1BB103490348AFF38D
:10724000008008BD00000000D46300204C600500F1
:10725000154B002B08BF134B9D46A3F5803A002128
:107260008B460F461348144A121A27F0E9FD0F4BBC
:10727000002B00D098470E4B002B00D098470020E1
:10728000002104000D000D48002802D00C48AFF387
:10729000008027F06BFD2000290020F077FF27F009
:1072A0003FFD00BF000008000000042000000000B7
:1072B00000000000D0630020A8AE00200000000005
:1072C00000000000406870470020704790F82530AB
:1072D00090F824209A4205D900EBC3004068036867
:1072E0005B681847704700BF704700BF013902292B
:1072F00008D8416840F2DB53521A9A4284BF0123F6
:107300000372704742607047037A0BB10022027229
:107310001846704700230372436070470079704736
:10732000704700BF704700BF704700BF704700BF85
:10733000704700BF704700BF08B5012021F01AFD5B
:10734000B0FA80F0400908BD1EF012BC10B504462A
:1073500020F05EFF204610BD10B5044620F058FF17
:10736000204610BD10B5044620F052FF204610BD47
:1073700010B5044620F04CFF204610BD10B5044661
:1073800020F046FF204610BD10B586B00024084608
:1073900001A9CDE90144CDE9044403928DF80630FA
:1073A0000EF07AFAB0FA80F0400906B010BD00BFC6
:1073B00000232DE9F041037180460E461EF0D8FBF4
:1073C000144F154C054647F0010702E04FF4FA3020
:1073D000B8471EF0CDFB431BB342204617D20DF039
:1073E0008BFE0346204643B10DF0F2FE28B119286A
:1073F00088F804000BD0122809D0012021F0BAFC33
:107400000128E3D11EF0B4FB401B9628DED9BDE86D
:10741000F08100BFE0320500F86B002008B5044899
:107420000DF020FEBDE8084032201EF0ADBB00BFCD
:10743000F86B002001480DF01DBE00BFF86B002066
:1074400090F824303BB190F8253000EBC300406841
:107450000368DB6818471846704700BF90F824306F
:1074600003B32DE9F041044690F8250004EBC00673
:107470000D46B3686BB10B68214F9B69BB4238D195
:107480001EF076FBA26AB368801A98420CD294F878
:10749000250004EBC000294640680368BDE8F041C0
:1074A0009B681847002070477068036829465B682E
:1074B000984794F8253094F824200133DBB29342A6
:1074C00084F8253002D3013A84F825202B689B6983
:1074D000BB4211D11EF04CFB94F82530A06204EBA6
:1074E000C3042946606803681B6898470020BDE80C
:1074F000F08108469847C5E728469847ECE700BF63
:1075000049730200002370B580F825300B680B4AE0
:107510009B69934204460D460DD11EF029FB94F859
:107520002430A06233B16068036829461B68BDE857
:107530007040184770BD08469847F0E7497302004D
:1075400030B50A68154BD5689D4287B00C4617D1F7
:1075500000230122124D019301A91220CDE9043329
:1075600002938DF8062003950EF096F923680D4AD4
:107570001B6893420ED10C480DF07CFD07B030BD66
:10758000074A012312212046A8472368054A1B68A1
:107590009342F0D02046984707B030BD897302006F
:1075A00080841E0035740200F86B002070B50A68F4
:1075B0001E4BD6689E4286B00C4605464FF000032F
:1075C0001ED142F2107201A91920CDE90133CDE993
:1075D00004338DF8063003920EF05EF92368144AE6
:1075E0001B68934216D113480DF044FD2368124ADC
:1075F0009B69934215D11EF0BBFAA86006B070BD1E
:1076000042F2107219212046B0472368084A1B68CD
:107610009342E8D0204698472368074A9B699342E3
:10762000E9D020469847A86006B070BD8973020073
:1076300035740200F86B0020497302000B68254A7C
:107640005B6893422DE9F0410C4636D122480DF09B
:1076500009FD32201EF098FA2368204A9B68934265
:1076600032D1002323711EF083FA1D4E1A4F0546B6
:1076700046F0010602E04FF4FA30B0471EF078FA07
:10768000431BC72B384616D80DF036FD0346384647
:107690003BB10DF09DFD20B1192820710BD01228AF
:1076A00009D0012021F066FB0128E4D11EF060FA28
:1076B000401B9628DFD9BDE8F0810846984723682B
:1076C000064A9B689342CCD02046C821BDE8F041D1
:1076D000184700BF1D740200F86B0020B173020050
:1076E000E0320500F0B50B68304A5B68934287B022
:1076F0000C4649D12E480DF0B5FC32201EF044FA5C
:1077000023682C4A9B68934245D1002323711EF0C5
:107710002FFA294E264F054646F0010602E04FF4A7
:10772000FA30B0471EF024FA431BB3F5967F384673
:1077300016D20DF0E1FC034638463BB10DF048FD92
:1077400020B1192820710BD0122809D0012021F076
:1077500011FB0128E3D11EF00BFA401B9628DED95D
:107760002268164BD5689D424FF0000318D101A93D
:1077700012200193CDE9043303938DF80630029370
:107780000EF08AF807B0F0BD084698472368094A0A
:107790009B689342B9D04FF4967120469847DFE733
:1077A00020461A461221A84707B0F0BD1D740200FA
:1077B000F86B0020B1730200E0320500897302000B
:1077C000F8B50B68344A5B6993420C464ED10120F0
:1077D00021F0D0FAB0FA80F04009002845D02368A3
:1077E0002E4A5B68934244D12D480DF03BFC322079
:1077F0001EF0CAF923682B4A9B68934240D10023AC
:1078000023711EF0B5F9284E254F054646F00106B6
:1078100002E04FF4FA30B0471EF0AAF9431BB3F56B
:10782000967F384616D20DF067FC034638463BB1CA
:107830000DF0CEFC20B1192820710BD0122809D0F0
:10784000012021F097FA0128E3D11EF091F9431BA2
:10785000962BDED92368154A1B69934219D12079EA
:10786000A0F11200B0FA80F04009F8BD0846984730
:10787000B3E72046984723680A4A9B689342BED0E4
:107880004FF49671204698472368084A1B69934233
:10789000E5D020469847E3E7397302001D740200E3
:1078A000F86B0020B1730200E03205001D73020086
:1078B0002DE9F8430B68424E9B69B3420C460546DE
:1078C00068D11EF055F90346D5E901201B1A9342F1
:1078D00054D323683B4A5B6893426DD13A480DF01C
:1078E000C1FB32201EF050F92368384A9B6893424E
:1078F00057D1002323711EF03BF9354BDFF8C890B8
:10790000074643F0010802E04FF4FA30C0471EF08A
:107910002FF9C31BC72B484616D80DF0EDFB0346C5
:1079200048463BB10DF054FC20B1192820710BD012
:10793000122809D0012021F01DFA0128E4D11EF0FF
:1079400017F9C01B9628DFD92368224A1B69934286
:107950002FD12079192821D023681F4A1B68934210
:107960000FD119480DF086FB23689B69B3420ED1F5
:107970001EF0FEF8A8600020BDE8F8830020BDE8F6
:10798000F8832046984723689B69B342F0D020468D
:107990009847EFE708469847034695E70120BDE87A
:1079A000F883C8212046984723680A4A1B699342F6
:1079B000CFD020469847CDE72046984794E700BFB0
:1079C000497302001D740200F86B0020B1730200BD
:1079D000E03205001D730200357402002DE9F0430A
:1079E00091B02422002107A827F02AFA5B4B0693C6
:1079F0001EF0BEF85A4A5B4B5B4E5C4FDFF894C1F9
:107A00005B4D5C49A2FB002003EB9010A6FB003904
:107A10004FEA5919A6FB09367609A7FB06473F0925
:107A20004A463346C9EB0919C6EB06163C4607EB36
:107A30004707A0EB8909A2EB8606A3EBC70740F234
:107A4000DB7840F26D100DE0B5EBB20F54D3B1EB23
:107A5000321F2CBF4FF4B772024694420BD3A41AC4
:107A600008F1010818F003030CFB08F2ECD040F217
:107A70006D129442F3D2404AA2FB081251096425C8
:107A8000D2094FF4C87005FB118100FB1282002B54
:107A900035D03A491F23002502E0D5B2E41A4B5DE8
:107AA000A34205F10102F8D91EF062F82C4B3449CB
:107AB000CDF80C90A3FB00239B094FF47A7202FBD4
:107AC000130001346B1C42460490CDE9017600940A
:107AD0002C481DF0E7FD06AA2B492A481DF0E2FDBF
:107AE00006A92822294810F0A1FA1EF041F8284BD7
:107AF000186011B0BDE8F0834FF4B772ADE761B91B
:107B0000DAB11D461D491F2302E0D5B2E41A4B5DD0
:107B10009C4205F10102F8D2C6E718481D461F2213
:107B200002E0CDB2E41A425D012D134608BF531C9A
:107B30009C4205F10101F4D2B6E710481D461F2210
:107B400002E0CDB2E41A425D012D134608BF531C7A
:107B50009C4205F10101F4D2A6E700BF74617000F8
:107B6000D34D62108065BC4E89888888ABAAAAAACA
:107B7000285C8F020AD7A3001F85EB517C320500D9
:107B80005C1E050080820020841E0500F86700202E
:107B9000286D0020295C8FC22DE9F04F89B08A46FC
:107BA00081461DF0E5FFBC49BC4BBD4EBD4FDFF823
:107BB00038C3BD4DBD4AA1FB001003EB9010A6FBDE
:107BC00000314909A6FB013676098E46A7FB061748
:107BD0003F093346CEEB0E11C6EB06163C4607EBCB
:107BE0004707AEEB8606A0EB8101A3EBC70740F287
:107BF000DB7840F26D1E0EE0B5EBB00FC0F0DC801C
:107C0000B2EB301F2CBF4FF4B770704684420BD3D9
:107C1000241A08F1010818F003030CFB08F0EBD05C
:107C200040F26D108442F3D2A14AA2FB080250092F
:107C30004FF0640CD2094FF4C8750CFB108005FBA3
:107C40001282002B00F0BB809A481F23002502E01F
:107C5000D5B2E41A435D9C4205F10102F8D20791C6
:107C60001DF086FFDFF830B207990391ABFB0023CC
:107C70009B094FF47A7202FB13000134CDE90176BF
:107C80006B1C8D490094424604908C488C4F8D4E5D
:107C90008D4D8E4C1DF006FD8D49884853464A4651
:107CA0001DF000FD8B4B8C4819788C4A00233B70EB
:107CB00033702B70237080F82C3182F82C3100291E
:107CC00000F092801DF054FF744B754F754CDFF837
:107CD00018C2754D7549ABFB002B03EB9B1BA7FB33
:107CE0000B394FEA5919A7FB09377F09A4FB07088D
:107CF0004FEA18184A463B46C9EB0919C7EB071764
:107D0000444608EB4808ABEB8909A2EB8707A3EBD5
:107D1000C80840F2DB7640F26D100CE0B5EBB20F14
:107D20005FD3B1EB321F2CBF4FF4B77202469442BF
:107D30000AD3A41A013616F003030CFB06F2EDD0A9
:107D400040F26D129442F4D2594AA2FB0612510934
:107D50006425D2094FF4C87005FB116100FB126263
:107D6000002B00F0FB8053491F23002502E0D5B211
:107D7000E41A4B5DA34205F10102F8D91DF0F8FEAB
:107D8000454B4D49CDF80C90A3FB00239B094FF4C4
:107D90007A7202FB130001340490CDE9018700944C
:107DA0006B1C324645481DF07DFC4D49434809B0E7
:107DB000BDE8F04F1DF076BC4FF4B77026E7002801
:107DC00040F0DB80002A00F00F811D4639481F2358
:107DD00002E0D5B2E41A435D9C4205F10102F8D2FB
:107DE0003DE74FF4B772A2E73E482D4F2D4C2E4D84
:107DF0000FF006FC1DF0BCFE284BDFF8ECC02B4951
:107E0000ABFB002B03EB9B1BA7FB0B394FEA59196C
:107E1000A7FB09377F09A4FB07084FEA18184A4651
:107E20003B46C9EB0919C7EB0717444608EB48085E
:107E3000ABEB8909A2EB8707A3EBC80840F2DB761E
:107E400040F26D100CE0B5EBB20F74D3B1EB321F02
:107E50002CBF4FF4B772024694420AD3A41A0136DB
:107E600016F003030CFB06F2EDD040F26D129442C3
:107E7000F4D20F4AA2FB061251096425D2094FF42D
:107E8000C87005FB116100FB1262002B56D0094936
:107E90001F2300252DE000BFD34D62108065BC4E2E
:107EA00089888888ABAAAAAA285C8F020AD7A3006F
:107EB0001F85EB517C3205005C1E0500808200208E
:107EC00044670020806400203C670020186D00207B
:107ED000881E05002C6E002008660020306E0020F1
:107EE000B81E050048800020295C8FC2D5B2E41A74
:107EF0004B5D9C4205F10102F8D21DF039FE534B57
:107F00005349CDF80C90A3FB00239B094FF47A72E0
:107F100002FB130001340490CDE9018700946B1C2F
:107F200032464C481DF0BEFB4B494A4809B0BDE8FB
:107F3000F04F1DF0B7BB4FF4B7728DE7002941D168
:107F4000002A73D01D4645491F2302E0D5B2E41A2A
:107F50004B5D9C4205F10102F8D2CEE7F9B9002A47
:107F600054D01D463D491F2302E0D5B2E41A4B5DB3
:107F7000A34205F10102F8D900E7DFF8E0C01D4691
:107F80001F2203E0C5B2E41A1CF80520012D134698
:107F900008BF531C9C4205F10100F3D25FE62F4855
:107FA0001D461F2205E0A2423FF6E8AECDB2E41A1C
:107FB000425D012D05F101011346F4D1531C9C4291
:107FC000F4D2DBE625481D461F2204E0A24294D8E5
:107FD000CDB2E41A425D012D05F101011346F5D140
:107FE000531C9C42F4D288E7DFF870C01D461F2264
:107FF00003E0C5B2E41A1CF80520012D134608BFA2
:10800000531C9C4205F10100F3D228E613481D469B
:108010001F2202E0CDB2E41A425D012D134608BFD3
:10802000531CA34205F10101F4D9A7E60B481D46F4
:108030001F2202E0CDB2E41A425D012D134608BFB3
:10804000531C9C4205F10101F4D256E7D34D621056
:108050005C1E050080820020F41E05007C320500B5
:108060002DE9F047C64BC74DC74FC84C01228CB015
:108070001A701DF07DFDC64B18601DF079FDC54AD4
:10808000C54BC649DFF850C3A5FB005002EB90106A
:10809000A7FB00294FEA5919A7FB09277F09A4FB71
:1080A00007484FEA18184D463A46C9EB0919C7EB7D
:1080B0000717444608EB4808A0EB8909A5EB87079A
:1080C000A2EBC80840F2DB7540F26D100DE0B1EB99
:1080D000B20FC0F03681BCEB321F2CBF4FF4B77229
:1080E000024694420AD3A41A013515F0030603FB95
:1080F00005F2ECD040F26D129442F4D2A84BA3FBEF
:1081000005235A096420DB094FF4C87100FB1252A1
:1081100001FB1353002E00F02E81A2491F230026DD
:1081200002E0D6B2E41A8B5D9C4206F10102F8D25D
:108130001DF01EFD934BCDF80C90A3FB00239B0973
:108140004FF47A7101FB1300621C974C974900921F
:10815000731C2A460490CDE9018795481DF0A2FAC8
:10816000227807921DF004FD034692489249056863
:10817000079A8F485B1B1DF095FA904810F016FC8B
:10818000002840F063818E480FF0A0FA2378002B7E
:1081900040F0518100238B488B4F1A4605218046C1
:1081A0000CF0C6FF00231A46062140460CF0C0FF23
:1081B00000231A46042140460CF0BAFF00231A4659
:1081C000132140460CF0B4FF00231A46022140461A
:1081D0000CF0AEFF1DF0CCFC47F001070546002671
:1081E0000CE01DF0C5FC431BB3F5967F40460BD257
:1081F0000CF082FF4FF4FA302646B847012020F0F9
:10820000B9FD741C0028ECD01DF0B2FC5D4D614A34
:108210005D4B5E4C6049614FDFF8BCC1A5FB00506F
:1082200002EB9010A3FB002A4FEA5A1AA3FB0A386C
:108230004FEA5818A4FB08494FEA19195246434619
:10824000CAEB0A1AC8EB08184C4609EB4909A0EB1F
:108250008A0AA2EB8808A3EBC90940F2DB7540F259
:108260006D100CE0B7EBB20F6ED3BCEB321F2CBF1E
:108270004FF4B772024694420AD3A41A013515F09E
:10828000030301FB05F2EDD040F26D129442F4D2EB
:10829000434AA2FB051251096427D2094FF4C87062
:1082A00007FB115100FB1252002B50D03D491F22F9
:1082B000002702E0DFB2A41ACA5DA24207F101035F
:1082C000F8D91DF055FC2F4B3849CDF80CA0A3FB75
:1082D00000239B094FF47A7202FB130001347B1CCC
:1082E0002A460490CDE90198314800941DF0DAF94E
:1082F000012020F03FFDF2B2034634492C481DF026
:10830000D1F901210C2020F093FC01210C2020F058
:1083100013FD50201DF038FC00210C2020F00CFD36
:1083200000201DF031FC2A4B1A793AB9186828B19F
:1083300002682849126801241C7190470CB0BDE8FE
:10834000F0874FF4B772CCE64FF4B77293E7002989
:108350005DD014481F461F2204E0A242B1D8CFB21C
:10836000E41AC25D012F07F101011346F5D1531C38
:108370009C42F4D2A5E7002A3CD00A481F2230E0F4
:108380002C6E0020D34D621089888888ABAAAAAAD7
:10839000286E00208065BC4E295C8FC2285C8F024D
:1083A0001F85EB517C320500786400205C1E0500BF
:1083B00080820020286D0020101F0500087A002010
:1083C00048800020F86B0020E0320500641F0500A3
:1083D000986D0020246000200AD7A300CEB2E41AD2
:1083E000825D012E134608BF531C9C4206F1010119
:1083F000F4D29DE6002B48D02B491F2302E0D6B2D1
:10840000E41A8B5D9C4206F10102F8D290E682BB31
:1084100025481F461F2205E0A2423FF652AFCFB2C9
:10842000E41AC25D012F07F101011346F4D1531C78
:108430009C42F4D245E7002309A90C221B480A9369
:10844000237009930B930FF0B5FDA3E604230122DB
:1084500009A917488DF824300FF0E8FD50201DF0D1
:1084600093FB0021134811F013FF32201DF08CFB09
:1084700089E61F460C491F2302E0D7B2E41ACB5D00
:108480009C4207F10102F8D21BE707481F2202E0D5
:10849000CEB2E41A825D012E134608BF531C9C42E3
:1084A00006F10101F4D243E67C320500A06700200A
:1084B000646F0020087A0020012B00D070472DE95E
:1084C000F047DFF8B491137899F800101A1E18BF1E
:1084D0000122914286B008D089F80020002B00F0DC
:1084E0008F80594814210CF0CDFD1DF041FB574DF4
:1084F000574A584F584C5949594BDFF880C1A5FB92
:10850000005002EB9010A7FB002A4FEA5A1AA7FB73
:108510000A277F09A4FB07484FEA181855463A4630
:10852000CAEB0A1AC7EB0717444608EB4808A0EB4A
:108530008A0AA5EB8707A2EBC80840F2DB7640F277
:108540006D100CE0B3EBB20F4AD3BCEB321F2CBF63
:108550004FF4B772024694420AD3A41A013616F0B9
:10856000030501FB06F2EDD040F26D129442F4D205
:108570003C4AA2FB063253096420D2094FF4C87169
:1085800000FB136301FB12626DB337491F23002503
:1085900002E0D5B2E41A4B5DA34205F10102F8D91D
:1085A0001DF0E6FA294B3149CDF80CA0A3FB0023BE
:1085B0009B094FF47A7202FB130001343246049097
:1085C000CDE9018700946B1C29481DF06BF899F8E0
:1085D00000202849264806B0BDE8F0471DF062B8E3
:1085E0004FF4B772B7E78BB9FAB11F491F2302E006
:1085F000D5B2E41A4B5D9C4205F10102F8D2CFE7F7
:108600001A46052110480CF093FD6EE716481F220C
:1086100002E0CDB2E41A425D012D134608BF531C9F
:108620009C4205F10101F4D2BAE70F481F2202E093
:10863000CDB2E41A425D012D134608BF531C9C4283
:1086400005F10101F4D2ABE7F86B0020D34D6210C5
:108650008065BC4E89888888ABAAAAAA295C8FC28B
:10866000285C8F021F85EB517C3205005C1E0500E3
:1086700080820020901F0500A06D00200AD7A30073
:10868000042B00D070472DE9F047D2F8008040F26B
:108690009E73A8F132029A4286B000F28180B34FF5
:1086A000B34EC7F800801DF063FAB24DB24AB34C26
:1086B000B34BB449DFF8ECC2A6FB006005EB9010A9
:1086C000A2FB005A4FEA5A1AA2FB0A284FEA58188E
:1086D000A4FB08494FEA191955464246CAEB0A1A43
:1086E000C8EB08184C4609EB4909A0EB8A0AA5EB30
:1086F0008808A2EBC90940F2DB7640F26D100DE06C
:10870000B1EBB20FC0F0CE80BCEB321F2CBF4FF4E8
:10871000B772024694420AD3A41A013616F0030532
:1087200003FB06F2ECD040F26D129442F4D2964A6A
:10873000A2FB063253096420D2094FF4C87100FB32
:10874000136301FB1262002D00F0AF808F491F23DD
:10875000002502E0D5B2E41A4B5DA34205F1010207
:10876000F8D91DF005FA824B8949CDF80CA0A3FB7E
:1087700000239B094FF47A7202FB13000134324646
:108780000490CDE9019800946B1C82481CF08AFF8C
:108790003A6881497F4806B0BDE8F0471CF082BFC7
:1087A0001DF0E6F9724D734A734F744C744B754962
:1087B000DFF8F0C1A5FB005002EB9010A7FB002AE8
:1087C0004FEA5A1AA7FB0A277F09A4FB07494FEA79
:1087D000191955463A46CAEB0A1AC7EB07174C4611
:1087E00009EB4909A0EB8A0AA5EB8707A2EBC909A7
:1087F00040F2DB7640F26D100CE0B1EBB20F4ED3DD
:10880000BCEB321F2CBF4FF4B772024694420AD31E
:10881000A41A013616F0030503FB06F2EDD040F270
:108820006D129442F4D2584AA2FB063253096420D6
:10883000D2094FF4C87100FB136301FB1262002DD3
:1088400046D052491F23002502E0D5B2E41A4B5D01
:108850009C4205F10102F8D21DF08AF9444B4C49C3
:10886000CDF80CA0A3FB00239B094FF47A7202FB06
:108870001300013432466B1C0490CDE9019700943B
:1088800044481CF00FFF454942481CF05DFE444936
:108890004048424606B0BDE8F0471CF003BF4FF425
:1088A000B772B3E74FF4B77234E773BB002A3BD01B
:1088B00036491F2305E0A3423FF653AFD5B2E41A71
:1088C0004B5D012D05F10102F5D19C42F6D248E73E
:1088D00063B9002A3AD02D491F2302E0D5B2E41A29
:1088E0004B5D9C4205F10102F8D2B5E727481F22F3
:1088F00002E0CDB2E41A425D012D134608BF531CBD
:108900009C4205F10101F4D2A6E720481F2202E0B3
:10891000CDB2E41A425D012D134608BF531C9C42A0
:1089200005F10101F4D21CE718481F2205E0A2421C
:108930003FF617AFCDB2E41A425D012D05F10101FA
:108940001346F4D1531C9C42F4D20AE70F481F226D
:1089500002E0CDB2E41A425D012D134608BF531C5C
:108960009C4205F10101F4D276E700BF20600020AF
:10897000D34D62108065BC4E89888888ABAAAAAAAC
:10898000295C8FC2285C8F021F85EB517C32050069
:108990005C1E050080820020A81F0500D01F050076
:1089A000D41F05000AD7A300B94B1B7803B9704741
:1089B0002DE9F04786B01DF0DBF8B64B1F6842F298
:1089C0000F73C71B9F4240F292801DF0D1F8B24E48
:1089D000B24DB34AB34CB449B44BDFF8F0C2A6FB76
:1089E000006005EB9010A2FB005A4FEA5A1AA2FB56
:1089F0000A284FEA5818A4FB08494FEA19195546A6
:108A00004246CAEB0A1AC8EB08184C4609EB49095A
:108A1000A0EB8A0AA5EB8808A2EBC90940F2DB7635
:108A200040F26D100CE0B3EBB20F4CD3BCEB321F35
:108A30002CBF4FF4B772024694420AD3A41A0136EF
:108A400016F0030501FB06F2EDD040F26D129442E0
:108A5000F4D2974AA2FB063253096420D2094FF49C
:108A6000C87100FB136301FB12627DB391491F23A0
:108A7000002502E0D5B2E41A4B5D9C4205F10102EB
:108A8000F8D21DF075F8844B8B49CDF80CA0A3FBF0
:108A900000239B094FF47A7202FB130001346B1C14
:108AA00032460490CDE90198009484481CF0FAFD08
:108AB0003A46834981481CF0F5FD824B01221A7029
:108AC00006B0BDE8F0874FF4B772B5E7002B40F071
:108AD000A080002A00F0BB8076491F2302E0D5B2B7
:108AE000E41A4B5D9C4205F10102F8D2C9E71DF082
:108AF0003FF8694E694D6A4A6A4C6B4B6B49DFF827
:108B0000CCC1A6FB006005EB9010A2FB005A4FEA17
:108B10005A1AA2FB0A284FEA5818A4FB08494FEA40
:108B2000191955464246CAEB0A1AC8EB08184C46B2
:108B300009EB4909A0EB8A0AA5EB8808A2EBC90951
:108B400040F2DB7640F26D100CE0B1EBB20F4BD38C
:108B5000BCEB321F2CBF4FF4B772024694420AD3CB
:108B6000A41A013616F0030503FB06F2EDD040F21D
:108B70006D129442F4D24E4AA2FB0632530964208D
:108B8000D2094FF4C87100FB136301FB126275B385
:108B900048491F23002502E0D5B2E41A4B5DA342E9
:108BA00005F10102F8D91CF0E3FF3B4B4249CDF837
:108BB0000CA0A3FB00239B094FF47A7202FB130065
:108BC00001346B1C32460490CDE9019800943B4877
:108BD0001CF068FD3C4939483A4642F2107306B031
:108BE000BDE8F0471CF05EBD4FF4B772B6E7FBB9C5
:108BF000002A3BD02F491F2304E0A342D3D8D5B28B
:108C0000E41A4B5D012D05F10102F6D19C42F6D22A
:108C1000C9E728481F2202E0CDB2E41A425D012DC7
:108C2000134608BF531C9C4205F10101F4D228E70A
:108C300020481F2202E0CDB2E41A425D012D134606
:108C400008BF531C9C4205F10101F4D2ABE719485F
:108C50001F2202E0CDB2E41A425D012D134608BF87
:108C6000531C9C4205F10101F4D20AE711481F226E
:108C700004E0A24297D8CDB2E41A425D012D05F17D
:108C800001011346F5D1531C9C42F4D28BE700BF7F
:108C90002C6E0020286E0020D34D62108065BC4EE3
:108CA00089888888ABAAAAAA295C8FC2285C8F020F
:108CB0001F85EB517C3205005C1E05008082002080
:108CC00050200500F8630020102005000AD7A300FB
:108CD000012B00D070471378022BFBD82DE9F04709
:108CE000554F564E3B7086B01CF042FF544D554ACE
:108CF000554C564B5649DFF870C1A6FB006005EB9A
:108D00009010A2FB005A4FEA5A1AA2FB0A284FEA17
:108D10005818A4FB08494FEA191955464246CAEBB0
:108D20000A1AC8EB08184C4609EB4909A0EB8A0A55
:108D3000A5EB8808A2EBC90940F2DB7540F26D1083
:108D40000CE0B1EBB20F49D3BCEB321F2CBF4FF498
:108D5000B772024694420AD3A41A013515F00306ED
:108D600003FB05F2EDD040F26D129442F4D2394B80
:108D7000A3FB05235A096420DB094FF4C87100FBEB
:108D8000125201FB135366B333491F23002602E03E
:108D9000D6B2E41A8B5DA34206F10102F8D91CF0A9
:108DA000E7FE264B2D49CDF80CA0A3FB00239B0921
:108DB0004FF47A7202FB130001342A460490CDE985
:108DC00001980094731C26481CF06CFC3A782549E5
:108DD000234806B0BDE8F0471CF064BC4FF4B772FE
:108DE000B8E75AB9CBB11C491F2302E0D6B2E41A46
:108DF0008B5D9C4206F10102F8D2D0E716481F2293
:108E000002E0CEB2E41A825D012E134608BF531C65
:108E10009C4206F10101F4D2C1E70F481F2202E093
:108E2000CEB2E41A825D012E134608BF531C9C4249
:108E300006F10101F4D2B2E745670020D34D62107C
:108E40008065BC4E89888888ABAAAAAA295C8FC293
:108E5000285C8F021F85EB517C3205005C1E0500EB
:108E6000808200208C2005000AD7A300042B00D0AC
:108E700070472DE9F0472DED028B1368BA4A08EED2
:108E8000103AD2ED007A88B0B4EEE78AF1EE10FA2B
:108E9000079307DDDFEDB57AB4EEE78AF1EE10FA5D
:108EA00040F2A5801CF064FEB14DB24AB24FB34C03
:108EB000B349B44BDFF8F0C2A5FB005002EB9010B1
:108EC000A7FB00294FEA5919A7FB09277F09A4FB33
:108ED00007484FEA18184D463A46C9EB0919C7EB3F
:108EE0000717444608EB4808A0EB8909A5EB87075C
:108EF000A2EBC80840F2DB7640F26D100CE0B3EB59
:108F0000B20F59D3BCEB321F2CBF4FF4B7720246DD
:108F100094420AD3A41A013616F0030501FB06F2A7
:108F2000EDD040F26D129442F4D2974B944A954999
:108F3000A3FB060302FB06F2DB094FF4C870B1EB9A
:108F4000B20F00FB13633AD2002D00F0E0808F498E
:108F50001F23002502E0D5B2E41A4B5D9C4205F1C7
:108F60000102F8D21CF004FE814B8949CDF80C9027
:108F7000A3FB00239B094FF47A7202FB1300013418
:108F80006B1C32460490CDE90187824800941CF0A6
:108F900089FB81497F481CF0D7FA18EE100A25F0AA
:108FA00093F90B467D4902467A4808B0BDEC028B26
:108FB000BDE8F0471CF076BB4FF4B772A8E7002B72
:108FC00000F0988071491F2365B1002502E0D5B2F9
:108FD000E41A4B5D9C4205F10102F8D2C2E7D5B21A
:108FE000E41A4B5D9C4205F10102F8D2BAE76C4FDE
:108FF0005F4E3B601CF0BCFD5E4D5F4A5F4C604BBA
:109000006049DFF8A4C1A6FB006005EB9010A2FB4D
:10901000005A4FEA5A1AA2FB0A284FEA5818A4FB32
:1090200008494FEA191955464246CAEB0A1AC8EBD5
:1090300008184C4609EB4909A0EB8A0AA5EB8808F9
:10904000A2EBC90940F2DB7540F26D100CE0B1EB08
:10905000B20F11D3BCEB321F2CBF4FF4B7720246D4
:1090600094420CD3A41A013515F0030603FB05F254
:10907000EDD040F26D12F3E74FF4B772F0E7424BD8
:10908000A3FB05235A096420DB094FF4C87100FBD8
:10909000125201FB1353002E48D1002A61D1002B3C
:1090A00000F0928039491F2302E0D6B2E41A8B5DAA
:1090B0009C4206F10102F8D21CF05AFD2C4B3449B7
:1090C000CDF80CA0A3FB00239B094FF47A7202FB9E
:1090D00013000134731C2A460490CDE901982D48F1
:1090E00000941CF0DFFA386825F0EEF80B460246D3
:1090F0002C4959E735B31D4624491F2302E0D5B258
:10910000E41A4B5D9C4205F10102F8D22AE71F48A0
:109110001F2202E0CDB2E41A425D012D134608BFC2
:10912000531C9C4205F10101F4D21BE717491F2390
:10913000002602E0D6B2E41A8B5DA34206F10102DA
:10914000F8D9B9E711481F2202E0CDB2E41A425D16
:10915000012D134608BF531C9C4205F10101F4D2B6
:1091600000E70A481F2226E01C60002033338B40B2
:10917000D34D62108065BC4E89888888ABAAAAAAA4
:10918000295C8FC2285C8F021F85EB517C32050061
:109190005C1E050080820020D01F0500E420050031
:1091A00018600020C02005000AD7A300A24283D87F
:1091B000CEB2E41A825D012E06F101011346F5D10B
:1091C000531C9C42F4D277E708481F2205E0A242D4
:1091D0003FF672AFCEB2E41A825D012E06F10101B4
:1091E0001346F4D1531C9C42F4D265E77C3205004F
:1091F000042B00D070472DE9F0472DED028B13684A
:1092000008EE103AF0EE047A88B0B4EEE78AF1EE98
:1092100010FA079308DBBE4BD3ED007AB4EEE78A71
:10922000F1EE10FA00F1A5801CF0A2FCB94DBA4A8B
:10923000BA4FBB4CBB49BC4BDFF810C3A5FB005079
:1092400002EB9010A7FB00294FEA5919A7FB092749
:109250007F09A4FB07484FEA18184D463A46C9EB68
:109260000919C7EB0717444608EB4808A0EB890922
:10927000A5EB8707A2EBC80840F2DB7640F26D1041
:109280000CE0B3EBB20F59D3BCEB321F2CBF4FF441
:10929000B772024694420AD3A41A013616F00305A7
:1092A00001FB06F2EDD040F26D129442F4D29F4BD6
:1092B0009C4A9D49A3FB060302FB06F2DB094FF41F
:1092C000C870B1EBB20F00FB13633AD2002D00F06F
:1092D000E08097491F23002502E0D5B2E41A4B5DD8
:1092E0009C4205F10102F8D21CF042FC894B9149E5
:1092F000CDF80C90A3FB00239B094FF47A7202FB7C
:10930000130001346B1C32460490CDE901878A4872
:1093100000941CF0C7F9894987481CF015F918EE2C
:10932000100A24F0D1FF0B4685490246824808B056
:10933000BDEC028BBDE8F0471CF0B4B94FF4B77236
:10934000A8E7002B00F0988079491F2365B100251C
:1093500002E0D5B2E41A4B5D9C4205F10102F8D25D
:10936000C2E7D5B2E41A4B5D9C4205F10102F8D286
:10937000BAE7744F674E87ED008A1CF0F9FB664D23
:10938000664A674C674B6849DFF8C0C1A6FB0060BE
:1093900005EB9010A2FB005A4FEA5A1AA2FB0A28CA
:1093A0004FEA5818A4FB08494FEA19195546424696
:1093B000CAEB0A1AC8EB08184C4609EB4909A0EB9E
:1093C0008A0AA5EB8808A2EBC90940F2DB7540F2D6
:1093D0006D100CE0B1EBB20F11D3BCEB321F2CBF00
:1093E0004FF4B772024694420CD3A41A013515F01B
:1093F000030603FB05F2EDD040F26D12F3E74FF4E4
:10940000B772F0E7494BA3FB05235A096420DB0937
:109410004FF4C87100FB125201FB1353002E47D1C9
:10942000002A60D1002B6FD041491F2302E0D6B241
:10943000E41A8B5D9C4206F10102F8D21CF098FB05
:10944000344B3C49CDF80CA0A3FB00239B094FF4FF
:109450007A7202FB13000134731C2A460490CDE992
:109460000198354800941CF01DF9386824F02CFF51
:109470000B460246344959E735B31D462C491F2394
:1094800002E0D5B2E41A4B5D9C4205F10102F8D22C
:109490002AE727481F2202E0CDB2E41A425D012DDF
:1094A000134608BF531C9C4205F10101F4D21BE78F
:1094B0001F491F23002602E0D6B2E41A8B5DA342A7
:1094C00006F10102F8D9B9E719481F2202E0CDB22E
:1094D000E41A425D012D134608BF531C9C4205F15E
:1094E0000101F4D200E712481F2204E0A242A5D8ED
:1094F000CEB2E41A825D012E06F101011346F5D1C8
:10950000531C9C42F4D299E709481F2226E000BF71
:1095100018600020D34D62108065BC4E8988888811
:10952000ABAAAAAA295C8FC2285C8F021F85EB51C7
:109530007C3205005C1E050080820020D01F0500E3
:109540004C2105001C600020282105000AD7A3003B
:10955000A2423FF673AFCEB2E41A825D012E06F14D
:1095600001011346F4D1531C9C42F4D266E700BFBC
:109570002DE9F0432DED068BB94895B00BF024FD95
:10958000B748B0EE409A0BF027FDB548F0EE409A90
:109590000BF02AFDB349B44A0B68B44869EEA98AB6
:1095A0000133E9EE098A02FB03F2B0EBB20FB0EE31
:1095B000408AE0EE008A0B6062D2DFEDAD7AF4EE15
:1095C000E78AF1EE10FA35D4F0EEC97AB0EEE97A16
:1095D000F4EEC77AF1EE10FAF0EEC86A2FDBF4EE83
:1095E000E67AF1EE10FA80F2F480F4EE477AF1EECA
:1095F00010FA24D0B5EEC08AF1EE10FACCBF0124E7
:109600004FF0FF341CF0B4FA9A4B93F900209442C7
:1096100029D06AB15A68821A323AB2F5AF7F00F2A5
:10962000E1805A780132D2B2022A5A7000F2DE800A
:1096300058601C7015B0BDEC068BBDE8F083B4EE2D
:10964000E67AF1EE10FAD5DBF5EEC09AF1EE10FAFB
:10965000CCBF01244FF0FF341CF08AFA854B93F9FC
:1096600000209442D5D15A78002AE2D05A68801A54
:10967000B0F5C87FDDD900225A705A601C70D9E756
:109680007D480FF093F9002897D01CF071FA7B4DBC
:109690007B4A7C4F7C4C7D4B7D49DFF814C2A5FB97
:1096A000005002EB9010A7FB00294FEA5919A7FBC5
:1096B00009277F09A4FB07484FEA18184D463A4688
:1096C000C9EB0919C7EB0717444608EB4808A0EB9C
:1096D0008909A5EB8707A2EBC80840F2DB7540F2C9
:1096E0006D100DE0B1EBB20FC0F04081BCEB321F4A
:1096F0002CBF4FF4B7720246A2420AD8A41A013511
:1097000015F0030603FB05F2ECD040F26D12A24205
:10971000F4D9604BA3FB05235A096420DB094FF4FD
:10972000C87100FB125201FB1353002E00F0478159
:1097300059491F23002604E0A34208D8D6B2E41AF0
:109740008B5D012E06F10102F6D19C42F6D2B1EEFC
:10975000E8AA1CF00DFA494B5049CDF80C90A3FB38
:1097600000239B094FF47A7202FB13000134731C2F
:109770002A4600940490CDE901874948494D1BF0E1
:1097800091FF19EE100A24F09FFD002402460B46BB
:109790001AEE100ACDE90823CDE9064524F094FD20
:1097A00004460D4618EE100ACDE9044524F08CFD60
:1097B00004460D4619EE900ACDE9024524F084FDD9
:1097C000DDE90823CDE90001374935481BF06AFF80
:1097D000F3E6B5EEC09AF1EE10FACCBF01244FF0DB
:1097E000FF340FE700225A70586022E7002124223C
:1097F00019800BA8596025F023FB2C4B214F224CDC
:10980000224D93E80300ADF82C100A901CF0B0F93B
:109810001A4A1B4B1E49DFF898C0A2FB002003EB3D
:109820009010A7FB00394FEA5919A7FB09377F09A8
:10983000A4FB07484FEA18184A463B46C9EB0919EA
:10984000C7EB0717444608EB4808A0EB8909A2EBD1
:109850008707A3EBC80840F2DB7640F26D1036E0D4
:10986000F86B00201C640020CDCCCCCCCCCCCC0C34
:10987000FFFFC740146E0020087A0020D34D62100D
:109880008065BC4E89888888ABAAAAAA295C8FC249
:10989000285C8F021F85EB517C3205005C1E0500A1
:1098A00080820020000004408C210500C8210500B2
:1098B0000AD7A300B1EBB20F55D3BCEB321F2CBFBC
:1098C0004FF4B772024694420AD3A41A013616F036
:1098D000030305FB06F2EDD040F26D129442F4D280
:1098E000524AA2FB061251096425D2094FF4C870EE
:1098F00005FB116100FB1262002B3AD04C491F237B
:10990000002502E0D5B2E41A4B5DA34205F1010245
:10991000F8D91CF02DF9474B4749CDF80C90A3FB23
:1099200000239B094FF47A7202FB130001346B1C75
:1099300032460490CDE90187009440481BF0B2FE06
:109940000AAA3F493D481BF0ADFE0AA928223D481E
:109950000EF06CFB1CF00CF93B4B186015B0BDEC25
:10996000068BBDE8F0834FF4B772ACE74FF4B772E3
:10997000C2E691B982BB2E481D461F2204E0A242D6
:10998000C7D8CDB2E41A425D012D05F1010113469D
:10999000F5D1531C9C42F4D2BBE725481D461F223B
:1099A00004E0A242B5D8CDB2E41A425D012D05F122
:1099B00001011346F5D1531C9C42F4D2A9E7BAB970
:1099C0002BB31B491F2302E0D6B2E41A8B5D9C42E5
:1099D00006F10102F8D2BAE61D4615491F2302E03E
:1099E000D5B2E41A4B5D9C4205F10102F8D290E732
:1099F0000F481F2202E0CEB2E41A825D012E134608
:109A000008BF531C9C4206F10101F4D29FE60848AE
:109A10001F2202E0CEB2E41A825D012E134608BF77
:109A2000531C9C4206F10101F4D290E61F85EB51D4
:109A30007C320500D34D62105C1E05008082002040
:109A4000841E0500F8670020286D00202DE9F04FE6
:109A50002DED068BA448A9B00BF0CEFAA248F0EE8B
:109A6000408A0BF0D1FAA048B0EE408A0BF0D4FA4D
:109A70009E4A92F900300333F0EE407A062B00F252
:109A80001C85DFE813F0E604F004FA041A05040567
:109A90000C05070020EE007A10EE10BAB0EEC0AA56
:109AA00092F901300333062B00F20F85DFE813F043
:109AB000BF04B504AB040D05A3049B040700A7EE87
:109AC000A77AF0EEE79ACDED0A7A92F902300333E5
:109AD000062B00F2EC84DFE813F072047C046004CF
:109AE000EA04B4046A040700A7EEA77A17EE907A96
:109AF000B0EEE79AB5EEC07AF1EE10FAC8BFF1EE1B
:109B0000C77A7B4B7B4A1B78CABF9FED7B7ADFED20
:109B1000847A67EE877AC2ED007A002B40F0B68631
:109B20001FAE764A764D136876490133136005FB04
:109B300003F3B1EB730F80F0B985734C734BDB68A3
:109B4000DB0140F1D084724B1A68D50740F1CB8419
:109B50005B689B0994F8802382B9D4F87C23DFEDFD
:109B60006D7A9A1A07EE102AB8EE477A67EE277ACE
:109B7000F5EEC07AF1EE10FA00F2B486DFED667A07
:109B80001420D4E9402104EB8205C4F87C33531C33
:109B900003F01F032A46C5F800B01F294FF0000547
:109BA000C4F80031C2ED207A84F8805340F3FC847D
:109BB00020219FED5B7A5A1EF0EE476A0025531B69
:109BC00003F01F0304EB830CDCED005A9CED205ADC
:109BD000B0EEE56AB4EEC67AF1EE10FA05F10105D1
:109BE000B8BFB0EE467A8D42E5EE856AE7DBD4F881
:109BF000203194F81C21C4ED436A034484ED447A77
:109C0000C4F82031032A00F25C83DFE812F06A0313
:109C1000B1034C0304009FED417AB4EEC7AAF1EE04
:109C200010FA40F136850022002394ED45AAD4F8BD
:109C30001881C4F808B1C4F81421C4F8182184F8B4
:109C40001C31C4F820310125D4F824C1BCF1140F13
:109C500003DC0CF1010CC4F824C1D4E98A319DED78
:109C60000A7A5A1C04EB830E02F01F021F29C4F863
:109C700028228EED4A7ACEED6A7A40F3CE842021F6
:109C80009FED277A013AF0EE476A4FF0000EA2EB03
:109C90000E0303F01F0304EB8309D9ED4A5A99ED33
:109CA0006A5AB0EEE56AB4EEC67AF1EE10FA0EF139
:109CB000010EB8BFB0EE467A8E45E5EE856AE6DB6A
:109CC000D4F8483294F84422C4ED8D6A034484EDFC
:109CD0008E7AC4F84832032A00F2B582DFE812F027
:109CE000C6023303A5022200F86B0020946D002009
:109CF000A06D0020F4630020E12E65420C6400207A
:109D0000295C8FC251B81E0550680020F0ED00E0BC
:109D1000001000E0BD3786350AD7A33C8FC2F53C62
:109D2000000000001FED037AF4EEC79AF1EE10FA7E
:109D300040F1A08400239DED0A7A84F84432002289
:109D4000C4F84832012394ED8F8AD4ED909A84EDC3
:109D50008C7AC4F83C22C4F840220C93D4F84CE22C
:109D6000BEF1140F03DC0EF1010EC4F84CE2D4E98D
:109D7000D43104EB830A5A1C02F01F021F29C4F8D5
:109D80005023CAF85072CAEDB47A40F3DE83202122
:109D90001FED1D7ADDF83090531EF0EE476A0E93EA
:109DA0004FF0000A0E9BA3EB0A0303F01F0304EB22
:109DB0008302D2ED945A92EDB45AB0EEE56AB4EE55
:109DC000C67AF1EE10FA0AF1010AB8BFB0EE467A8F
:109DD0008A45E5EE856AE5DBD4F8703394F86C23A8
:109DE000CDF830901844C4EDD76A84EDD87AC4F821
:109DF0007003032A00F2BF81DFE812F0FA0190023B
:109E0000AF0104005FED3B7AB4EEE79AF1EE10FA91
:109E100040F1F8830023002284F86C33C4F87033D7
:109E20000123D4EDD98A94EDDA9AC4F85873C4F8B2
:109E30006423C4F868230E93D4F87433142B02DC23
:109E40000133C4F87433BCF1130F55DDBEF1130FA9
:109E500052DD132B50DD5FED4EAACF484FF48072D8
:109E6000002124F0EDFF4FF0000900234FF0000A1D
:109E700019464FF48072C4F8243184F81C31C4F8B8
:109E80002031C4E9409AC548C4ED42AAC4ED43AAB2
:109E9000C4ED44AAC4ED45AAC4ED46AA24F0D0FFFF
:109EA00000231946C4F84C3284F84432C4F84832CE
:109EB000C4E98A9ABA48C4ED8CAA4FF48072C4ED02
:109EC0008DAAC4ED8EAAC4ED8FAAC4ED90AA24F089
:109ED000B7FFC4E9D49A0023C4EDD6AAC4EDD7AA2B
:109EE000C4EDD8AAC4F8743384F86C33C4F8703362
:109EF000C4EDD9AAC4EDDAAA0C9A0E998DF86020A7
:109F0000002301221F938DF86C10C6E90133C6E9C6
:109F1000033302218DF8842015AA8DF88C101E922F
:109F200018A91BAA8DF854508DED16AACDF85C80A7
:109F30008DED198ACDED1A9ACDED1C8A8DED1D9A05
:109F40002091229235B1F0EECA7AF5EEC07AF1EEA8
:109F500010FA03DCDFEDA57A4FF0FF339DF86020A7
:109F60009DF86C10002A00F0C882F0EEC86AF4EE8A
:109F7000E67AF1EE10FA40F1C08259B1B0EEE87A1B
:109F8000F4EEC76AF1EE10FA00F1D482B0EE667A10
:109F9000F0EE476A002D00F0F584B0EE667A0D46CB
:109FA0000123012BF0EECA7A00F09582002A00F01E
:109FB000CA820223F0EEC86A022B77EEA67A00F07E
:109FC000C2821DB1F0EEE86A77EEA67A28AA02EB0B
:109FD000C303DFED746A9FED745A53F8282C13F80D
:109FE000243CD2ED015A77EEA66AB4EEC57AF1EEC2
:109FF00010FA87EE266A40F182840121022284F859
:10A00000913384F8901384F8A023C4EDE55AC4ED8D
:10A01000E67A84EDE76A1BF0ABFD644F644E654958
:10A02000654D664B664ADFF8B8C1A7FB007006EBCA
:10A030009010A1FB006A4FEA5A1AA1FB0A184FEAD6
:10A040005818A5FB08594FEA191956464146CAEB5C
:10A050000A1AC8EB08184D4609EB4909A0EB8A0A11
:10A06000A6EB8808A1EBC90940F2DB7640F26D103F
:10A070000DE0B2EBB10FC0F04E84BCEB311F2CBF32
:10A080004FF4B77101468D420AD36D1A013616F0AE
:10A09000030703FB06F1ECD040F26D118D42F4D2C0
:10A0A000484BA3FB06235A096420DB094FF4C8710F
:10A0B00000FB126201FB1363002F00F06285424A2D
:10A0C0001F21002702E0DFB26D1AD15DA94207F11E
:10A0D0000103F8D91BF04CFD344B3C49CDF80CA0E2
:10A0E000A3FB00239B094FF47A7202FB1300013596
:10A0F0007B1C32460490CDE90198009534481BF052
:10A10000D1FA94F8A00394F89123324B324953F8D2
:10A11000222051F82010D4F89C030A92069124F0D2
:10A12000D3F806460F46D4F89803CDE9046724F027
:10A13000CBF806460F46D4F89403CDE9026724F025
:10A14000C3F80A9ACDE90001244921481BF0AAFA74
:10A1500029B0BDEC068BBDE8F08FDFED237AB4EEBD
:10A16000E79AF1EE10FA40F101840322002384F80B
:10A170006C23C4F87033DFED1B7AC4F85873B4EE67
:10A18000E79AF1EE10FA40F13F82DFED188A0023E2
:10A19000B0EE689A0E934FE6506800207869002070
:10A1A000A06A00206F12833ACDCC4C3ED34D621092
:10A1B0008065BC4E89888888ABAAAAAA295C8FC210
:10A1C000285C8F021F85EB517C3205005C1E050068
:10A1D00080820020E8320500F4320500A02205004C
:10A1E0000AD7A3008FC2F53C9A99193E00000000DF
:10A1F000F5EEC07AF1EE10FABDDD07EE107AD4ED7F
:10A20000D66A77EE666AB0EE086A86EEA77AF0EE56
:10A21000C77AF4EEC67AF1EE10FAACDD0122002323
:10A2200084F86C23C4F87033A5E71FED117AF4EEBF
:10A23000C79AF1EE10FA40F1A1830322002384F8BB
:10A240004422C4F848321FED197ADDED0A6AF4EEB3
:10A25000C79AF1EE10FAC4ED8C6A40F10F821FED3F
:10A260001D8A0023F0EE489A0C9377E5F5EEC07A4C
:10A27000F1EE10FAE7DD9DED0A7AD4ED8C6A77EE07
:10A28000666AB0EE086A86EEA77AB0EEC77AB4EED8
:10A29000C67AF1EE10FAD6DD0122002384F84422BA
:10A2A000C4F84832CFE71FED307AB4EEC7AAF1EE1A
:10A2B00010FA40F15F830322002384F81C21C4F8C4
:10A2C00020311FED387AC4F808B1B4EEC7AAF1EE18
:10A2D00010FA40F1E0811FED3BAA00251AEE108A2A
:10A2E000B2E4F5EEC07AF1EE10FAEADD07EE10BA4C
:10A2F000D4ED426A77EE666AB0EE086A86EEA77A17
:10A30000B0EEC77AB4EEC67AF1EE10FAD9DD0122CA
:10A31000002384F81C21C4F82031D2E75FED4E7A87
:10A32000B0EEE66AB4EEE76AF1EE10FA40F332817D
:10A3300002220023C4EDD96A84EDDA7A84F86C2312
:10A34000C4F8703317E71FED586AF0EEE65AF4EEE2
:10A35000C65AF1EE10FA40F3838102220023C4EDC5
:10A360008F6A84ED907A84F84422C4F848326AE710
:10A370001FED636AF0EEE65AF4EEC65AF1EE10FAFB
:10A3800040F3368102220023C4ED456A84ED467A0B
:10A3900084F81C21C4F8203193E7F1EE687AA8EE26
:10A3A000A87A17EE907AB0EEE89AFFF7A3BBA8EE72
:10A3B000087A18EE107AB0EEC89AFFF79BBBF1EE60
:10A3C000676AA7EEA77A16EE907AB0EEE79AFFF7E3
:10A3D00091BBF1EE487AA8EE087A17EE907AB0EECB
:10A3E000C89AFFF787BBA8EE087AF0EEC89A8DED01
:10A3F0000A8AFFF76ABBA8EEA87AF0EEE89ACDEDDC
:10A400000A8AFFF762BBF1EE686AA8EEA87ACDED82
:10A410000A6AF0EEE89AFFF758BBF1EE486AA8EE38
:10A42000087ACDED0A6AF0EEC89AFFF74EBBF1EE5E
:10A43000676AA7EEA77ACDED0A6AF0EEE79AFFF712
:10A4400044BBA8EEA87A18EE907AB0EEE89AFFF72F
:10A4500051BBB1EE407A17EE10BAB0EEC0AA20EEB2
:10A46000007AFFF71DBBB1EE487A17EE10BAB0EED6
:10A47000C8AA28EE087AFFF713BBB1EE687A17EE88
:10A4800010BAB0EEE8AA28EEA87AFFF709BB28EECA
:10A49000A87A18EE90BAB0EEE8AAFFF701BB28EE52
:10A4A000087A18EE10BAB0EEC8AAFFF7F9BA1FED95
:10A4B000B19A19EE107AFFF71DBB1FEDB4AA1AEE80
:10A4C00010BAB0EE4A7AFFF7EBBA5FEDB89ACDED6D
:10A4D0000A9AFFF7FABAF0EE476A2946B0EE667AB2
:10A4E0000D4601236DE51CF05BFDD74BA0FB03017E
:10A4F000830A43EA8153FFF72DBB31B1B0EEE87A0E
:10A50000F4EEC77AF1EE10FA14D4581C40F01C8413
:10A51000002300210122C4F89433C4F89833C4F80E
:10A520009C33A4F8901384F8A02329B0BDEC068BCB
:10A53000BDE8F08F002D40F0F581DFEDC47A0125F4
:10A54000002A7FF436AD022340E501312029C4F80A
:10A5500054133FF41CAC00293FF71AACD4F8702315
:10A5600094F86C134FF0000A1044C4F85CA3C4F8CC
:10A570007003C4F860A303293FF6FDAD01A353F8AF
:10A5800021F000BFF1A1020095A502005BA102002D
:10A59000059E0200B0F5167F7FF6EDAD002384F82E
:10A5A0006C33C4F87033E6E501312029C4F8041196
:10A5B0003FF4FEAA00293FF7FCAAD4F8203194F812
:10A5C0001C2100210344C4F80C11C4F82031C4F844
:10A5D0001011032A3FF675AE01A151F822F000BF19
:10A5E000E3A20200F1A50200A7A20200179C02004C
:10A5F000B3F5167F7FF665AE002384F81C31C4F8EE
:10A6000020315EE6C4F85873DFED908A0023B0EE87
:10A61000689AC4F874330E936EE401312029C4F8AB
:10A620002C123FF42CAB00293FF72AABD4F8483268
:10A6300094F8442200210344C4F83412C4F8483288
:10A64000C4F83812032A3FF6FEAD01A151F822F0FA
:10A650006DA2020061A602002BA20200259D02004D
:10A66000B3F5167F7FF6EFAD002384F84432C4F8CB
:10A670004832E8E59DED0A7A84ED8C7A9FED738A85
:10A6800000239E46F0EE489AC4F84C320C93FFF734
:10A690006EBBC4F808B19FED6DAA00231AEE108AB4
:10A6A0009C46C4F824311D46FFF7D7BA68480EF01F
:10A6B0007DF900283FF441AA664B674CDFF8B8816A
:10A6C0000FCB0DF1780C8CE80F0094F81C310E9331
:10A6D00094F84432109394F86C330C931BF048FABE
:10A6E000DFF8A4C15D4A5E4B5E49A8FB00E00CEBBD
:10A6F000901CA2FB0C094FEA591AA2FB0A284FEA48
:10A700005812A3FB023E4FEA1E13C2EB021850463A
:10A7100003EB430EA0EB8800CAEB0A19A2EBCE02B2
:10A72000ACEB890A12901392994640F2DB7840F222
:10A730006D10A44610E0B1EBB20FC0F0F0804A4CAF
:10A74000B4EB321F2CBF4FF4B772024691450CD3C5
:10A75000A9EB020908F1010818F0030305FB08F250
:10A76000E9D040F26D129145F2D2404D404A3D4948
:10A77000A5FB080502FB08F2ED094FF4C870B1EB28
:10A78000B20F644600FB1585C0F00C82002D00F06E
:10A790005482002B00F0088336491F23002503E074
:10A7A000D5B2A9EB03094B5D4B4505F10102F7D981
:10A7B0001BF0DEF9304ACDF80CA0A2FB003209F103
:10A7C000010300939209129B02934FF47A71139B39
:10A7D000019301FB12006B1C424604902749284854
:10A7E0001AF060FF584623F06FFD0B460C990246A5
:10A7F00028A800EB8100109950F8280C28AD05EB33
:10A8000081050E9955F8285C0DF1A00C0CEB810127
:10A81000CDE90C2351F8281C06903846CDE90415E3
:10A8200023F052FD804689460A98CDE9028923F03B
:10A830004BFDDDE90C23CDE90001124910481AF067
:10A8400031FFFFF77BB900BF40420F00000000005E
:10A85000087A00208832050050680020898888889E
:10A86000ABAAAAAA285C8F020AD7A3001F85EB51C6
:10A87000295C8FC27C320500D34D62105C1E05003E
:10A88000808200202C2205008065BC4EC8480EF056
:10A890008DF800283FF444A91FAE00212422304641
:10A8A0001E9124F0CDFA384623F00EFD02460B46E9
:10A8B0000A98CDE9042323F007FD02460B465846CB
:10A8C000CDE9022323F000FDBA4ACDE900011EA81C
:10A8D000282125F03BF91EA92822B7480DF0A6FB38
:10A8E000FFF71FB9DFEDB56AB4EEE67AF1EE10FAC4
:10A8F00040F37D82DFEDB27A1420FFF742B9B7EE64
:10A90000087AB4EEC76AF1EE10FA4FF001010CD5E7
:10A910000322FFF774BB4FF4B771FFF7B4BB4FF4DA
:10A92000B77213E70223FFF73CBBF5EEC05A0022D3
:10A93000F1EE10FA84F89133C4EDE55AC4EDE67AED
:10A9400084EDE76A84F8901384F8A0231DDB8B4222
:10A9500000F00682022B00F08F81002B7FF45BABAE
:10A96000984D84EDE2AAC4F88C831CE0C8283FF619
:10A9700015AE00E4C82B3FF63FAEA2E4C82B3FF66D
:10A9800073AE60E4DFED907AA8E5012B00F07E81E4
:10A99000022B00F0EF81002B7FF43DAB8B4D84ED5B
:10A9A000E2AAC4F88C8300242146242230461E9457
:10A9B00024F046FA584623F087FC02460B460A98D4
:10A9C000CDE90A2323F080FC0B4602463846CDE948
:10A9D0000C2323F079FC024692468B461AEE100AAD
:10A9E000CDE90EAB23F070FC024689464046904606
:10A9F000CDE9108923F068FC49EC178B8DED067BBF
:10AA00004BEC17AB8DED047B9DED0C7B8DED027B4C
:10AA10009DED0A7B06460F468DED007B2B466C4A6A
:10AA20002821CDE908671EA825F090F81EA9282244
:10AA300061480DF0FBFA1BF09BF8664B664A1C72EE
:10AA4000586010601BF094F86449654A654BDFF864
:10AA5000A0E1DFF8B0C1A1FB001002EB9010A3FB56
:10AA600000125209A3FB023A4FEA5A1AA4F15534D4
:10AA70001146A4FB0A2B4FEA1B1B5346C1EB0112E4
:10AA8000CAEB0A1AD8460BEB4B0BA3EBCB0BA0EB94
:10AA90008202A1EB8A0A40F2DB7940F26D130FE0EB
:10AAA000BEEBB10FC0F0FC80BCEB311F2CBF4FF4EC
:10AAB000B771194688450DD3A8EB010809F10109C2
:10AAC000494919F0030401FB09F1E9D040F26D1185
:10AAD0008845F1D2454B44494548A3FB09C301FBD6
:10AAE00009F1DB094FF4C87CB0EBB10F0CFB1393F9
:10AAF000C0F0D980002B00F0E480002C00F006812B
:10AB00003C481F23002403E0CCB2A8EB0308035DFC
:10AB1000434504F10101F7D912921BF029F82F4B9C
:10AB2000129A0392A3FB00239B094FF47A7101FB55
:10AB3000130008F101020092631C4A460490CDE91B
:10AB400001BA2D492D481AF0ADFD9DED107B8DED1C
:10AB5000067B9DED0E7B8DED047B9DED0C7B8DEDDD
:10AB6000027B9DED0A7BCDE908678DED007B2449D2
:10AB700022482A461AF096FD29B0BDEC068BBDE8A6
:10AB8000F08F002A49D1002B00F0FE8019491F23C5
:10AB900002E0D7B2ED1ACB5DAB4207F10102F8D962
:10ABA000FFF798BA1349002B56D01F2300252FE03A
:10ABB000087A002018220500F86700200024F448D5
:10ABC0000AD7A33C0022050000000000D0210500A8
:10ABD000E42205000C600020286D0020D34D621097
:10ABE0008065BC4E89888888295C8FC21F85EB519F
:10ABF000285C8F027C3205005C1E050080820020EC
:10AC0000642205000AD7A300D5B2A9EB03094B5D66
:10AC1000994505F10102F7D2CAE57A481F2202E000
:10AC2000CFB2ED1AC25D012F134608BF531C9D42DF
:10AC300007F10101F4D2FFF74DBA002B00F0C180FB
:10AC4000704A1F2303E0CDB2A9EB0309535D994578
:10AC500005F10101F7D2ABE51D461F2203E0C5B2A5
:10AC6000A9EB03094A5D012D134608BF531C994502
:10AC700005F10100F3D29BE519EE108A624DC4ED97
:10AC8000E28A84EDE39AB0EE68AA8CE619EE908A27
:10AC90005E4D84EDE28AC4EDE39AB0EE48AA82E606
:10ACA0004FF4B77106E7FCB156481F23002403E0B8
:10ACB000CCB2A8EB0308035D434504F10101F7D9C9
:10ACC0002AE77CB31C464F491F2306E09845FFF452
:10ACD00023AFC4B2A8EB03080B5D012C04F1010003
:10ACE000F4D14345F5D917E7DFF818C11F2104E077
:10ACF000C4B2A8EB03081CF80410012C0B4608BFD3
:10AD00004B1C984504F10100F2D205E73D491F2391
:10AD100003E0C4B2A8EB03080B5D434504F1010056
:10AD2000F7D9F9E6DFF8DCC01F2104E0C4B2A8EBD4
:10AD300003081CF80410012C0B4608BF4B1C4345AC
:10AD400004F10100F2D9E7E6B0EE677A002B7FF458
:10AD50001FA9002A46D1DFED2E7A0D46FFF731B943
:10AD600019EE908A2B4D84EDE28AC4EDE39AB0EEA1
:10AD700048AA18E619EE108A274DC4EDE28A84ED40
:10AD8000E39AB0EE68AA0EE61E481F2202E0CFB298
:10AD9000ED1AC25D012F134608BF531CAB4207F1E9
:10ADA0000101F4D9FFF796B91D46164A1F2303E0A7
:10ADB000CDB2A9EB0309535D994505F10101F7D225
:10ADC000F6E410491D461F2203E0C5B2A9EB0309B2
:10ADD0004A5D012D134608BF531C4B4505F1010088
:10ADE000F3D9E5E4DFED0A7A0D46FFF7E3B89FED0E
:10ADF0000B7A27EE877ABCEEC77A17EE100AFEF7B9
:10AE0000C0BE00BF7C3205000C220500F421050005
:10AE100000000000E8210500DC21050000007A4464
:10AE20002DE9F04F2DED028B0C2B8DB040F02881D9
:10AE30001368DFEDC17A51689268099308EE103A01
:10AE4000B4EE678AF1EE10FACDE90A12894600F0F5
:10AE5000B0809246B94BBA491A78BA4B81ED008A54
:10AE6000B948BA49C3F800900123C0F800A00B709C
:10AE700022B1B74A1178002900F00A821AF078FE50
:10AE8000B44CB54AB54FB64DDFF8E4C2B549B64B40
:10AE9000A4FB004002EB9010A7FB002B4FEA5B1BCA
:10AEA000A7FB0B277F09A5FB07584FEA18185C463C
:10AEB0003A46CBEB0B1BC7EB0717454608EB480898
:10AEC000A0EB8B0BA4EB8707A2EBC80840F2DB7664
:10AED00040F26D100DE0B1EBB20FC0F0CE80B3EBDD
:10AEE000321F2CBF4FF4B772024695420AD3AD1AF7
:10AEF000013616F003040CFB06F2ECD040F26D12A2
:10AF00009542F4D2994B9A4A9649A3FB060302FB59
:10AF100006F2DB094FF4C870B1EBB20F00FB13630C
:10AF2000C0F06781002B00F0908192491F23002C14
:10AF300000F09D81002402E0D4B2ED1A0B5D9D4229
:10AF400004F10102F8D21AF013FE824B8A49CDF8BF
:10AF50000CB0A3FB00239B094FF47A7202FB130091
:10AF60000135631C324600950490CDE90187834882
:10AF70001AF098FB18EE100A23F0A6F902460B46C9
:10AF80005046CDE9062323F09FF904460D46484676
:10AF9000CDE9024523F098F9DDE90623CDE900016A
:10AFA000774976481AF07EFB0DB0BDEC028BBDE808
:10AFB000F08F07EE101AB4EE677AF1EE10FA9246AF
:10AFC0007FF448AF07EE102AB4EE677AF1EE10FA7C
:10AFD0007FF440AF6B496C4A5C4D6C4C6C485C4EE6
:10AFE0005E4F002381F82C3182F82C312B702370B6
:10AFF000337003701AF0BCFD564A574D584C5C4BE9
:10B000005849DFF864C1A2FB000205EB9212A7FBCE
:10B0100002094FEA5919A7FB09077F09A4FB074852
:10B020004FEA18184D463846C9EB0919C7EB071700
:10B03000444608EB4808A5EB8707A0EBC808A2EB3D
:10B04000890940F2DB7540F26D100EE0B1EBB20FF2
:10B05000C0F0F381BCEB321F2CBF4FF4B772024635
:10B060009442C0F0ED81A41A013515F0030603FBEC
:10B0700005F2EBD040F26D12F2E74FF4B77234E70D
:10B080001F461AF075FD334E334D344A344C38495F
:10B09000344BDFF8D4C0A6FB006005EB9010A2FB98
:10B0A000005A4FEA5A1AA2FB0A284FEA5818A4FB82
:10B0B00008494FEA191955464246CAEB0A1AC8EB25
:10B0C00008184C4609EB4909A0EB8A0AA5EB880849
:10B0D000A2EBC90940F2DB7640F26D100DE0B3EB54
:10B0E000B20FC0F08380BCEB321F2CBF4FF4B7729D
:10B0F000024694420AD3A41A013616F0030501FB56
:10B1000006F2ECD040F26D129442F4D2174B184A7A
:10B110001449A3FB060302FB06F2DB094FF4C870D7
:10B12000B1EBB20F00FB136377D2002D00F03A8130
:10B1300010491F23002530E000C079C47864002046
:10B14000DC6400207C640020E06400208064002037
:10B1500044670020D34D62108065BC4E8988888882
:10B16000ABAAAAAA285C8F020AD7A3001F85EB51BD
:10B17000295C8FC27C3205005C1E050080820020A5
:10B180009823050008660020306E00203C670020F0
:10B19000186D0020D5B2E41A4B5D9C4205F1010206
:10B1A000F8D21AF0E5FCAF4BAF49CDF80CA0A3FBE9
:10B1B00000239B094FF47A7202FB130001343246DC
:10B1C0006B1C0490CDE901980094A8481AF06AFA23
:10B1D000A749A6481AF0B8F9A649A4483A460DB0BE
:10B1E000BDEC028BBDE8F04F1AF05CBA4FF4B772B9
:10B1F0007FE7002C40D1A0481F2205E0AA423FF67D
:10B20000A2AECCB2ED1A025D012C04F1010113468D
:10B21000F4D1531C9D42F4D295E6002B00F0B4808B
:10B2200095491F2365B1002502E0D5B2E41A4B5DB4
:10B23000A34205F10102F8D9B3E7D5B2E41A4B5D98
:10B24000A34205F10102F8D9ABE7002C00F0B98068
:10B250001C4689491F2302E0D4B2ED1A0B5D9D42C2
:10B2600004F10102F8D26EE6D4B2ED1A0B5D9D42F4
:10B2700004F10102F8D266E67F491F23002402E0B0
:10B28000D4B2ED1A0B5D9D4204F10102F8D25AE6E8
:10B2900013701AF06DFC734D784A794F794C7A4BE4
:10B2A0007A49DFF8F4C1A5FB005002EB9010A7FB30
:10B2B000002B4FEA5B1BA7FB0B277F09A4FB07486A
:10B2C0004FEA18185D463A46CBEB0B1BC7EB071746
:10B2D000444608EB4808A0EB8B0BA5EB8707A2EBD5
:10B2E000C80840F2DB7540F26D100CE0B1EBB20F14
:10B2F00047D3BCEB321F2CBF4FF4B77202469442C7
:10B300000AD3A41A013515F0030603FB05F2EDD0AC
:10B3100040F26D129442F4D25D4BA3FB05235A090F
:10B320006420DB094FF4C87100FB125201FB135378
:10B33000002E55D050491F23002602E0D6B2E41A51
:10B340008B5D9C4206F10102F8D21AF011FC454BCC
:10B350004549CDF80CB0A3FB00239B094FF47A724A
:10B3600002FB130001340490CDE901870094731CA3
:10B370002A463E481AF096F946493C481AF092F996
:10B380007CE54FF4B772BAE7002D38D01D463A4934
:10B390001F2302E0D5B2E41A4B5DA34205F101027E
:10B3A000F8D9FEE634481F2202E0CDB2E41A425D2D
:10B3B000012D134608BF531C9C4205F10101F4D234
:10B3C000EFE62D481F2202E0CCB2ED1A025D012CFF
:10B3D000134608BF531C9D4204F10101F4D2B2E5AB
:10B3E000E2B9002B00F08E8023491F2302E0D6B281
:10B3F000E41A8B5D9C4206F10102F8D2A5E71E48D3
:10B400001F2202E0CDB2E41A425D012D134608BFAF
:10B41000531CA34205F10101F4D9C2E616481F22CC
:10B4200002E0CEB2E41A825D012E134608BF531C1F
:10B430009C4206F10101F4D287E74FF4B7720FE6A0
:10B44000134BA3FB05235A096420DB094FF4C87191
:10B4500000FB125201FB1353002E46D006491F2356
:10B4600000261EE0D34D62105C1E05008082002085
:10B47000D01F0500002305007C3205008065BC4E0E
:10B4800089888888ABAAAAAA295C8FC2285C8F0207
:10B490001F85EB51682305000AD7A300D6B2E41A32
:10B4A0008B5D9C4206F10102F8D21AF061FB2C4B35
:10B4B000CDF80C90A3FB00239B094FF47A7101FB9C
:10B4C000130101340491CDE9018726490094731CCE
:10B4D0002A4625481AF0E6F8244923480DB0BDEC69
:10B4E000028BBDE8F04F1AF0DDB8D2B943B3204962
:10B4F0001F2302E0D6B2E41A8B5D9C4206F10102E2
:10B50000F8D2D2E71A481F2202E0CEB2E41A825DD6
:10B51000012E134608BF531C9C4206F10101F4D2D0
:10B5200013E713481F2202E0CEB2E41A825D012E17
:10B53000134608BF531C9C4206F10101F4D2B4E744
:10B540000B481F2202E0CEB2E41A825D012E1346A0
:10B5500008BF531C9C4206F10101F4D2A5E700BFCD
:10B56000D34D62105C1E0500808200202823050058
:10B570007C320500012B40F054812DE9F04FC34986
:10B5800014780878221E18BF0122904291B000F072
:10B5900045810A70002C40F00182BD4B1B78002BC6
:10B5A00040F04081BB4B1B78002B00F01D84BA4B50
:10B5B000BA4FBB4EBB4800251D600AA900230C22D0
:10B5C000CDE90A333D6035600C930CF0F3FC1AF0C2
:10B5D000CFFAB54FB54EB649B64DB74BB74ADFF8BF
:10B5E00010C3A7FB007006EB9010A1FB006B4FEAA5
:10B5F0005B1BA1FB0B184FEA5818A5FB08594FEA33
:10B6000019195E464146CBEB0B1BC8EB08184D469B
:10B6100009EB4909A0EB8B0BA6EB8808A1EBC90944
:10B6200040F2DB7740F26D100DE0B2EBB10FC0F0ED
:10B63000B281BCEB311F2CBF4FF4B77101468D4274
:10B640000AD36D1A013717F0030603FB07F1ECD09C
:10B6500040F26D118D42F4D2994B974A9749A3FB62
:10B66000070302FB07F2DB094FF4C870B1EBB20F1E
:10B6700000FB1373C0F09182002B00F00D83914901
:10B68000002E00F0428400261F2302E0D6B2ED1AFD
:10B690008B5D9D4206F10102F8D21AF069FADFF8DB
:10B6A00008A28949CDF80CB0AAFB00239B094FF4EE
:10B6B0007A7202FB13000135CDE90198731C3A46FA
:10B6C0000095049081487A4F19F0ECFF0022002386
:10B6D000CDE90223CDE900237D497C4819F0E2FF42
:10B6E00000230DA90C227B480D930E930F930CF0B1
:10B6F00061FC0DA90C2277480CF098FC0225002370
:10B70000072207A97448CDF81D30ADF821308DF817
:10B710001C500CF08BFC1AF02BFA644B654D6649FB
:10B72000DFF898C1DFF8C8E1AAFB002A03EB9A1AF8
:10B73000A7FB0A394FEA5919A7FB09377F09A5FB6F
:10B7400007084FEA18184A463B46C9EB0919C7EBE8
:10B750000717454608EB4808AAEB8909A2EB8707BB
:10B76000A3EBC80840F2DB7640F26D100DE0BCEBB5
:10B77000B30FC0F02483BEEB331F2CBF4FF4B7735D
:10B7800003469D420AD3ED1A013616F0030201FB6F
:10B7900006F3ECD040F26D139D42F4D2484BA3FB6C
:10B7A000061359094FF0640CDB094FF4C8700CFB09
:10B7B000116100FB1363002A00F0048341491F2339
:10B7C00002E0D4B2ED1A0B5D9D4204F10102F8D201
:10B7D0001AF0CEF9344B3C49CDF80C90A3FB002372
:10B7E0009B094FF47A7202FB13000135631C324649
:10B7F0000490CDE901873548009519F053FF37498A
:10B800003248374C19F04EFF36483749374A002343
:10B8100084F82C3180F82C310B70137011B0BDE816
:10B82000F08F70471B4B1B78002B00F0EB821AF057
:10B830009FF91D4A1D4B1E4F1E4D1F49DFF87CC04E
:10B84000DFF8ACE0A2FB002003EB9010A7FB00396F
:10B850004FEA5919A7FB09377F09A5FB07584FEA9B
:10B8600018184A463B46C9EB0919C7EB0717454666
:10B8700008EB4808A0EB8909A2EB8707A3EBC808EF
:10B8800040F2DB7640F26D1041E000BF78640020AA
:10B8900044670020A06D0020DC6400207C64002050
:10B8A000E0640020A0670020D34D62108065BC4E8C
:10B8B00089888888ABAAAAAA295C8FC2285C8F02D3
:10B8C0001F85EB517C3205005C1E05008082002044
:10B8D0002424050084640020646F002050240500A7
:10B8E00008660020306E00203C670020186D0020A4
:10B8F0000AD7A300BCEBB30F4AD3BEEB331F2CBF58
:10B900004FF4B77303469D420AD3ED1A013616F081
:10B91000030201FB06F3EDD040F26D139D42F4D219
:10B92000B04BA3FB061359094FF0640CDB094FF42D
:10B93000C8700CFB116100FB1363002A00F01C812E
:10B94000A9491F2302E0D4B2ED1A0B5D9D4204F118
:10B950000102F8D21AF00CF9A44BA549CDF80C90CD
:10B96000A3FB00239B094FF47A7202FB13000135FD
:10B97000631C32460490CDE9018700959D4819F07B
:10B9800091FE9D499B4819F08DFE11B0BDE8F08FE6
:10B990004FF4B773B7E74FF4B77150E6974A934D3A
:10B9A00013701AF0E5F89649964F974C974B984AC2
:10B9B000DFF86CC2A5FB005001EB9010A7FB00194B
:10B9C0004FEA5919A7FB09177F09A4FB07484FEA5B
:10B9D00018184D463946C9EB0919C7EB07174446F5
:10B9E00008EB4808A0EB8909A5EB8707A1EBC8087D
:10B9F00040F2DB7640F26D100DE0B2EBB10FC0F01B
:10BA0000B580BCEB311F2CBF4FF4B77101468C429F
:10BA10000AD3641A013616F0030503FB06F1ECD0D5
:10BA200040F26D118C42F4D26E4BA3FB06235A09EF
:10BA30006420DB094FF4C87100FB126201FB136341
:10BA4000002D00F0B88068491F23002502E0D5B220
:10BA5000E41A4B5D9C4205F10102F8D21AF088F815
:10BA6000DFF888A16249CDF80C90AAFB00239B095E
:10BA70004FF47A7202FB130001346B1C32460490BF
:10BA8000CDE901875B48009419F00CFE61495948E3
:10BA900019F008FE604B1B7823B1604B1A78002A1E
:10BAA00000F04A811AF064F8504D5549554F564CF4
:10BAB000564B574ADFF868C1A5FB005001EB9010C8
:10BAC000A7FB00194FEA5919A7FB09177F09A4FB27
:10BAD00007484FEA18184D463946C9EB0919C7EB14
:10BAE0000717444608EB4808A0EB8909A5EB870730
:10BAF000A1EBC80840F2DB7640F26D100CE0B2EB2F
:10BB0000B10F36D3BCEB311F2CBF4FF4B7710146D8
:10BB10008C420AD3641A013616F0030503FB06F1C2
:10BB2000EDD040F26D118C42F4D22E4B374A384999
:10BB3000A3FB060302FB06F2DB094FF4C870B1EB6E
:10BB4000B20F00FB136347D3002B00F0E6802649B9
:10BB50001F23002D00F0DC80002502E0D5B2E41A9E
:10BB60004B5DA34205F10102F8D968E04FF4B771CB
:10BB70004DE74FF4B771CBE7002940F09C80002BD4
:10BB800000F0A58118491F2302E0D4B2ED1A0B5D25
:10BB90009D4204F10102F8D2DCE6002E6DD012497C
:10BBA00000261F2302E0D6B2ED1A8B5D9D4206F1FE
:10BBB0000102F8D271E5002A40F09880002B00F0D5
:10BBC000AF8109491F2302E0D5B2E41A4B5D9C42C4
:10BBD00005F10102F8D241E7002D7BD102481F2276
:10BBE00025E000BF1F85EB517C320500D34D62106C
:10BBF0005C1E05008082002080240500F96300207F
:10BC00008065BC4E89888888ABAAAAAA295C8FC2A5
:10BC1000285C8F02D0230500806400204467002048
:10BC20000AD7A300A2420AD8CDB2E41A425D012D80
:10BC300005F101011346F5D1531C9C42F4D219F0D1
:10BC400097FFB94BB949CDF80C90A3FB00239B0992
:10BC50004FF47A7202FB130001346B1C32460490DD
:10BC6000CDE901870094B24819F01CFDB149B048F4
:10BC700019F018FD11B0BDE8F08FAF481F2202E0A7
:10BC8000CEB2ED1A825D012E134608BF531C9D42B1
:10BC900006F10101F4D200E5002E00F008811E46F5
:10BCA000A5491F2302E0D6B2ED1A8B5D9D4206F135
:10BCB0000102F8D2F1E4A0481F2202E0CCB2ED1A52
:10BCC000025D012C134608BF531C9D4204F1010183
:10BCD000F4D23FE698491F23002502E0D5B2E41ACA
:10BCE0004B5DA34205F10102F8D9A8E792481F2253
:10BCF00002E0CDB2E41A425D012D134608BF531C89
:10BD00009C4205F10101F4D2A8E6D5B2E41A4B5DDC
:10BD1000A34205F10102F8D991E7002D00F02C8132
:10BD20001D4685491F2302E0D5B2E41A4B5DA342AC
:10BD300005F10102F8D982E701221A7019F018FF03
:10BD40007E4B7F4F7F4C804A8049DFF810C2AAFBB0
:10BD5000000A03EB9A1AA7FB0A394FEA5919A7FB05
:10BD600009377F09A4FB07484FEA181848463B46A5
:10BD7000C9EB0919C7EB0717444608EB4808A0EBC5
:10BD80008707AAEB8909A3EBC80840F2DB7540F2EC
:10BD90006D100CE0B1EBB30F23D3BCEB331F2CBF02
:10BDA0004FF4B77303469C424BD3E41A013515F0A8
:10BDB000030602FB05F3EDD040F26D13F3E74FF4F9
:10BDC000B773DEE459BB002B00F090805A491F2363
:10BDD00002E0D4B2ED1A0B5D9D4204F10102F8D2EB
:10BDE000F6E44FF4B773DEE72346224605215848B0
:10BDF00009F09EF9234622460621554809F098F994
:10BE0000FFF7D5BB234622460521514809F090F99A
:10BE10002346224606214E4809F08AF907E546489E
:10BE20001F2205E0AA423FF6D3ACCCB2ED1A025D68
:10BE3000012C04F101011346F4D1531C9D42F4D2AC
:10BE4000C6E4444BA3FB05235A096420DB094FF4E5
:10BE5000C87100FB125201FB1353002E00F09B80AF
:10BE600035491F23002602E0D6B2E41A8B5DA342B7
:10BE700006F10102F8D919F07BFE2B4BCDF80C909E
:10BE8000A3FB00239B094FF47A7101FB13010134DA
:10BE90000491CDE9018725490094731C2A46244862
:10BEA00019F000FC2C49224819F0FCFBFAE5224865
:10BEB0001F2202E0CEB2ED1A825D012E134608BFAA
:10BEC000531C9D4206F10101F4D2FFF7E6BB1A486C
:10BED0001F2202E0CCB2ED1A025D012C134608BF0E
:10BEE000531C9D4204F10101F4D233E512481F2294
:10BEF00002E0CCB2ED1A025D012C134608BF531CC0
:10BF00009D4204F10101F4D262E41F2302E0D6B2A3
:10BF1000ED1A8B5D9D4206F10102F8D2FFF7BDBB21
:10BF200005481F221FE000BFD34D62105C1E0500B4
:10BF300080820020142405007C3205008065BC4E00
:10BF400089888888ABAAAAAA295C8FC2285C8F023C
:10BF5000F86B00201F85EB51EC2305000AD7A300E6
:10BF6000CDB2E41A425D012D134608BF531C9C421A
:10BF700005F10101F4D271E51C481F2202E0CDB2A7
:10BF8000E41A425D012D134608BF531CA34205F17C
:10BF90000101F4D953E65AB9CBB114491F2302E089
:10BFA000D6B2E41A8B5DA34206F10102F8D962E72A
:10BFB0000E481F2202E0CEB2E41A825D012E134623
:10BFC00008BF531C9C4206F10101F4D253E7074815
:10BFD0001F2202E0CEB2E41A825D012E134608BF92
:10BFE000531CA34206F10101F4D944E77C32050059
:10BFF000C64B1B7803B170472DE9F04F2DED048B34
:10C00000C3488FB009F010F8C148F0EE408A09F03B
:10C0100013F8BF48B0EE408A09F016F8BD4A92F90D
:10C0200000300333F0EE407A062B00F2B281DFE8F5
:10C0300013F0B500B000AB00B001A1009C000700F8
:10C0400020EE007AF0EE406A92F901300333062BBD
:10C0500000F29C81DFE813F084007F007A009A01EF
:10C06000930075000700A7EEA77AB0EE676A92F911
:10C0700002300333062B00F28681DFE813F05D0007
:10C080005800530084014E0049000700A7EEA77A2C
:10C09000DFEDA15AB4EEE57AF1EE10FA33D4F1EE09
:10C0A000C75AB7EE005A85EE257AF6EE085A27EE03
:10C0B000878A66EE878AF0EEC87AF4EEE57AF1EECA
:10C0C00010FA26EE079A6EDC944FDFF880823A78F9
:10C0D000F0EEE87AF4EEE57AF1EE10FACCBF012347
:10C0E00002239A4266D03B70012388F800308C4AC4
:10C0F0008C4D13688C490133136005FB03F3B1EBDE
:10C10000730F80F0C9800FB0BDEC048BBDE8F08FD9
:10C11000A8EE087AF0EE487ABAE7A8EEA87AF0EE30
:10C12000687AB5E7A8EEA87AF1EE687AB0E7A8EEEB
:10C13000087AF1EE487AABE7A7EEA77AF1EE677AD4
:10C14000A6E7A8EE087AB0EE486A90E7A8EEA87ACB
:10C15000B1EE686A8BE7A8EE087AB1EE486A86E726
:10C16000A7EEA77AB1EE676A81E728EE087AF0EECB
:10C17000486A69E728EEA87AF0EE686A64E7A8EEF4
:10C18000A87AB0EE686A72E728EEA87AF1EE686ADB
:10C190005AE728EE087AF1EE486A55E720EE007A71
:10C1A000F1EE406A50E75D4FDFF8A0813A78002356
:10C1B0009A4298D198F80020042A05D80132D2B2C8
:10C1C000052A88F8002092D1DFF8849199F80020A0
:10C1D0009A428CD0554889F800300CF0E7FB0028D3
:10C1E00085D099F800308DF82D3007238DF82C304C
:10C1F000BDF82C304E48ADF82030022208A90BF0D3
:10C2000015FF4C4B4C4E4D4C93E807000EAB03E929
:10C21000070019F0ADFC4A4B4A4A4249DFF828C1F1
:10C22000DFF830E1A3FB000302EB9313A6FB03024C
:10C2300052091546A6FB052A4FEA5A1AA4FB0A2BF7
:10C240004FEA1B1B5046C5EB0512CAEB0A1A5C46A7
:10C250000BEB4B0BA5EB8A0AA0EBCB0BA3EB8202FB
:10C2600040F2DB7540F26D100EE0BCEBB30FC0F096
:10C270009880BEEB331F2CBF4FF4B77303469C422C
:10C28000C0F0ED80E41A013515F0030601FB05F35B
:10C29000EBD040F26D13F2E724480CF087FB002846
:10C2A0003FF431AF234B274E244C93E807000EABED
:10C2B00003E9070019F05CFC214B1F4A2249DFF813
:10C2C00094C0A3FB000306EB9316A2FB063B4FEAC8
:10C2D0005B1BA2FB0B394FEA5919A4FB093A4FEA41
:10C2E0001A1A58464A46CBEB0B1BC9EB09195446A0
:10C2F0000AEB4A0A2B46A0EB8909A6EB8B0BA2EBB3
:10C30000CA0A40F2DB7540F26D1034E02C6E00205A
:10C31000F86B0020946D00200AD7233C09600020B0
:10C3200008640020295C8FC251B81E05087A0020DD
:10C33000646F00209832050089888888ABAAAAAA71
:10C34000D34D62108065BC4E285C8F0204640020CF
:10C35000056000200AD7A30000000000B1EBB20F77
:10C360001CD3BCEB321F2CBF4FF4B7720246944271
:10C370001AD3A41A013515F0030603FB05F2EDD01C
:10C3800040F26D12F3E75FED0C7A81E61FED0E6A65
:10C390006DE61FED0F7AF0EE476A55E64FF4B7727F
:10C3A000E5E74FF4B7736AE78A4BA3FB05235A0905
:10C3B0006420DB094FF4C87100FB125201FB1353D8
:10C3C000002E00F0A28084491F23002602E0D6B28E
:10C3D000E41A8B5DA34206F10102F8D919F0C8FBFB
:10C3E0007E4BCDF80CB0A3FB00239B094FF47A7170
:10C3F00001FB13010134731C2A4600940491CDE91A
:10C4000001A97749774819F04DF918EE900A21F003
:10C410005BFF02460B4619EE100ACDE9062321F018
:10C4200053FF044618EE100A0D4621F04DFF3E78EA
:10C43000022E9BBF0EAF07EB86066B4F56F80C7CA7
:10C4400098F80060CDE90201DDE90623CDE9047624
:10C45000CDE900456549634819F024F953E65D4B81
:10C46000A3FB051359094FF0640CDB094FF4C870A6
:10C470000CFB115100FB1353002E59D056481F23BB
:10C48000002602E0CEB2E41A835DA34206F1010168
:10C49000F8D9069219F06CFB504B069A0392A3FB55
:10C4A00000239B094FF47A7101FB130101340094BE
:10C4B000731C2A460491CDE901BA4949494819F04B
:10C4C000F1F899F800300EAA02EB830318EE100A77
:10C4D00053F80C2C069221F0F7FE04460D4619EE97
:10C4E000100ACDE9044521F0EFFE04460D4618EE92
:10C4F000900ACDE9024521F0E7FE069ACDE9000158
:10C500003B49384819F0CEF8F1E5FAB9002B40D094
:10C5100031491F2305E09C42FFF460AFD6B2E41A14
:10C520008B5D012E06F10102F5D1A342F6D955E744
:10C53000F1B9002B3CD028481F2302E0CEB2E41A08
:10C54000835D9C4206F10101F8D2A2E722481F2236
:10C5500005E0A2423FF642AFCEB2E41A825D012E60
:10C5600006F101011346F4D1531C9C42F4D235E785
:10C57000DFF864C01F2103E0C6B2E41A1CF80610FD
:10C58000012E0B4608BF4B1C9C4206F10100F3D262
:10C590007FE711481F2202E0CEB2E41A825D012E2D
:10C5A000134608BF531CA34206F10101F4D915E755
:10C5B000DFF824C01F2103E0C6B2E41A1CF80610FD
:10C5C000012E0B4608BF4B1C9C4206F10100F3D222
:10C5D0005FE700BF1F85EB517C320500D34D621031
:10C5E0005C1E050080820020C0240500FC2405009C
:10C5F000C4240500A34B1B7803B170472DE9F04F0D
:10C60000A1488BB008F028FD074619F0B1FA9F4BFE
:10C610009F4A1B6819684C689442814640F03682F4
:10C620007A1ED2B2022A00F221825A6840F2DB510D
:10C63000821A8A4200F2B981964B1B7823B1964B3D
:10C640001B78002B00F0B481944B1A78BA4200F0AA
:10C650008E801F7019F08CFA914E924D924A934C35
:10C660009349944BDFF87CC2A6FB006005EB901069
:10C67000A2FB005B4FEA5B1BA2FB0B284FEA58189A
:10C68000A4FB084A4FEA1A1A5D464246CBEB0B1B45
:10C69000C8EB081854460AEB4A0AA0EB8B0BA5EB33
:10C6A0008808A2EBCA0A40F2DB7640F26D100DE07A
:10C6B000B3EBB20FC0F0B380BCEB321F2CBF4FF412
:10C6C000B772024694420AD3A41A013616F0030543
:10C6D00001FB06F2ECD040F26D129442F4D2764A9D
:10C6E000A2FB063253096420D2094FF4C87100FB43
:10C6F000136301FB1262002D00F0AA816F491F2312
:10C70000002502E0D5B2E41A4B5D9C4205F101021E
:10C71000F8D219F02DFA624B6949CDF80CB0A3FBA1
:10C7200000239B094FF47A7202FB130001346B1C47
:10C7300032460490CDE901A86248009418F0B2FF97
:10C74000614960483A4618F0ADFF60480CF02EF998
:10C7500068B101238DF819708DF81830BDF81830C4
:10C760005B48ADF81C30022207A90BF05FFC594B67
:10C770001B78002B00F08280032F40F2B580564BCF
:10C780005648197800220260002977D014213E48CB
:10C790001A7008F077FC19F0EBF9414A414D424F0D
:10C7A000424C434B4349DFF83CC1A2FB000205EB7E
:10C7B0009212A7FB02094FEA5919A7FB09077F0943
:10C7C000A4FB07484FEA18184D463846C9EB09192B
:10C7D000C7EB0717444608EB4808A5EB8707A0EB13
:10C7E000C808A2EB890940F2DB7540F26D100EE03B
:10C7F000B1EBB20FC0F04181BCEB321F2CBF4FF444
:10C80000B77202469442C0F05581A41A013515F062
:10C81000030603FB05F2EBD040F26D12F2E74FF492
:10C82000B7724FE725481F2204E0A2420AD8CEB2D1
:10C83000E41A825D012E06F101011346F5D1531C65
:10C840009C42F4D219F094F9154BCDF80CA0A3FB3F
:10C8500000239B094FF47A7101FB130101342A462E
:10C860000491CDE90198164916480094731C18F0FC
:10C8700019FF3A781A49134818F014FF0BB0BDE8B5
:10C88000F08F00BF2C6E0020F86B00205C60002051
:10C89000ED7202003C6700208064002004600020EC
:10C8A000D34D62108065BC4E89888888ABAAAAAA3D
:10C8B000295C8FC2285C8F021F85EB517C320500FA
:10C8C0005C1E05008082002090250500087A00206B
:10C8D000646F002078640020EC630020F063002087
:10C8E000F02505000AD7A30000F0CA80BF4F3B78AF
:10C8F000002B00F0C580BE4A1368002B00F03B817E
:10C90000BC4A11780029B9D1A9EB030341F2873160
:10C910008B42B3D901236421B748137008F0B2FBEE
:10C9200019F026F9B54BB64DB64CB74EB74AB849D3
:10C93000DFF800C3A3FB000305EB9315A4FB053A46
:10C940004FEA5A1AA4FB0A344FEA5418A6FB0846C9
:10C950004FEA161950464346CAEB0A1AC8EB0818A4
:10C960004C4609EB4909A5EB8A0AA0EB8808A3EB22
:10C97000C90940F2DB7540F26D100EE0B1EBB30F68
:10C98000C0F07581BCEB331F2CBF4FF4B773034667
:10C990009C42C0F00482E41A013515F0030602FB44
:10C9A00005F3EBD040F26D13F2E701221A7243E671
:10C9B000032F00F0E3807FF647AE964A11780029F6
:10C9C0003FF442AE137019F0D3F88C4B8C4D8D4E62
:10C9D0008D4C8E4A8E49DFF85CC2A3FB000305EB49
:10C9E0009315A6FB053B4FEA5B1BA6FB0B364FEAF4
:10C9F0005618A4FB08644FEA141A58464346CBEB7A
:10CA00000B1BC8EB081854460AEB4A0AA5EB8B0B24
:10CA1000A0EB8808A3EBCA0A40F2DB7540F26D1068
:10CA20000EE0B1EBB30FC0F01F81BCEB331F2CBF86
:10CA30004FF4B77303469C42C0F05281E41A0135AB
:10CA400015F0030602FB05F3EBD040F26D13F2E79D
:10CA50000BBB002A69D070491F2302E0D5B2E41A4B
:10CA60004B5D9C4205F10102F8D252E65860032F5B
:10CA700084BF6A4BC3F80090DEE54FF4B772C1E69D
:10CA80005B4B00221A600BB0BDE8F08F18464A4697
:10CA90003946A047EBE760481F2202E0CDB2E41A16
:10CAA000425D012D134608BF531C9C4205F1010154
:10CAB000F4D22EE65A4B554A5549A3FB050302FB17
:10CAC00005F2DB094FF4C870B1EBB20F00FB135352
:10CAD0003AD3002B00F050814F491F23002E45D040
